{
	"data": {
		"bytecode": {
			"linkReferences": {},
			"object": "60806040526040518060400160405280600160ff168152602001600260ff168152506000906002610031929190610044565b5034801561003e57600080fd5b506100a6565b8260028101928215610078579160200282015b82811115610077578251829060ff16905591602001919060010190610057565b5b5090506100859190610089565b5090565b5b808211156100a257600081600090555060010161008a565b5090565b6101d4806100b56000396000f3fe608060405234801561001057600080fd5b50600436106100365760003560e01c8063d70f83c21461003b578063fc35be061461006b575b600080fd5b610055600480360381019061005091906100cb565b610075565b6040516100629190610107565b60405180910390f35b6100736100b4565b005b6002818154811061008557600080fd5b906000526020600020016000915054906101000a900473ffffffffffffffffffffffffffffffffffffffff1681565b565b6000813590506100c581610187565b92915050565b6000602082840312156100e1576100e0610182565b5b60006100ef848285016100b6565b91505092915050565b6101018161014c565b82525050565b600060208201905061011c60008301846100f8565b92915050565b600073ffffffffffffffffffffffffffffffffffffffff82169050919050565b6000819050919050565b60006101578261015e565b9050919050565b600061016982610170565b9050919050565b600061017b82610122565b9050919050565b600080fd5b61019081610142565b811461019b57600080fd5b5056fea26469706673582212205696a1e3877ed54ee0c67521a25e18ddbab5fb00d50da1103d82c7144d1ad19764736f6c63430008070033",
			"opcodes": "PUSH1 0x80 PUSH1 0x40 MSTORE PUSH1 0x40 MLOAD DUP1 PUSH1 0x40 ADD PUSH1 0x40 MSTORE DUP1 PUSH1 0x1 PUSH1 0xFF AND DUP2 MSTORE PUSH1 0x20 ADD PUSH1 0x2 PUSH1 0xFF AND DUP2 MSTORE POP PUSH1 0x0 SWAP1 PUSH1 0x2 PUSH2 0x31 SWAP3 SWAP2 SWAP1 PUSH2 0x44 JUMP JUMPDEST POP CALLVALUE DUP1 ISZERO PUSH2 0x3E JUMPI PUSH1 0x0 DUP1 REVERT JUMPDEST POP PUSH2 0xA6 JUMP JUMPDEST DUP3 PUSH1 0x2 DUP2 ADD SWAP3 DUP3 ISZERO PUSH2 0x78 JUMPI SWAP2 PUSH1 0x20 MUL DUP3 ADD JUMPDEST DUP3 DUP2 GT ISZERO PUSH2 0x77 JUMPI DUP3 MLOAD DUP3 SWAP1 PUSH1 0xFF AND SWAP1 SSTORE SWAP2 PUSH1 0x20 ADD SWAP2 SWAP1 PUSH1 0x1 ADD SWAP1 PUSH2 0x57 JUMP JUMPDEST JUMPDEST POP SWAP1 POP PUSH2 0x85 SWAP2 SWAP1 PUSH2 0x89 JUMP JUMPDEST POP SWAP1 JUMP JUMPDEST JUMPDEST DUP1 DUP3 GT ISZERO PUSH2 0xA2 JUMPI PUSH1 0x0 DUP2 PUSH1 0x0 SWAP1 SSTORE POP PUSH1 0x1 ADD PUSH2 0x8A JUMP JUMPDEST POP SWAP1 JUMP JUMPDEST PUSH2 0x1D4 DUP1 PUSH2 0xB5 PUSH1 0x0 CODECOPY PUSH1 0x0 RETURN INVALID PUSH1 0x80 PUSH1 0x40 MSTORE CALLVALUE DUP1 ISZERO PUSH2 0x10 JUMPI PUSH1 0x0 DUP1 REVERT JUMPDEST POP PUSH1 0x4 CALLDATASIZE LT PUSH2 0x36 JUMPI PUSH1 0x0 CALLDATALOAD PUSH1 0xE0 SHR DUP1 PUSH4 0xD70F83C2 EQ PUSH2 0x3B JUMPI DUP1 PUSH4 0xFC35BE06 EQ PUSH2 0x6B JUMPI JUMPDEST PUSH1 0x0 DUP1 REVERT JUMPDEST PUSH2 0x55 PUSH1 0x4 DUP1 CALLDATASIZE SUB DUP2 ADD SWAP1 PUSH2 0x50 SWAP2 SWAP1 PUSH2 0xCB JUMP JUMPDEST PUSH2 0x75 JUMP JUMPDEST PUSH1 0x40 MLOAD PUSH2 0x62 SWAP2 SWAP1 PUSH2 0x107 JUMP JUMPDEST PUSH1 0x40 MLOAD DUP1 SWAP2 SUB SWAP1 RETURN JUMPDEST PUSH2 0x73 PUSH2 0xB4 JUMP JUMPDEST STOP JUMPDEST PUSH1 0x2 DUP2 DUP2 SLOAD DUP2 LT PUSH2 0x85 JUMPI PUSH1 0x0 DUP1 REVERT JUMPDEST SWAP1 PUSH1 0x0 MSTORE PUSH1 0x20 PUSH1 0x0 KECCAK256 ADD PUSH1 0x0 SWAP2 POP SLOAD SWAP1 PUSH2 0x100 EXP SWAP1 DIV PUSH20 0xFFFFFFFFFFFFFFFFFFFFFFFFFFFFFFFFFFFFFFFF AND DUP2 JUMP JUMPDEST JUMP JUMPDEST PUSH1 0x0 DUP2 CALLDATALOAD SWAP1 POP PUSH2 0xC5 DUP2 PUSH2 0x187 JUMP JUMPDEST SWAP3 SWAP2 POP POP JUMP JUMPDEST PUSH1 0x0 PUSH1 0x20 DUP3 DUP5 SUB SLT ISZERO PUSH2 0xE1 JUMPI PUSH2 0xE0 PUSH2 0x182 JUMP JUMPDEST JUMPDEST PUSH1 0x0 PUSH2 0xEF DUP5 DUP3 DUP6 ADD PUSH2 0xB6 JUMP JUMPDEST SWAP2 POP POP SWAP3 SWAP2 POP POP JUMP JUMPDEST PUSH2 0x101 DUP2 PUSH2 0x14C JUMP JUMPDEST DUP3 MSTORE POP POP JUMP JUMPDEST PUSH1 0x0 PUSH1 0x20 DUP3 ADD SWAP1 POP PUSH2 0x11C PUSH1 0x0 DUP4 ADD DUP5 PUSH2 0xF8 JUMP JUMPDEST SWAP3 SWAP2 POP POP JUMP JUMPDEST PUSH1 0x0 PUSH20 0xFFFFFFFFFFFFFFFFFFFFFFFFFFFFFFFFFFFFFFFF DUP3 AND SWAP1 POP SWAP2 SWAP1 POP JUMP JUMPDEST PUSH1 0x0 DUP2 SWAP1 POP SWAP2 SWAP1 POP JUMP JUMPDEST PUSH1 0x0 PUSH2 0x157 DUP3 PUSH2 0x15E JUMP JUMPDEST SWAP1 POP SWAP2 SWAP1 POP JUMP JUMPDEST PUSH1 0x0 PUSH2 0x169 DUP3 PUSH2 0x170 JUMP JUMPDEST SWAP1 POP SWAP2 SWAP1 POP JUMP JUMPDEST PUSH1 0x0 PUSH2 0x17B DUP3 PUSH2 0x122 JUMP JUMPDEST SWAP1 POP SWAP2 SWAP1 POP JUMP JUMPDEST PUSH1 0x0 DUP1 REVERT JUMPDEST PUSH2 0x190 DUP2 PUSH2 0x142 JUMP JUMPDEST DUP2 EQ PUSH2 0x19B JUMPI PUSH1 0x0 DUP1 REVERT JUMPDEST POP JUMP INVALID LOG2 PUSH5 0x6970667358 0x22 SLT KECCAK256 JUMP SWAP7 LOG1 0xE3 DUP8 PUSH31 0xD54EE0C67521A25E18DDBAB5FB00D50DA1103D82C7144D1AD19764736F6C63 NUMBER STOP ADDMOD SMOD STOP CALLER "
		},
		"gasEstimates": {
			"creation": {
				"codeDepositCost": "93600",
				"executionCost": "infinite",
				"totalCost": "infinite"
			},
			"external": {
				"estates(uint256)": "5020",
				"smth()": "144"
			}
		},
		"methodIdentifiers": {
			"estates(uint256)": "d70f83c2",
			"smth()": "fc35be06"
		}
	},
	"abi": [
		{
			"inputs": [],
			"stateMutability": "nonpayable",
			"type": "constructor"
		},
		{
			"inputs": [
				{
					"internalType": "uint256",
					"name": "",
					"type": "uint256"
				}
			],
			"name": "estates",
			"outputs": [
				{
					"internalType": "contract ProductShop",
					"name": "",
					"type": "address"
				}
			],
			"stateMutability": "view",
			"type": "function"
		},
		{
			"inputs": [],
			"name": "smth",
			"outputs": [],
			"stateMutability": "nonpayable",
			"type": "function"
		}
	]
}