{
	"one_smart_contract/contr.sol": {
		"SimpleContract": {
			"abi": [
				{
					"inputs": [
						{
							"internalType": "string",
							"name": "name",
							"type": "string"
						}
					],
					"stateMutability": "nonpayable",
					"type": "constructor"
				},
				{
					"inputs": [
						{
							"internalType": "uint256",
							"name": "numTrip",
							"type": "uint256"
						}
					],
					"name": "addUserInTrip",
					"outputs": [
						{
							"internalType": "bool",
							"name": "",
							"type": "bool"
						}
					],
					"stateMutability": "nonpayable",
					"type": "function"
				},
				{
					"inputs": [],
					"name": "getBalance",
					"outputs": [
						{
							"internalType": "uint256",
							"name": "",
							"type": "uint256"
						}
					],
					"stateMutability": "nonpayable",
					"type": "function"
				},
				{
					"inputs": [
						{
							"internalType": "uint256",
							"name": "numTrip",
							"type": "uint256"
						}
					],
					"name": "getInfoOfTrip",
					"outputs": [
						{
							"internalType": "string",
							"name": "",
							"type": "string"
						}
					],
					"stateMutability": "nonpayable",
					"type": "function"
				},
				{
					"inputs": [
						{
							"internalType": "uint256",
							"name": "numTrip",
							"type": "uint256"
						}
					],
					"name": "getPeopleInTrip",
					"outputs": [
						{
							"internalType": "address[]",
							"name": "",
							"type": "address[]"
						}
					],
					"stateMutability": "nonpayable",
					"type": "function"
				},
				{
					"inputs": [
						{
							"internalType": "uint256",
							"name": "num",
							"type": "uint256"
						}
					],
					"name": "getSostBus",
					"outputs": [
						{
							"internalType": "bool",
							"name": "",
							"type": "bool"
						}
					],
					"stateMutability": "nonpayable",
					"type": "function"
				},
				{
					"inputs": [
						{
							"internalType": "uint256",
							"name": "numTrip",
							"type": "uint256"
						}
					],
					"name": "getTripPrise",
					"outputs": [
						{
							"internalType": "uint256",
							"name": "",
							"type": "uint256"
						}
					],
					"stateMutability": "nonpayable",
					"type": "function"
				},
				{
					"inputs": [
						{
							"internalType": "address",
							"name": "addr",
							"type": "address"
						}
					],
					"name": "getUser",
					"outputs": [
						{
							"internalType": "string",
							"name": "",
							"type": "string"
						}
					],
					"stateMutability": "nonpayable",
					"type": "function"
				},
				{
					"inputs": [
						{
							"internalType": "address",
							"name": "addr",
							"type": "address"
						}
					],
					"name": "getUserRole",
					"outputs": [
						{
							"internalType": "uint256",
							"name": "",
							"type": "uint256"
						}
					],
					"stateMutability": "nonpayable",
					"type": "function"
				},
				{
					"inputs": [],
					"name": "moneyHome",
					"outputs": [],
					"stateMutability": "payable",
					"type": "function"
				},
				{
					"inputs": [],
					"name": "pay",
					"outputs": [],
					"stateMutability": "payable",
					"type": "function"
				},
				{
					"inputs": [
						{
							"internalType": "uint256",
							"name": "num",
							"type": "uint256"
						},
						{
							"internalType": "bool",
							"name": "cond",
							"type": "bool"
						},
						{
							"internalType": "uint256",
							"name": "kM",
							"type": "uint256"
						}
					],
					"name": "setBus",
					"outputs": [],
					"stateMutability": "nonpayable",
					"type": "function"
				},
				{
					"inputs": [
						{
							"internalType": "address",
							"name": "rab",
							"type": "address"
						},
						{
							"internalType": "string",
							"name": "us",
							"type": "string"
						},
						{
							"internalType": "uint256",
							"name": "r",
							"type": "uint256"
						}
					],
					"name": "setPersonUser",
					"outputs": [],
					"stateMutability": "nonpayable",
					"type": "function"
				},
				{
					"inputs": [
						{
							"internalType": "string",
							"name": "us",
							"type": "string"
						}
					],
					"name": "setSimpleUser",
					"outputs": [],
					"stateMutability": "nonpayable",
					"type": "function"
				},
				{
					"inputs": [
						{
							"internalType": "uint256",
							"name": "num",
							"type": "uint256"
						},
						{
							"internalType": "bool",
							"name": "cond",
							"type": "bool"
						}
					],
					"name": "setSostBus",
					"outputs": [],
					"stateMutability": "nonpayable",
					"type": "function"
				},
				{
					"inputs": [
						{
							"internalType": "uint256",
							"name": "numTrip",
							"type": "uint256"
						},
						{
							"internalType": "string",
							"name": "A",
							"type": "string"
						},
						{
							"internalType": "string",
							"name": "B",
							"type": "string"
						},
						{
							"internalType": "uint256",
							"name": "prs",
							"type": "uint256"
						},
						{
							"internalType": "uint256",
							"name": "bus",
							"type": "uint256"
						}
					],
					"name": "setTrip",
					"outputs": [],
					"stateMutability": "nonpayable",
					"type": "function"
				}
			],
			"devdoc": {
				"kind": "dev",
				"methods": {},
				"version": 1
			},
			"evm": {
				"assembly": "    /* \"one_smart_contract/contr.sol\":44:7008  contract SimpleContract \r... */\n  mstore(0x40, 0x80)\n    /* \"one_smart_contract/contr.sol\":79:281  constructor(string memory name)\r... */\n  callvalue\n  dup1\n  iszero\n  tag_1\n  jumpi\n  0x00\n  dup1\n  revert\ntag_1:\n  pop\n  mload(0x40)\n  sub(codesize, bytecodeSize)\n  dup1\n  bytecodeSize\n  dup4\n  codecopy\n  dup2\n  dup2\n  add\n  0x40\n  mstore\n  dup2\n  add\n  swap1\n  tag_2\n  swap2\n  swap1\n  tag_3\n  jump\t// in\ntag_2:\n    /* \"one_smart_contract/contr.sol\":127:139  uint balance */\n  0x00\n    /* \"one_smart_contract/contr.sol\":154:167  address owner */\n  dup1\n    /* \"one_smart_contract/contr.sol\":170:180  msg.sender */\n  caller\n    /* \"one_smart_contract/contr.sol\":154:180  address owner = msg.sender */\n  swap1\n  pop\n    /* \"one_smart_contract/contr.sol\":222:223  4 */\n  0x04\n    /* \"one_smart_contract/contr.sol\":191:202  massOfUsers */\n  0x01\n    /* \"one_smart_contract/contr.sol\":191:214  massOfUsers[msg.sender] */\n  0x00\n    /* \"one_smart_contract/contr.sol\":203:213  msg.sender */\n  caller\n    /* \"one_smart_contract/contr.sol\":191:214  massOfUsers[msg.sender] */\n  0xffffffffffffffffffffffffffffffffffffffff\n  and\n  0xffffffffffffffffffffffffffffffffffffffff\n  and\n  dup2\n  mstore\n  0x20\n  add\n  swap1\n  dup2\n  mstore\n  0x20\n  add\n  0x00\n  keccak256\n    /* \"one_smart_contract/contr.sol\":191:219  massOfUsers[msg.sender].role */\n  0x01\n  add\n    /* \"one_smart_contract/contr.sol\":191:223  massOfUsers[msg.sender].role = 4 */\n  dup2\n  swap1\n  sstore\n  pop\n    /* \"one_smart_contract/contr.sol\":269:273  name */\n  dup3\n    /* \"one_smart_contract/contr.sol\":234:245  massOfUsers */\n  0x01\n    /* \"one_smart_contract/contr.sol\":234:257  massOfUsers[msg.sender] */\n  0x00\n    /* \"one_smart_contract/contr.sol\":246:256  msg.sender */\n  caller\n    /* \"one_smart_contract/contr.sol\":234:257  massOfUsers[msg.sender] */\n  0xffffffffffffffffffffffffffffffffffffffff\n  and\n  0xffffffffffffffffffffffffffffffffffffffff\n  and\n  dup2\n  mstore\n  0x20\n  add\n  swap1\n  dup2\n  mstore\n  0x20\n  add\n  0x00\n  keccak256\n    /* \"one_smart_contract/contr.sol\":234:266  massOfUsers[msg.sender].userName */\n  0x00\n  add\n    /* \"one_smart_contract/contr.sol\":234:273  massOfUsers[msg.sender].userName = name */\n  swap1\n  dup1\n  mload\n  swap1\n  0x20\n  add\n  swap1\n  tag_6\n  swap3\n  swap2\n  swap1\n  tag_7\n  jump\t// in\ntag_6:\n  pop\n    /* \"one_smart_contract/contr.sol\":116:281  {\r... */\n  pop\n  pop\n    /* \"one_smart_contract/contr.sol\":79:281  constructor(string memory name)\r... */\n  pop\n    /* \"one_smart_contract/contr.sol\":44:7008  contract SimpleContract \r... */\n  jump(tag_8)\ntag_7:\n  dup3\n  dup1\n  sload\n  tag_9\n  swap1\n  tag_10\n  jump\t// in\ntag_9:\n  swap1\n  0x00\n  mstore\n  keccak256(0x00, 0x20)\n  swap1\n  0x1f\n  add\n  0x20\n  swap1\n  div\n  dup2\n  add\n  swap3\n  dup3\n  tag_12\n  jumpi\n  0x00\n  dup6\n  sstore\n  jump(tag_11)\ntag_12:\n  dup3\n  0x1f\n  lt\n  tag_13\n  jumpi\n  dup1\n  mload\n  not(0xff)\n  and\n  dup4\n  dup1\n  add\n  or\n  dup6\n  sstore\n  jump(tag_11)\ntag_13:\n  dup3\n  dup1\n  add\n  0x01\n  add\n  dup6\n  sstore\n  dup3\n  iszero\n  tag_11\n  jumpi\n  swap2\n  dup3\n  add\ntag_14:\n  dup3\n  dup2\n  gt\n  iszero\n  tag_15\n  jumpi\n  dup3\n  mload\n  dup3\n  sstore\n  swap2\n  0x20\n  add\n  swap2\n  swap1\n  0x01\n  add\n  swap1\n  jump(tag_14)\ntag_15:\ntag_11:\n  pop\n  swap1\n  pop\n  tag_16\n  swap2\n  swap1\n  tag_17\n  jump\t// in\ntag_16:\n  pop\n  swap1\n  jump\t// out\ntag_17:\ntag_18:\n  dup1\n  dup3\n  gt\n  iszero\n  tag_19\n  jumpi\n  0x00\n  dup2\n  0x00\n  swap1\n  sstore\n  pop\n  0x01\n  add\n  jump(tag_18)\ntag_19:\n  pop\n  swap1\n  jump\t// out\n    /* \"#utility.yul\":7:428   */\ntag_21:\n    /* \"#utility.yul\":96:101   */\n  0x00\n    /* \"#utility.yul\":121:187   */\n  tag_23\n    /* \"#utility.yul\":137:186   */\n  tag_24\n    /* \"#utility.yul\":179:185   */\n  dup5\n    /* \"#utility.yul\":137:186   */\n  tag_25\n  jump\t// in\ntag_24:\n    /* \"#utility.yul\":121:187   */\n  tag_26\n  jump\t// in\ntag_23:\n    /* \"#utility.yul\":112:187   */\n  swap1\n  pop\n    /* \"#utility.yul\":210:216   */\n  dup3\n    /* \"#utility.yul\":203:208   */\n  dup2\n    /* \"#utility.yul\":196:217   */\n  mstore\n    /* \"#utility.yul\":248:252   */\n  0x20\n    /* \"#utility.yul\":241:246   */\n  dup2\n    /* \"#utility.yul\":237:253   */\n  add\n    /* \"#utility.yul\":286:289   */\n  dup5\n    /* \"#utility.yul\":277:283   */\n  dup5\n    /* \"#utility.yul\":272:275   */\n  dup5\n    /* \"#utility.yul\":268:284   */\n  add\n    /* \"#utility.yul\":265:290   */\n  gt\n    /* \"#utility.yul\":262:374   */\n  iszero\n  tag_27\n  jumpi\n    /* \"#utility.yul\":293:372   */\n  tag_28\n  tag_29\n  jump\t// in\ntag_28:\n    /* \"#utility.yul\":262:374   */\ntag_27:\n    /* \"#utility.yul\":383:422   */\n  tag_30\n    /* \"#utility.yul\":415:421   */\n  dup5\n    /* \"#utility.yul\":410:413   */\n  dup3\n    /* \"#utility.yul\":405:408   */\n  dup6\n    /* \"#utility.yul\":383:422   */\n  tag_31\n  jump\t// in\ntag_30:\n    /* \"#utility.yul\":102:428   */\n  pop\n    /* \"#utility.yul\":7:428   */\n  swap4\n  swap3\n  pop\n  pop\n  pop\n  jump\t// out\n    /* \"#utility.yul\":448:803   */\ntag_32:\n    /* \"#utility.yul\":515:520   */\n  0x00\n    /* \"#utility.yul\":564:567   */\n  dup3\n    /* \"#utility.yul\":557:561   */\n  0x1f\n    /* \"#utility.yul\":549:555   */\n  dup4\n    /* \"#utility.yul\":545:562   */\n  add\n    /* \"#utility.yul\":541:568   */\n  slt\n    /* \"#utility.yul\":531:653   */\n  tag_34\n  jumpi\n    /* \"#utility.yul\":572:651   */\n  tag_35\n  tag_36\n  jump\t// in\ntag_35:\n    /* \"#utility.yul\":531:653   */\ntag_34:\n    /* \"#utility.yul\":682:688   */\n  dup2\n    /* \"#utility.yul\":676:689   */\n  mload\n    /* \"#utility.yul\":707:797   */\n  tag_37\n    /* \"#utility.yul\":793:796   */\n  dup5\n    /* \"#utility.yul\":785:791   */\n  dup3\n    /* \"#utility.yul\":778:782   */\n  0x20\n    /* \"#utility.yul\":770:776   */\n  dup7\n    /* \"#utility.yul\":766:783   */\n  add\n    /* \"#utility.yul\":707:797   */\n  tag_21\n  jump\t// in\ntag_37:\n    /* \"#utility.yul\":698:797   */\n  swap2\n  pop\n    /* \"#utility.yul\":521:803   */\n  pop\n    /* \"#utility.yul\":448:803   */\n  swap3\n  swap2\n  pop\n  pop\n  jump\t// out\n    /* \"#utility.yul\":809:1333   */\ntag_3:\n    /* \"#utility.yul\":889:895   */\n  0x00\n    /* \"#utility.yul\":938:940   */\n  0x20\n    /* \"#utility.yul\":926:935   */\n  dup3\n    /* \"#utility.yul\":917:924   */\n  dup5\n    /* \"#utility.yul\":913:936   */\n  sub\n    /* \"#utility.yul\":909:941   */\n  slt\n    /* \"#utility.yul\":906:1025   */\n  iszero\n  tag_39\n  jumpi\n    /* \"#utility.yul\":944:1023   */\n  tag_40\n  tag_41\n  jump\t// in\ntag_40:\n    /* \"#utility.yul\":906:1025   */\ntag_39:\n    /* \"#utility.yul\":1085:1086   */\n  0x00\n    /* \"#utility.yul\":1074:1083   */\n  dup3\n    /* \"#utility.yul\":1070:1087   */\n  add\n    /* \"#utility.yul\":1064:1088   */\n  mload\n    /* \"#utility.yul\":1115:1133   */\n  0xffffffffffffffff\n    /* \"#utility.yul\":1107:1113   */\n  dup2\n    /* \"#utility.yul\":1104:1134   */\n  gt\n    /* \"#utility.yul\":1101:1218   */\n  iszero\n  tag_42\n  jumpi\n    /* \"#utility.yul\":1137:1216   */\n  tag_43\n  tag_44\n  jump\t// in\ntag_43:\n    /* \"#utility.yul\":1101:1218   */\ntag_42:\n    /* \"#utility.yul\":1242:1316   */\n  tag_45\n    /* \"#utility.yul\":1308:1315   */\n  dup5\n    /* \"#utility.yul\":1299:1305   */\n  dup3\n    /* \"#utility.yul\":1288:1297   */\n  dup6\n    /* \"#utility.yul\":1284:1306   */\n  add\n    /* \"#utility.yul\":1242:1316   */\n  tag_32\n  jump\t// in\ntag_45:\n    /* \"#utility.yul\":1232:1316   */\n  swap2\n  pop\n    /* \"#utility.yul\":1035:1326   */\n  pop\n    /* \"#utility.yul\":809:1333   */\n  swap3\n  swap2\n  pop\n  pop\n  jump\t// out\n    /* \"#utility.yul\":1339:1468   */\ntag_26:\n    /* \"#utility.yul\":1373:1379   */\n  0x00\n    /* \"#utility.yul\":1400:1420   */\n  tag_47\n  tag_48\n  jump\t// in\ntag_47:\n    /* \"#utility.yul\":1390:1420   */\n  swap1\n  pop\n    /* \"#utility.yul\":1429:1462   */\n  tag_49\n    /* \"#utility.yul\":1457:1461   */\n  dup3\n    /* \"#utility.yul\":1449:1455   */\n  dup3\n    /* \"#utility.yul\":1429:1462   */\n  tag_50\n  jump\t// in\ntag_49:\n    /* \"#utility.yul\":1339:1468   */\n  swap2\n  swap1\n  pop\n  jump\t// out\n    /* \"#utility.yul\":1474:1549   */\ntag_48:\n    /* \"#utility.yul\":1507:1513   */\n  0x00\n    /* \"#utility.yul\":1540:1542   */\n  0x40\n    /* \"#utility.yul\":1534:1543   */\n  mload\n    /* \"#utility.yul\":1524:1543   */\n  swap1\n  pop\n    /* \"#utility.yul\":1474:1549   */\n  swap1\n  jump\t// out\n    /* \"#utility.yul\":1555:1863   */\ntag_25:\n    /* \"#utility.yul\":1617:1621   */\n  0x00\n    /* \"#utility.yul\":1707:1725   */\n  0xffffffffffffffff\n    /* \"#utility.yul\":1699:1705   */\n  dup3\n    /* \"#utility.yul\":1696:1726   */\n  gt\n    /* \"#utility.yul\":1693:1749   */\n  iszero\n  tag_53\n  jumpi\n    /* \"#utility.yul\":1729:1747   */\n  tag_54\n  tag_55\n  jump\t// in\ntag_54:\n    /* \"#utility.yul\":1693:1749   */\ntag_53:\n    /* \"#utility.yul\":1767:1796   */\n  tag_56\n    /* \"#utility.yul\":1789:1795   */\n  dup3\n    /* \"#utility.yul\":1767:1796   */\n  tag_57\n  jump\t// in\ntag_56:\n    /* \"#utility.yul\":1759:1796   */\n  swap1\n  pop\n    /* \"#utility.yul\":1851:1855   */\n  0x20\n    /* \"#utility.yul\":1845:1849   */\n  dup2\n    /* \"#utility.yul\":1841:1856   */\n  add\n    /* \"#utility.yul\":1833:1856   */\n  swap1\n  pop\n    /* \"#utility.yul\":1555:1863   */\n  swap2\n  swap1\n  pop\n  jump\t// out\n    /* \"#utility.yul\":1869:2176   */\ntag_31:\n    /* \"#utility.yul\":1937:1938   */\n  0x00\n    /* \"#utility.yul\":1947:2060   */\ntag_59:\n    /* \"#utility.yul\":1961:1967   */\n  dup4\n    /* \"#utility.yul\":1958:1959   */\n  dup2\n    /* \"#utility.yul\":1955:1968   */\n  lt\n    /* \"#utility.yul\":1947:2060   */\n  iszero\n  tag_61\n  jumpi\n    /* \"#utility.yul\":2046:2047   */\n  dup1\n    /* \"#utility.yul\":2041:2044   */\n  dup3\n    /* \"#utility.yul\":2037:2048   */\n  add\n    /* \"#utility.yul\":2031:2049   */\n  mload\n    /* \"#utility.yul\":2027:2028   */\n  dup2\n    /* \"#utility.yul\":2022:2025   */\n  dup5\n    /* \"#utility.yul\":2018:2029   */\n  add\n    /* \"#utility.yul\":2011:2050   */\n  mstore\n    /* \"#utility.yul\":1983:1985   */\n  0x20\n    /* \"#utility.yul\":1980:1981   */\n  dup2\n    /* \"#utility.yul\":1976:1986   */\n  add\n    /* \"#utility.yul\":1971:1986   */\n  swap1\n  pop\n    /* \"#utility.yul\":1947:2060   */\n  jump(tag_59)\ntag_61:\n    /* \"#utility.yul\":2078:2084   */\n  dup4\n    /* \"#utility.yul\":2075:2076   */\n  dup2\n    /* \"#utility.yul\":2072:2085   */\n  gt\n    /* \"#utility.yul\":2069:2170   */\n  iszero\n  tag_62\n  jumpi\n    /* \"#utility.yul\":2158:2159   */\n  0x00\n    /* \"#utility.yul\":2149:2155   */\n  dup5\n    /* \"#utility.yul\":2144:2147   */\n  dup5\n    /* \"#utility.yul\":2140:2156   */\n  add\n    /* \"#utility.yul\":2133:2160   */\n  mstore\n    /* \"#utility.yul\":2069:2170   */\ntag_62:\n    /* \"#utility.yul\":1918:2176   */\n  pop\n    /* \"#utility.yul\":1869:2176   */\n  pop\n  pop\n  pop\n  jump\t// out\n    /* \"#utility.yul\":2182:2502   */\ntag_10:\n    /* \"#utility.yul\":2226:2232   */\n  0x00\n    /* \"#utility.yul\":2263:2264   */\n  0x02\n    /* \"#utility.yul\":2257:2261   */\n  dup3\n    /* \"#utility.yul\":2253:2265   */\n  div\n    /* \"#utility.yul\":2243:2265   */\n  swap1\n  pop\n    /* \"#utility.yul\":2310:2311   */\n  0x01\n    /* \"#utility.yul\":2304:2308   */\n  dup3\n    /* \"#utility.yul\":2300:2312   */\n  and\n    /* \"#utility.yul\":2331:2349   */\n  dup1\n    /* \"#utility.yul\":2321:2402   */\n  tag_64\n  jumpi\n    /* \"#utility.yul\":2387:2391   */\n  0x7f\n    /* \"#utility.yul\":2379:2385   */\n  dup3\n    /* \"#utility.yul\":2375:2392   */\n  and\n    /* \"#utility.yul\":2365:2392   */\n  swap2\n  pop\n    /* \"#utility.yul\":2321:2402   */\ntag_64:\n    /* \"#utility.yul\":2449:2451   */\n  0x20\n    /* \"#utility.yul\":2441:2447   */\n  dup3\n    /* \"#utility.yul\":2438:2452   */\n  lt\n    /* \"#utility.yul\":2418:2436   */\n  dup2\n    /* \"#utility.yul\":2415:2453   */\n  eq\n    /* \"#utility.yul\":2412:2496   */\n  iszero\n  tag_65\n  jumpi\n    /* \"#utility.yul\":2468:2486   */\n  tag_66\n  tag_67\n  jump\t// in\ntag_66:\n    /* \"#utility.yul\":2412:2496   */\ntag_65:\n    /* \"#utility.yul\":2233:2502   */\n  pop\n    /* \"#utility.yul\":2182:2502   */\n  swap2\n  swap1\n  pop\n  jump\t// out\n    /* \"#utility.yul\":2508:2789   */\ntag_50:\n    /* \"#utility.yul\":2591:2618   */\n  tag_69\n    /* \"#utility.yul\":2613:2617   */\n  dup3\n    /* \"#utility.yul\":2591:2618   */\n  tag_57\n  jump\t// in\ntag_69:\n    /* \"#utility.yul\":2583:2589   */\n  dup2\n    /* \"#utility.yul\":2579:2619   */\n  add\n    /* \"#utility.yul\":2721:2727   */\n  dup2\n    /* \"#utility.yul\":2709:2719   */\n  dup2\n    /* \"#utility.yul\":2706:2728   */\n  lt\n    /* \"#utility.yul\":2685:2703   */\n  0xffffffffffffffff\n    /* \"#utility.yul\":2673:2683   */\n  dup3\n    /* \"#utility.yul\":2670:2704   */\n  gt\n    /* \"#utility.yul\":2667:2729   */\n  or\n    /* \"#utility.yul\":2664:2752   */\n  iszero\n  tag_70\n  jumpi\n    /* \"#utility.yul\":2732:2750   */\n  tag_71\n  tag_55\n  jump\t// in\ntag_71:\n    /* \"#utility.yul\":2664:2752   */\ntag_70:\n    /* \"#utility.yul\":2772:2782   */\n  dup1\n    /* \"#utility.yul\":2768:2770   */\n  0x40\n    /* \"#utility.yul\":2761:2783   */\n  mstore\n    /* \"#utility.yul\":2551:2789   */\n  pop\n    /* \"#utility.yul\":2508:2789   */\n  pop\n  pop\n  jump\t// out\n    /* \"#utility.yul\":2795:2975   */\ntag_67:\n    /* \"#utility.yul\":2843:2920   */\n  0x4e487b7100000000000000000000000000000000000000000000000000000000\n    /* \"#utility.yul\":2840:2841   */\n  0x00\n    /* \"#utility.yul\":2833:2921   */\n  mstore\n    /* \"#utility.yul\":2940:2944   */\n  0x22\n    /* \"#utility.yul\":2937:2938   */\n  0x04\n    /* \"#utility.yul\":2930:2945   */\n  mstore\n    /* \"#utility.yul\":2964:2968   */\n  0x24\n    /* \"#utility.yul\":2961:2962   */\n  0x00\n    /* \"#utility.yul\":2954:2969   */\n  revert\n    /* \"#utility.yul\":2981:3161   */\ntag_55:\n    /* \"#utility.yul\":3029:3106   */\n  0x4e487b7100000000000000000000000000000000000000000000000000000000\n    /* \"#utility.yul\":3026:3027   */\n  0x00\n    /* \"#utility.yul\":3019:3107   */\n  mstore\n    /* \"#utility.yul\":3126:3130   */\n  0x41\n    /* \"#utility.yul\":3123:3124   */\n  0x04\n    /* \"#utility.yul\":3116:3131   */\n  mstore\n    /* \"#utility.yul\":3150:3154   */\n  0x24\n    /* \"#utility.yul\":3147:3148   */\n  0x00\n    /* \"#utility.yul\":3140:3155   */\n  revert\n    /* \"#utility.yul\":3167:3284   */\ntag_36:\n    /* \"#utility.yul\":3276:3277   */\n  0x00\n    /* \"#utility.yul\":3273:3274   */\n  dup1\n    /* \"#utility.yul\":3266:3278   */\n  revert\n    /* \"#utility.yul\":3290:3407   */\ntag_29:\n    /* \"#utility.yul\":3399:3400   */\n  0x00\n    /* \"#utility.yul\":3396:3397   */\n  dup1\n    /* \"#utility.yul\":3389:3401   */\n  revert\n    /* \"#utility.yul\":3413:3530   */\ntag_44:\n    /* \"#utility.yul\":3522:3523   */\n  0x00\n    /* \"#utility.yul\":3519:3520   */\n  dup1\n    /* \"#utility.yul\":3512:3524   */\n  revert\n    /* \"#utility.yul\":3536:3653   */\ntag_41:\n    /* \"#utility.yul\":3645:3646   */\n  0x00\n    /* \"#utility.yul\":3642:3643   */\n  dup1\n    /* \"#utility.yul\":3635:3647   */\n  revert\n    /* \"#utility.yul\":3659:3761   */\ntag_57:\n    /* \"#utility.yul\":3700:3706   */\n  0x00\n    /* \"#utility.yul\":3751:3753   */\n  0x1f\n    /* \"#utility.yul\":3747:3754   */\n  not\n    /* \"#utility.yul\":3742:3744   */\n  0x1f\n    /* \"#utility.yul\":3735:3740   */\n  dup4\n    /* \"#utility.yul\":3731:3745   */\n  add\n    /* \"#utility.yul\":3727:3755   */\n  and\n    /* \"#utility.yul\":3717:3755   */\n  swap1\n  pop\n    /* \"#utility.yul\":3659:3761   */\n  swap2\n  swap1\n  pop\n  jump\t// out\n    /* \"one_smart_contract/contr.sol\":44:7008  contract SimpleContract \r... */\ntag_8:\n  dataSize(sub_0)\n  dup1\n  dataOffset(sub_0)\n  0x00\n  codecopy\n  0x00\n  return\nstop\n\nsub_0: assembly {\n        /* \"one_smart_contract/contr.sol\":44:7008  contract SimpleContract \r... */\n      mstore(0x40, 0x80)\n      jumpi(tag_1, lt(calldatasize, 0x04))\n      shr(0xe0, calldataload(0x00))\n      dup1\n      0x5ee44ac7\n      gt\n      tag_17\n      jumpi\n      dup1\n      0xbf1e4efc\n      gt\n      tag_18\n      jumpi\n      dup1\n      0xbf1e4efc\n      eq\n      tag_13\n      jumpi\n      dup1\n      0xccede9a7\n      eq\n      tag_14\n      jumpi\n      dup1\n      0xd1342923\n      eq\n      tag_15\n      jumpi\n      dup1\n      0xed9023dd\n      eq\n      tag_16\n      jumpi\n      jump(tag_1)\n    tag_18:\n      dup1\n      0x5ee44ac7\n      eq\n      tag_9\n      jumpi\n      dup1\n      0x6f77926b\n      eq\n      tag_10\n      jumpi\n      dup1\n      0x77c3e6cc\n      eq\n      tag_11\n      jumpi\n      dup1\n      0x92f7e2ce\n      eq\n      tag_12\n      jumpi\n      jump(tag_1)\n    tag_17:\n      dup1\n      0x27820851\n      gt\n      tag_19\n      jumpi\n      dup1\n      0x27820851\n      eq\n      tag_5\n      jumpi\n      dup1\n      0x311c0c62\n      eq\n      tag_6\n      jumpi\n      dup1\n      0x35c064c6\n      eq\n      tag_7\n      jumpi\n      dup1\n      0x40e5cb3f\n      eq\n      tag_8\n      jumpi\n      jump(tag_1)\n    tag_19:\n      dup1\n      0x05d930b7\n      eq\n      tag_2\n      jumpi\n      dup1\n      0x12065fe0\n      eq\n      tag_3\n      jumpi\n      dup1\n      0x1b9265b8\n      eq\n      tag_4\n      jumpi\n    tag_1:\n      0x00\n      dup1\n      revert\n        /* \"one_smart_contract/contr.sol\":5039:5209  function getInfoOfTrip(uint numTrip) public TripInfo returns(string memory) \r... */\n    tag_2:\n      callvalue\n      dup1\n      iszero\n      tag_20\n      jumpi\n      0x00\n      dup1\n      revert\n    tag_20:\n      pop\n      tag_21\n      0x04\n      dup1\n      calldatasize\n      sub\n      dup2\n      add\n      swap1\n      tag_22\n      swap2\n      swap1\n      tag_23\n      jump\t// in\n    tag_22:\n      tag_24\n      jump\t// in\n    tag_21:\n      mload(0x40)\n      tag_25\n      swap2\n      swap1\n      tag_26\n      jump\t// in\n    tag_25:\n      mload(0x40)\n      dup1\n      swap2\n      sub\n      swap1\n      return\n        /* \"one_smart_contract/contr.sol\":6271:6376  function getBalance() public returns(uint)\r... */\n    tag_3:\n      callvalue\n      dup1\n      iszero\n      tag_27\n      jumpi\n      0x00\n      dup1\n      revert\n    tag_27:\n      pop\n      tag_28\n      tag_29\n      jump\t// in\n    tag_28:\n      mload(0x40)\n      tag_30\n      swap2\n      swap1\n      tag_31\n      jump\t// in\n    tag_30:\n      mload(0x40)\n      dup1\n      swap2\n      sub\n      swap1\n      return\n        /* \"one_smart_contract/contr.sol\":6130:6263  function pay() external payable\r... */\n    tag_4:\n      tag_32\n      tag_33\n      jump\t// in\n    tag_32:\n      stop\n        /* \"one_smart_contract/contr.sol\":3586:3884  function getUserRole(address addr) public returns(uint)\r... */\n    tag_5:\n      callvalue\n      dup1\n      iszero\n      tag_34\n      jumpi\n      0x00\n      dup1\n      revert\n    tag_34:\n      pop\n      tag_35\n      0x04\n      dup1\n      calldatasize\n      sub\n      dup2\n      add\n      swap1\n      tag_36\n      swap2\n      swap1\n      tag_37\n      jump\t// in\n    tag_36:\n      tag_38\n      jump\t// in\n    tag_35:\n      mload(0x40)\n      tag_39\n      swap2\n      swap1\n      tag_31\n      jump\t// in\n    tag_39:\n      mload(0x40)\n      dup1\n      swap2\n      sub\n      swap1\n      return\n        /* \"one_smart_contract/contr.sol\":5343:5485  function getPeopleInTrip(uint numTrip) public TripInfo returns(address [] memory)\r... */\n    tag_6:\n      callvalue\n      dup1\n      iszero\n      tag_40\n      jumpi\n      0x00\n      dup1\n      revert\n    tag_40:\n      pop\n      tag_41\n      0x04\n      dup1\n      calldatasize\n      sub\n      dup2\n      add\n      swap1\n      tag_42\n      swap2\n      swap1\n      tag_23\n      jump\t// in\n    tag_42:\n      tag_43\n      jump\t// in\n    tag_41:\n      mload(0x40)\n      tag_44\n      swap2\n      swap1\n      tag_45\n      jump\t// in\n    tag_44:\n      mload(0x40)\n      dup1\n      swap2\n      sub\n      swap1\n      return\n        /* \"one_smart_contract/contr.sol\":5217:5331  function getTripPrise(uint numTrip) public returns(uint) \r... */\n    tag_7:\n      callvalue\n      dup1\n      iszero\n      tag_46\n      jumpi\n      0x00\n      dup1\n      revert\n    tag_46:\n      pop\n      tag_47\n      0x04\n      dup1\n      calldatasize\n      sub\n      dup2\n      add\n      swap1\n      tag_48\n      swap2\n      swap1\n      tag_23\n      jump\t// in\n    tag_48:\n      tag_49\n      jump\t// in\n    tag_47:\n      mload(0x40)\n      tag_50\n      swap2\n      swap1\n      tag_31\n      jump\t// in\n    tag_50:\n      mload(0x40)\n      dup1\n      swap2\n      sub\n      swap1\n      return\n        /* \"one_smart_contract/contr.sol\":3080:3257  function setPersonUser(address rab, string memory us, uint r) OnlyAdmin public\r... */\n    tag_8:\n      callvalue\n      dup1\n      iszero\n      tag_51\n      jumpi\n      0x00\n      dup1\n      revert\n    tag_51:\n      pop\n      tag_52\n      0x04\n      dup1\n      calldatasize\n      sub\n      dup2\n      add\n      swap1\n      tag_53\n      swap2\n      swap1\n      tag_54\n      jump\t// in\n    tag_53:\n      tag_55\n      jump\t// in\n    tag_52:\n      stop\n        /* \"one_smart_contract/contr.sol\":4763:5031  function setTrip(uint numTrip, string memory A, string memory B, uint prs, uint bus) public OnlyAdmin\r... */\n    tag_9:\n      callvalue\n      dup1\n      iszero\n      tag_56\n      jumpi\n      0x00\n      dup1\n      revert\n    tag_56:\n      pop\n      tag_57\n      0x04\n      dup1\n      calldatasize\n      sub\n      dup2\n      add\n      swap1\n      tag_58\n      swap2\n      swap1\n      tag_59\n      jump\t// in\n    tag_58:\n      tag_60\n      jump\t// in\n    tag_57:\n      stop\n        /* \"one_smart_contract/contr.sol\":3265:3578  function getUser(address addr) public returns(string memory)\r... */\n    tag_10:\n      callvalue\n      dup1\n      iszero\n      tag_61\n      jumpi\n      0x00\n      dup1\n      revert\n    tag_61:\n      pop\n      tag_62\n      0x04\n      dup1\n      calldatasize\n      sub\n      dup2\n      add\n      swap1\n      tag_63\n      swap2\n      swap1\n      tag_37\n      jump\t// in\n    tag_63:\n      tag_64\n      jump\t// in\n    tag_62:\n      mload(0x40)\n      tag_65\n      swap2\n      swap1\n      tag_26\n      jump\t// in\n    tag_65:\n      mload(0x40)\n      dup1\n      swap2\n      sub\n      swap1\n      return\n        /* \"one_smart_contract/contr.sol\":5693:6122  function addUserInTrip(uint numTrip) public returns(bool)\r... */\n    tag_11:\n      callvalue\n      dup1\n      iszero\n      tag_66\n      jumpi\n      0x00\n      dup1\n      revert\n    tag_66:\n      pop\n      tag_67\n      0x04\n      dup1\n      calldatasize\n      sub\n      dup2\n      add\n      swap1\n      tag_68\n      swap2\n      swap1\n      tag_23\n      jump\t// in\n    tag_68:\n      tag_69\n      jump\t// in\n    tag_67:\n      mload(0x40)\n      tag_70\n      swap2\n      swap1\n      tag_71\n      jump\t// in\n    tag_70:\n      mload(0x40)\n      dup1\n      swap2\n      sub\n      swap1\n      return\n        /* \"one_smart_contract/contr.sol\":4534:4645  function setSostBus(uint num, bool cond) public BusInfo\r... */\n    tag_12:\n      callvalue\n      dup1\n      iszero\n      tag_72\n      jumpi\n      0x00\n      dup1\n      revert\n    tag_72:\n      pop\n      tag_73\n      0x04\n      dup1\n      calldatasize\n      sub\n      dup2\n      add\n      swap1\n      tag_74\n      swap2\n      swap1\n      tag_75\n      jump\t// in\n    tag_74:\n      tag_76\n      jump\t// in\n    tag_73:\n      stop\n        /* \"one_smart_contract/contr.sol\":6384:6507  function moneyHome() OnlyAdmin external payable\r... */\n    tag_13:\n      tag_77\n      tag_78\n      jump\t// in\n    tag_77:\n      stop\n        /* \"one_smart_contract/contr.sol\":4082:4290  function setBus(uint num, bool cond,uint kM) public OnlyAdmin\r... */\n    tag_14:\n      callvalue\n      dup1\n      iszero\n      tag_79\n      jumpi\n      0x00\n      dup1\n      revert\n    tag_79:\n      pop\n      tag_80\n      0x04\n      dup1\n      calldatasize\n      sub\n      dup2\n      add\n      swap1\n      tag_81\n      swap2\n      swap1\n      tag_82\n      jump\t// in\n    tag_81:\n      tag_83\n      jump\t// in\n    tag_80:\n      stop\n        /* \"one_smart_contract/contr.sol\":4298:4528  function getSostBus(uint num) public BusInfo returns(bool) \r... */\n    tag_15:\n      callvalue\n      dup1\n      iszero\n      tag_84\n      jumpi\n      0x00\n      dup1\n      revert\n    tag_84:\n      pop\n      tag_85\n      0x04\n      dup1\n      calldatasize\n      sub\n      dup2\n      add\n      swap1\n      tag_86\n      swap2\n      swap1\n      tag_23\n      jump\t// in\n    tag_86:\n      tag_87\n      jump\t// in\n    tag_85:\n      mload(0x40)\n      tag_88\n      swap2\n      swap1\n      tag_71\n      jump\t// in\n    tag_88:\n      mload(0x40)\n      dup1\n      swap2\n      sub\n      swap1\n      return\n        /* \"one_smart_contract/contr.sol\":2959:3072  function setSimpleUser(string memory us) public\r... */\n    tag_16:\n      callvalue\n      dup1\n      iszero\n      tag_89\n      jumpi\n      0x00\n      dup1\n      revert\n    tag_89:\n      pop\n      tag_90\n      0x04\n      dup1\n      calldatasize\n      sub\n      dup2\n      add\n      swap1\n      tag_91\n      swap2\n      swap1\n      tag_92\n      jump\t// in\n    tag_91:\n      tag_93\n      jump\t// in\n    tag_90:\n      stop\n        /* \"one_smart_contract/contr.sol\":5039:5209  function getInfoOfTrip(uint numTrip) public TripInfo returns(string memory) \r... */\n    tag_24:\n        /* \"one_smart_contract/contr.sol\":5100:5113  string memory */\n      0x60\n        /* \"one_smart_contract/contr.sol\":1551:1560  bool flag */\n      0x00\n        /* \"one_smart_contract/contr.sol\":1614:1615  1 */\n      0x01\n        /* \"one_smart_contract/contr.sol\":1582:1593  massOfUsers */\n      dup1\n        /* \"one_smart_contract/contr.sol\":1582:1605  massOfUsers[msg.sender] */\n      0x00\n        /* \"one_smart_contract/contr.sol\":1594:1604  msg.sender */\n      caller\n        /* \"one_smart_contract/contr.sol\":1582:1605  massOfUsers[msg.sender] */\n      0xffffffffffffffffffffffffffffffffffffffff\n      and\n      0xffffffffffffffffffffffffffffffffffffffff\n      and\n      dup2\n      mstore\n      0x20\n      add\n      swap1\n      dup2\n      mstore\n      0x20\n      add\n      0x00\n      keccak256\n        /* \"one_smart_contract/contr.sol\":1582:1610  massOfUsers[msg.sender].role */\n      0x01\n      add\n      sload\n        /* \"one_smart_contract/contr.sol\":1582:1615  massOfUsers[msg.sender].role == 1 */\n      eq\n        /* \"one_smart_contract/contr.sol\":1579:1664  if(massOfUsers[msg.sender].role == 1)\r... */\n      iszero\n      tag_95\n      jumpi\n        /* \"one_smart_contract/contr.sol\":1648:1652  true */\n      0x01\n        /* \"one_smart_contract/contr.sol\":1641:1652  flag = true */\n      swap1\n      pop\n        /* \"one_smart_contract/contr.sol\":1579:1664  if(massOfUsers[msg.sender].role == 1)\r... */\n    tag_95:\n        /* \"one_smart_contract/contr.sol\":1709:1710  3 */\n      0x03\n        /* \"one_smart_contract/contr.sol\":1677:1688  massOfUsers */\n      0x01\n        /* \"one_smart_contract/contr.sol\":1677:1700  massOfUsers[msg.sender] */\n      0x00\n        /* \"one_smart_contract/contr.sol\":1689:1699  msg.sender */\n      caller\n        /* \"one_smart_contract/contr.sol\":1677:1700  massOfUsers[msg.sender] */\n      0xffffffffffffffffffffffffffffffffffffffff\n      and\n      0xffffffffffffffffffffffffffffffffffffffff\n      and\n      dup2\n      mstore\n      0x20\n      add\n      swap1\n      dup2\n      mstore\n      0x20\n      add\n      0x00\n      keccak256\n        /* \"one_smart_contract/contr.sol\":1677:1705  massOfUsers[msg.sender].role */\n      0x01\n      add\n      sload\n        /* \"one_smart_contract/contr.sol\":1677:1710  massOfUsers[msg.sender].role == 3 */\n      eq\n        /* \"one_smart_contract/contr.sol\":1674:1759  if(massOfUsers[msg.sender].role == 3)\r... */\n      iszero\n      tag_96\n      jumpi\n        /* \"one_smart_contract/contr.sol\":1743:1747  true */\n      0x01\n        /* \"one_smart_contract/contr.sol\":1736:1747  flag = true */\n      swap1\n      pop\n        /* \"one_smart_contract/contr.sol\":1674:1759  if(massOfUsers[msg.sender].role == 3)\r... */\n    tag_96:\n        /* \"one_smart_contract/contr.sol\":1804:1805  4 */\n      0x04\n        /* \"one_smart_contract/contr.sol\":1772:1783  massOfUsers */\n      0x01\n        /* \"one_smart_contract/contr.sol\":1772:1795  massOfUsers[msg.sender] */\n      0x00\n        /* \"one_smart_contract/contr.sol\":1784:1794  msg.sender */\n      caller\n        /* \"one_smart_contract/contr.sol\":1772:1795  massOfUsers[msg.sender] */\n      0xffffffffffffffffffffffffffffffffffffffff\n      and\n      0xffffffffffffffffffffffffffffffffffffffff\n      and\n      dup2\n      mstore\n      0x20\n      add\n      swap1\n      dup2\n      mstore\n      0x20\n      add\n      0x00\n      keccak256\n        /* \"one_smart_contract/contr.sol\":1772:1800  massOfUsers[msg.sender].role */\n      0x01\n      add\n      sload\n        /* \"one_smart_contract/contr.sol\":1772:1805  massOfUsers[msg.sender].role == 4 */\n      eq\n        /* \"one_smart_contract/contr.sol\":1769:1854  if(massOfUsers[msg.sender].role == 4)\r... */\n      iszero\n      tag_97\n      jumpi\n        /* \"one_smart_contract/contr.sol\":1838:1842  true */\n      0x01\n        /* \"one_smart_contract/contr.sol\":1831:1842  flag = true */\n      swap1\n      pop\n        /* \"one_smart_contract/contr.sol\":1769:1854  if(massOfUsers[msg.sender].role == 4)\r... */\n    tag_97:\n        /* \"one_smart_contract/contr.sol\":1872:1876  flag */\n      dup1\n        /* \"one_smart_contract/contr.sol\":1864:1893  require(flag, \"Access denie\") */\n      tag_98\n      jumpi\n      mload(0x40)\n      0x08c379a000000000000000000000000000000000000000000000000000000000\n      dup2\n      mstore\n      0x04\n      add\n      tag_99\n      swap1\n      tag_100\n      jump\t// in\n    tag_99:\n      mload(0x40)\n      dup1\n      swap2\n      sub\n      swap1\n      revert\n    tag_98:\n        /* \"one_smart_contract/contr.sol\":5139:5201  concat(massOfTrip[numTrip].punktA, massOfTrip[numTrip].punktB) */\n      tag_102\n        /* \"one_smart_contract/contr.sol\":5146:5156  massOfTrip */\n      0x00\n        /* \"one_smart_contract/contr.sol\":5146:5165  massOfTrip[numTrip] */\n      dup1\n        /* \"one_smart_contract/contr.sol\":5157:5164  numTrip */\n      dup6\n        /* \"one_smart_contract/contr.sol\":5146:5165  massOfTrip[numTrip] */\n      dup2\n      mstore\n      0x20\n      add\n      swap1\n      dup2\n      mstore\n      0x20\n      add\n      0x00\n      keccak256\n        /* \"one_smart_contract/contr.sol\":5146:5172  massOfTrip[numTrip].punktA */\n      0x00\n      add\n        /* \"one_smart_contract/contr.sol\":5139:5201  concat(massOfTrip[numTrip].punktA, massOfTrip[numTrip].punktB) */\n      dup1\n      sload\n      tag_103\n      swap1\n      tag_104\n      jump\t// in\n    tag_103:\n      dup1\n      0x1f\n      add\n      0x20\n      dup1\n      swap2\n      div\n      mul\n      0x20\n      add\n      mload(0x40)\n      swap1\n      dup2\n      add\n      0x40\n      mstore\n      dup1\n      swap3\n      swap2\n      swap1\n      dup2\n      dup2\n      mstore\n      0x20\n      add\n      dup3\n      dup1\n      sload\n      tag_105\n      swap1\n      tag_104\n      jump\t// in\n    tag_105:\n      dup1\n      iszero\n      tag_106\n      jumpi\n      dup1\n      0x1f\n      lt\n      tag_107\n      jumpi\n      0x0100\n      dup1\n      dup4\n      sload\n      div\n      mul\n      dup4\n      mstore\n      swap2\n      0x20\n      add\n      swap2\n      jump(tag_106)\n    tag_107:\n      dup3\n      add\n      swap2\n      swap1\n      0x00\n      mstore\n      keccak256(0x00, 0x20)\n      swap1\n    tag_108:\n      dup2\n      sload\n      dup2\n      mstore\n      swap1\n      0x01\n      add\n      swap1\n      0x20\n      add\n      dup1\n      dup4\n      gt\n      tag_108\n      jumpi\n      dup3\n      swap1\n      sub\n      0x1f\n      and\n      dup3\n      add\n      swap2\n    tag_106:\n      pop\n      pop\n      pop\n      pop\n      pop\n        /* \"one_smart_contract/contr.sol\":5174:5184  massOfTrip */\n      0x00\n        /* \"one_smart_contract/contr.sol\":5174:5193  massOfTrip[numTrip] */\n      dup1\n        /* \"one_smart_contract/contr.sol\":5185:5192  numTrip */\n      dup7\n        /* \"one_smart_contract/contr.sol\":5174:5193  massOfTrip[numTrip] */\n      dup2\n      mstore\n      0x20\n      add\n      swap1\n      dup2\n      mstore\n      0x20\n      add\n      0x00\n      keccak256\n        /* \"one_smart_contract/contr.sol\":5174:5200  massOfTrip[numTrip].punktB */\n      0x01\n      add\n        /* \"one_smart_contract/contr.sol\":5139:5201  concat(massOfTrip[numTrip].punktA, massOfTrip[numTrip].punktB) */\n      dup1\n      sload\n      tag_109\n      swap1\n      tag_104\n      jump\t// in\n    tag_109:\n      dup1\n      0x1f\n      add\n      0x20\n      dup1\n      swap2\n      div\n      mul\n      0x20\n      add\n      mload(0x40)\n      swap1\n      dup2\n      add\n      0x40\n      mstore\n      dup1\n      swap3\n      swap2\n      swap1\n      dup2\n      dup2\n      mstore\n      0x20\n      add\n      dup3\n      dup1\n      sload\n      tag_110\n      swap1\n      tag_104\n      jump\t// in\n    tag_110:\n      dup1\n      iszero\n      tag_111\n      jumpi\n      dup1\n      0x1f\n      lt\n      tag_112\n      jumpi\n      0x0100\n      dup1\n      dup4\n      sload\n      div\n      mul\n      dup4\n      mstore\n      swap2\n      0x20\n      add\n      swap2\n      jump(tag_111)\n    tag_112:\n      dup3\n      add\n      swap2\n      swap1\n      0x00\n      mstore\n      keccak256(0x00, 0x20)\n      swap1\n    tag_113:\n      dup2\n      sload\n      dup2\n      mstore\n      swap1\n      0x01\n      add\n      swap1\n      0x20\n      add\n      dup1\n      dup4\n      gt\n      tag_113\n      jumpi\n      dup3\n      swap1\n      sub\n      0x1f\n      and\n      dup3\n      add\n      swap2\n    tag_111:\n      pop\n      pop\n      pop\n      pop\n      pop\n        /* \"one_smart_contract/contr.sol\":5139:5145  concat */\n      tag_114\n        /* \"one_smart_contract/contr.sol\":5139:5201  concat(massOfTrip[numTrip].punktA, massOfTrip[numTrip].punktB) */\n      jump\t// in\n    tag_102:\n        /* \"one_smart_contract/contr.sol\":5132:5201  return concat(massOfTrip[numTrip].punktA, massOfTrip[numTrip].punktB) */\n      swap2\n      pop\n        /* \"one_smart_contract/contr.sol\":1540:1913  {\r... */\n      pop\n        /* \"one_smart_contract/contr.sol\":5039:5209  function getInfoOfTrip(uint numTrip) public TripInfo returns(string memory) \r... */\n      swap2\n      swap1\n      pop\n      jump\t// out\n        /* \"one_smart_contract/contr.sol\":6271:6376  function getBalance() public returns(uint)\r... */\n    tag_29:\n        /* \"one_smart_contract/contr.sol\":6308:6312  uint */\n      0x00\n        /* \"one_smart_contract/contr.sol\":6337:6348  massOfUsers */\n      0x01\n        /* \"one_smart_contract/contr.sol\":6337:6360  massOfUsers[msg.sender] */\n      0x00\n        /* \"one_smart_contract/contr.sol\":6349:6359  msg.sender */\n      caller\n        /* \"one_smart_contract/contr.sol\":6337:6360  massOfUsers[msg.sender] */\n      0xffffffffffffffffffffffffffffffffffffffff\n      and\n      0xffffffffffffffffffffffffffffffffffffffff\n      and\n      dup2\n      mstore\n      0x20\n      add\n      swap1\n      dup2\n      mstore\n      0x20\n      add\n      0x00\n      keccak256\n        /* \"one_smart_contract/contr.sol\":6337:6368  massOfUsers[msg.sender].balance */\n      0x02\n      add\n      sload\n        /* \"one_smart_contract/contr.sol\":6330:6368  return massOfUsers[msg.sender].balance */\n      swap1\n      pop\n        /* \"one_smart_contract/contr.sol\":6271:6376  function getBalance() public returns(uint)\r... */\n      swap1\n      jump\t// out\n        /* \"one_smart_contract/contr.sol\":6130:6263  function pay() external payable\r... */\n    tag_33:\n        /* \"one_smart_contract/contr.sol\":6246:6255  msg.value */\n      callvalue\n        /* \"one_smart_contract/contr.sol\":6212:6223  massOfUsers */\n      0x01\n        /* \"one_smart_contract/contr.sol\":6212:6235  massOfUsers[msg.sender] */\n      0x00\n        /* \"one_smart_contract/contr.sol\":6224:6234  msg.sender */\n      caller\n        /* \"one_smart_contract/contr.sol\":6212:6235  massOfUsers[msg.sender] */\n      0xffffffffffffffffffffffffffffffffffffffff\n      and\n      0xffffffffffffffffffffffffffffffffffffffff\n      and\n      dup2\n      mstore\n      0x20\n      add\n      swap1\n      dup2\n      mstore\n      0x20\n      add\n      0x00\n      keccak256\n        /* \"one_smart_contract/contr.sol\":6212:6243  massOfUsers[msg.sender].balance */\n      0x02\n      add\n      sload\n        /* \"one_smart_contract/contr.sol\":6212:6255  massOfUsers[msg.sender].balance + msg.value */\n      tag_117\n      swap2\n      swap1\n      tag_118\n      jump\t// in\n    tag_117:\n        /* \"one_smart_contract/contr.sol\":6178:6189  massOfUsers */\n      0x01\n        /* \"one_smart_contract/contr.sol\":6178:6201  massOfUsers[msg.sender] */\n      0x00\n        /* \"one_smart_contract/contr.sol\":6190:6200  msg.sender */\n      caller\n        /* \"one_smart_contract/contr.sol\":6178:6201  massOfUsers[msg.sender] */\n      0xffffffffffffffffffffffffffffffffffffffff\n      and\n      0xffffffffffffffffffffffffffffffffffffffff\n      and\n      dup2\n      mstore\n      0x20\n      add\n      swap1\n      dup2\n      mstore\n      0x20\n      add\n      0x00\n      keccak256\n        /* \"one_smart_contract/contr.sol\":6178:6209  massOfUsers[msg.sender].balance */\n      0x02\n      add\n        /* \"one_smart_contract/contr.sol\":6178:6255  massOfUsers[msg.sender].balance = massOfUsers[msg.sender].balance + msg.value */\n      dup2\n      swap1\n      sstore\n      pop\n        /* \"one_smart_contract/contr.sol\":6130:6263  function pay() external payable\r... */\n      jump\t// out\n        /* \"one_smart_contract/contr.sol\":3586:3884  function getUserRole(address addr) public returns(uint)\r... */\n    tag_38:\n        /* \"one_smart_contract/contr.sol\":3636:3640  uint */\n      0x00\n        /* \"one_smart_contract/contr.sol\":3730:3750  abi.encodePacked(\"\") */\n      add(0x20, mload(0x40))\n      tag_120\n      swap1\n      tag_121\n      jump\t// in\n    tag_120:\n      mload(0x40)\n      0x20\n      dup2\n      dup4\n      sub\n      sub\n      dup2\n      mstore\n      swap1\n      0x40\n      mstore\n        /* \"one_smart_contract/contr.sol\":3720:3751  keccak256(abi.encodePacked(\"\")) */\n      dup1\n      mload\n      swap1\n      0x20\n      add\n      keccak256\n        /* \"one_smart_contract/contr.sol\":3688:3699  massOfUsers */\n      0x01\n        /* \"one_smart_contract/contr.sol\":3688:3705  massOfUsers[addr] */\n      0x00\n        /* \"one_smart_contract/contr.sol\":3700:3704  addr */\n      dup5\n        /* \"one_smart_contract/contr.sol\":3688:3705  massOfUsers[addr] */\n      0xffffffffffffffffffffffffffffffffffffffff\n      and\n      0xffffffffffffffffffffffffffffffffffffffff\n      and\n      dup2\n      mstore\n      0x20\n      add\n      swap1\n      dup2\n      mstore\n      0x20\n      add\n      0x00\n      keccak256\n        /* \"one_smart_contract/contr.sol\":3688:3714  massOfUsers[addr].userName */\n      0x00\n      add\n        /* \"one_smart_contract/contr.sol\":3671:3715  abi.encodePacked(massOfUsers[addr].userName) */\n      add(0x20, mload(0x40))\n      tag_122\n      swap2\n      swap1\n      tag_123\n      jump\t// in\n    tag_122:\n      mload(0x40)\n      0x20\n      dup2\n      dup4\n      sub\n      sub\n      dup2\n      mstore\n      swap1\n      0x40\n      mstore\n        /* \"one_smart_contract/contr.sol\":3661:3716  keccak256(abi.encodePacked(massOfUsers[addr].userName)) */\n      dup1\n      mload\n      swap1\n      0x20\n      add\n      keccak256\n        /* \"one_smart_contract/contr.sol\":3661:3751  keccak256(abi.encodePacked(massOfUsers[addr].userName)) != keccak256(abi.encodePacked(\"\")) */\n      eq\n        /* \"one_smart_contract/contr.sol\":3658:3877  if(keccak256(abi.encodePacked(massOfUsers[addr].userName)) != keccak256(abi.encodePacked(\"\")))\r... */\n      tag_124\n      jumpi\n        /* \"one_smart_contract/contr.sol\":3784:3795  massOfUsers */\n      0x01\n        /* \"one_smart_contract/contr.sol\":3784:3801  massOfUsers[addr] */\n      0x00\n        /* \"one_smart_contract/contr.sol\":3796:3800  addr */\n      dup4\n        /* \"one_smart_contract/contr.sol\":3784:3801  massOfUsers[addr] */\n      0xffffffffffffffffffffffffffffffffffffffff\n      and\n      0xffffffffffffffffffffffffffffffffffffffff\n      and\n      dup2\n      mstore\n      0x20\n      add\n      swap1\n      dup2\n      mstore\n      0x20\n      add\n      0x00\n      keccak256\n        /* \"one_smart_contract/contr.sol\":3784:3806  massOfUsers[addr].role */\n      0x01\n      add\n      sload\n        /* \"one_smart_contract/contr.sol\":3777:3806  return massOfUsers[addr].role */\n      swap1\n      pop\n      jump(tag_119)\n        /* \"one_smart_contract/contr.sol\":3658:3877  if(keccak256(abi.encodePacked(massOfUsers[addr].userName)) != keccak256(abi.encodePacked(\"\")))\r... */\n    tag_124:\n        /* \"one_smart_contract/contr.sol\":3864:3865  5 */\n      0x05\n        /* \"one_smart_contract/contr.sol\":3857:3865  return 5 */\n      swap1\n      pop\n        /* \"one_smart_contract/contr.sol\":3586:3884  function getUserRole(address addr) public returns(uint)\r... */\n    tag_119:\n      swap2\n      swap1\n      pop\n      jump\t// out\n        /* \"one_smart_contract/contr.sol\":5343:5485  function getPeopleInTrip(uint numTrip) public TripInfo returns(address [] memory)\r... */\n    tag_43:\n        /* \"one_smart_contract/contr.sol\":5406:5423  address [] memory */\n      0x60\n        /* \"one_smart_contract/contr.sol\":1551:1560  bool flag */\n      0x00\n        /* \"one_smart_contract/contr.sol\":1614:1615  1 */\n      0x01\n        /* \"one_smart_contract/contr.sol\":1582:1593  massOfUsers */\n      dup1\n        /* \"one_smart_contract/contr.sol\":1582:1605  massOfUsers[msg.sender] */\n      0x00\n        /* \"one_smart_contract/contr.sol\":1594:1604  msg.sender */\n      caller\n        /* \"one_smart_contract/contr.sol\":1582:1605  massOfUsers[msg.sender] */\n      0xffffffffffffffffffffffffffffffffffffffff\n      and\n      0xffffffffffffffffffffffffffffffffffffffff\n      and\n      dup2\n      mstore\n      0x20\n      add\n      swap1\n      dup2\n      mstore\n      0x20\n      add\n      0x00\n      keccak256\n        /* \"one_smart_contract/contr.sol\":1582:1610  massOfUsers[msg.sender].role */\n      0x01\n      add\n      sload\n        /* \"one_smart_contract/contr.sol\":1582:1615  massOfUsers[msg.sender].role == 1 */\n      eq\n        /* \"one_smart_contract/contr.sol\":1579:1664  if(massOfUsers[msg.sender].role == 1)\r... */\n      iszero\n      tag_127\n      jumpi\n        /* \"one_smart_contract/contr.sol\":1648:1652  true */\n      0x01\n        /* \"one_smart_contract/contr.sol\":1641:1652  flag = true */\n      swap1\n      pop\n        /* \"one_smart_contract/contr.sol\":1579:1664  if(massOfUsers[msg.sender].role == 1)\r... */\n    tag_127:\n        /* \"one_smart_contract/contr.sol\":1709:1710  3 */\n      0x03\n        /* \"one_smart_contract/contr.sol\":1677:1688  massOfUsers */\n      0x01\n        /* \"one_smart_contract/contr.sol\":1677:1700  massOfUsers[msg.sender] */\n      0x00\n        /* \"one_smart_contract/contr.sol\":1689:1699  msg.sender */\n      caller\n        /* \"one_smart_contract/contr.sol\":1677:1700  massOfUsers[msg.sender] */\n      0xffffffffffffffffffffffffffffffffffffffff\n      and\n      0xffffffffffffffffffffffffffffffffffffffff\n      and\n      dup2\n      mstore\n      0x20\n      add\n      swap1\n      dup2\n      mstore\n      0x20\n      add\n      0x00\n      keccak256\n        /* \"one_smart_contract/contr.sol\":1677:1705  massOfUsers[msg.sender].role */\n      0x01\n      add\n      sload\n        /* \"one_smart_contract/contr.sol\":1677:1710  massOfUsers[msg.sender].role == 3 */\n      eq\n        /* \"one_smart_contract/contr.sol\":1674:1759  if(massOfUsers[msg.sender].role == 3)\r... */\n      iszero\n      tag_128\n      jumpi\n        /* \"one_smart_contract/contr.sol\":1743:1747  true */\n      0x01\n        /* \"one_smart_contract/contr.sol\":1736:1747  flag = true */\n      swap1\n      pop\n        /* \"one_smart_contract/contr.sol\":1674:1759  if(massOfUsers[msg.sender].role == 3)\r... */\n    tag_128:\n        /* \"one_smart_contract/contr.sol\":1804:1805  4 */\n      0x04\n        /* \"one_smart_contract/contr.sol\":1772:1783  massOfUsers */\n      0x01\n        /* \"one_smart_contract/contr.sol\":1772:1795  massOfUsers[msg.sender] */\n      0x00\n        /* \"one_smart_contract/contr.sol\":1784:1794  msg.sender */\n      caller\n        /* \"one_smart_contract/contr.sol\":1772:1795  massOfUsers[msg.sender] */\n      0xffffffffffffffffffffffffffffffffffffffff\n      and\n      0xffffffffffffffffffffffffffffffffffffffff\n      and\n      dup2\n      mstore\n      0x20\n      add\n      swap1\n      dup2\n      mstore\n      0x20\n      add\n      0x00\n      keccak256\n        /* \"one_smart_contract/contr.sol\":1772:1800  massOfUsers[msg.sender].role */\n      0x01\n      add\n      sload\n        /* \"one_smart_contract/contr.sol\":1772:1805  massOfUsers[msg.sender].role == 4 */\n      eq\n        /* \"one_smart_contract/contr.sol\":1769:1854  if(massOfUsers[msg.sender].role == 4)\r... */\n      iszero\n      tag_129\n      jumpi\n        /* \"one_smart_contract/contr.sol\":1838:1842  true */\n      0x01\n        /* \"one_smart_contract/contr.sol\":1831:1842  flag = true */\n      swap1\n      pop\n        /* \"one_smart_contract/contr.sol\":1769:1854  if(massOfUsers[msg.sender].role == 4)\r... */\n    tag_129:\n        /* \"one_smart_contract/contr.sol\":1872:1876  flag */\n      dup1\n        /* \"one_smart_contract/contr.sol\":1864:1893  require(flag, \"Access denie\") */\n      tag_130\n      jumpi\n      mload(0x40)\n      0x08c379a000000000000000000000000000000000000000000000000000000000\n      dup2\n      mstore\n      0x04\n      add\n      tag_131\n      swap1\n      tag_100\n      jump\t// in\n    tag_131:\n      mload(0x40)\n      dup1\n      swap2\n      sub\n      swap1\n      revert\n    tag_130:\n        /* \"one_smart_contract/contr.sol\":5448:5458  massOfTrip */\n      0x00\n        /* \"one_smart_contract/contr.sol\":5448:5467  massOfTrip[numTrip] */\n      dup1\n        /* \"one_smart_contract/contr.sol\":5459:5466  numTrip */\n      dup5\n        /* \"one_smart_contract/contr.sol\":5448:5467  massOfTrip[numTrip] */\n      dup2\n      mstore\n      0x20\n      add\n      swap1\n      dup2\n      mstore\n      0x20\n      add\n      0x00\n      keccak256\n        /* \"one_smart_contract/contr.sol\":5448:5477  massOfTrip[numTrip].massUsers */\n      0x04\n      add\n        /* \"one_smart_contract/contr.sol\":5441:5477  return massOfTrip[numTrip].massUsers */\n      dup1\n      sload\n      dup1\n      0x20\n      mul\n      0x20\n      add\n      mload(0x40)\n      swap1\n      dup2\n      add\n      0x40\n      mstore\n      dup1\n      swap3\n      swap2\n      swap1\n      dup2\n      dup2\n      mstore\n      0x20\n      add\n      dup3\n      dup1\n      sload\n      dup1\n      iszero\n      tag_133\n      jumpi\n      0x20\n      mul\n      dup3\n      add\n      swap2\n      swap1\n      0x00\n      mstore\n      keccak256(0x00, 0x20)\n      swap1\n    tag_134:\n      dup2\n      0x00\n      swap1\n      sload\n      swap1\n      0x0100\n      exp\n      swap1\n      div\n      0xffffffffffffffffffffffffffffffffffffffff\n      and\n      0xffffffffffffffffffffffffffffffffffffffff\n      and\n      dup2\n      mstore\n      0x20\n      add\n      swap1\n      0x01\n      add\n      swap1\n      dup1\n      dup4\n      gt\n      tag_134\n      jumpi\n    tag_133:\n      pop\n      pop\n      pop\n      pop\n      pop\n      swap2\n      pop\n        /* \"one_smart_contract/contr.sol\":1540:1913  {\r... */\n      pop\n        /* \"one_smart_contract/contr.sol\":5343:5485  function getPeopleInTrip(uint numTrip) public TripInfo returns(address [] memory)\r... */\n      swap2\n      swap1\n      pop\n      jump\t// out\n        /* \"one_smart_contract/contr.sol\":5217:5331  function getTripPrise(uint numTrip) public returns(uint) \r... */\n    tag_49:\n        /* \"one_smart_contract/contr.sol\":5268:5272  uint */\n      0x00\n        /* \"one_smart_contract/contr.sol\":5298:5308  massOfTrip */\n      dup1\n        /* \"one_smart_contract/contr.sol\":5298:5317  massOfTrip[numTrip] */\n      0x00\n        /* \"one_smart_contract/contr.sol\":5309:5316  numTrip */\n      dup4\n        /* \"one_smart_contract/contr.sol\":5298:5317  massOfTrip[numTrip] */\n      dup2\n      mstore\n      0x20\n      add\n      swap1\n      dup2\n      mstore\n      0x20\n      add\n      0x00\n      keccak256\n        /* \"one_smart_contract/contr.sol\":5298:5323  massOfTrip[numTrip].prise */\n      0x02\n      add\n      sload\n        /* \"one_smart_contract/contr.sol\":5291:5323  return massOfTrip[numTrip].prise */\n      swap1\n      pop\n        /* \"one_smart_contract/contr.sol\":5217:5331  function getTripPrise(uint numTrip) public returns(uint) \r... */\n      swap2\n      swap1\n      pop\n      jump\t// out\n        /* \"one_smart_contract/contr.sol\":3080:3257  function setPersonUser(address rab, string memory us, uint r) OnlyAdmin public\r... */\n    tag_55:\n        /* \"one_smart_contract/contr.sol\":1163:1164  4 */\n      0x04\n        /* \"one_smart_contract/contr.sol\":1131:1142  massOfUsers */\n      0x01\n        /* \"one_smart_contract/contr.sol\":1131:1154  massOfUsers[msg.sender] */\n      0x00\n        /* \"one_smart_contract/contr.sol\":1143:1153  msg.sender */\n      caller\n        /* \"one_smart_contract/contr.sol\":1131:1154  massOfUsers[msg.sender] */\n      0xffffffffffffffffffffffffffffffffffffffff\n      and\n      0xffffffffffffffffffffffffffffffffffffffff\n      and\n      dup2\n      mstore\n      0x20\n      add\n      swap1\n      dup2\n      mstore\n      0x20\n      add\n      0x00\n      keccak256\n        /* \"one_smart_contract/contr.sol\":1131:1159  massOfUsers[msg.sender].role */\n      0x01\n      add\n      sload\n        /* \"one_smart_contract/contr.sol\":1131:1164  massOfUsers[msg.sender].role == 4 */\n      eq\n        /* \"one_smart_contract/contr.sol\":1123:1181  require(massOfUsers[msg.sender].role == 4, \"Access denie\") */\n      tag_137\n      jumpi\n      mload(0x40)\n      0x08c379a000000000000000000000000000000000000000000000000000000000\n      dup2\n      mstore\n      0x04\n      add\n      tag_138\n      swap1\n      tag_100\n      jump\t// in\n    tag_138:\n      mload(0x40)\n      dup1\n      swap2\n      sub\n      swap1\n      revert\n    tag_137:\n        /* \"one_smart_contract/contr.sol\":3207:3209  us */\n      dup2\n        /* \"one_smart_contract/contr.sol\":3179:3190  massOfUsers */\n      0x01\n        /* \"one_smart_contract/contr.sol\":3179:3195  massOfUsers[rab] */\n      0x00\n        /* \"one_smart_contract/contr.sol\":3191:3194  rab */\n      dup6\n        /* \"one_smart_contract/contr.sol\":3179:3195  massOfUsers[rab] */\n      0xffffffffffffffffffffffffffffffffffffffff\n      and\n      0xffffffffffffffffffffffffffffffffffffffff\n      and\n      dup2\n      mstore\n      0x20\n      add\n      swap1\n      dup2\n      mstore\n      0x20\n      add\n      0x00\n      keccak256\n        /* \"one_smart_contract/contr.sol\":3179:3204  massOfUsers[rab].userName */\n      0x00\n      add\n        /* \"one_smart_contract/contr.sol\":3179:3209  massOfUsers[rab].userName = us */\n      swap1\n      dup1\n      mload\n      swap1\n      0x20\n      add\n      swap1\n      tag_140\n      swap3\n      swap2\n      swap1\n      tag_141\n      jump\t// in\n    tag_140:\n      pop\n        /* \"one_smart_contract/contr.sol\":3248:3249  r */\n      dup1\n        /* \"one_smart_contract/contr.sol\":3224:3235  massOfUsers */\n      0x01\n        /* \"one_smart_contract/contr.sol\":3224:3240  massOfUsers[rab] */\n      0x00\n        /* \"one_smart_contract/contr.sol\":3236:3239  rab */\n      dup6\n        /* \"one_smart_contract/contr.sol\":3224:3240  massOfUsers[rab] */\n      0xffffffffffffffffffffffffffffffffffffffff\n      and\n      0xffffffffffffffffffffffffffffffffffffffff\n      and\n      dup2\n      mstore\n      0x20\n      add\n      swap1\n      dup2\n      mstore\n      0x20\n      add\n      0x00\n      keccak256\n        /* \"one_smart_contract/contr.sol\":3224:3245  massOfUsers[rab].role */\n      0x01\n      add\n        /* \"one_smart_contract/contr.sol\":3224:3249  massOfUsers[rab].role = r */\n      dup2\n      swap1\n      sstore\n      pop\n        /* \"one_smart_contract/contr.sol\":3080:3257  function setPersonUser(address rab, string memory us, uint r) OnlyAdmin public\r... */\n      pop\n      pop\n      pop\n      jump\t// out\n        /* \"one_smart_contract/contr.sol\":4763:5031  function setTrip(uint numTrip, string memory A, string memory B, uint prs, uint bus) public OnlyAdmin\r... */\n    tag_60:\n        /* \"one_smart_contract/contr.sol\":1163:1164  4 */\n      0x04\n        /* \"one_smart_contract/contr.sol\":1131:1142  massOfUsers */\n      0x01\n        /* \"one_smart_contract/contr.sol\":1131:1154  massOfUsers[msg.sender] */\n      0x00\n        /* \"one_smart_contract/contr.sol\":1143:1153  msg.sender */\n      caller\n        /* \"one_smart_contract/contr.sol\":1131:1154  massOfUsers[msg.sender] */\n      0xffffffffffffffffffffffffffffffffffffffff\n      and\n      0xffffffffffffffffffffffffffffffffffffffff\n      and\n      dup2\n      mstore\n      0x20\n      add\n      swap1\n      dup2\n      mstore\n      0x20\n      add\n      0x00\n      keccak256\n        /* \"one_smart_contract/contr.sol\":1131:1159  massOfUsers[msg.sender].role */\n      0x01\n      add\n      sload\n        /* \"one_smart_contract/contr.sol\":1131:1164  massOfUsers[msg.sender].role == 4 */\n      eq\n        /* \"one_smart_contract/contr.sol\":1123:1181  require(massOfUsers[msg.sender].role == 4, \"Access denie\") */\n      tag_143\n      jumpi\n      mload(0x40)\n      0x08c379a000000000000000000000000000000000000000000000000000000000\n      dup2\n      mstore\n      0x04\n      add\n      tag_144\n      swap1\n      tag_100\n      jump\t// in\n    tag_144:\n      mload(0x40)\n      dup1\n      swap2\n      sub\n      swap1\n      revert\n    tag_143:\n        /* \"one_smart_contract/contr.sol\":4881:4894  Trip memory a */\n      tag_146\n      tag_147\n      jump\t// in\n    tag_146:\n        /* \"one_smart_contract/contr.sol\":4916:4917  A */\n      dup5\n        /* \"one_smart_contract/contr.sol\":4905:4906  a */\n      dup2\n        /* \"one_smart_contract/contr.sol\":4905:4913  a.punktA */\n      0x00\n      add\n        /* \"one_smart_contract/contr.sol\":4905:4917  a.punktA = A */\n      dup2\n      swap1\n      mstore\n      pop\n        /* \"one_smart_contract/contr.sol\":4939:4940  B */\n      dup4\n        /* \"one_smart_contract/contr.sol\":4928:4929  a */\n      dup2\n        /* \"one_smart_contract/contr.sol\":4928:4936  a.punktB */\n      0x20\n      add\n        /* \"one_smart_contract/contr.sol\":4928:4940  a.punktB = B */\n      dup2\n      swap1\n      mstore\n      pop\n        /* \"one_smart_contract/contr.sol\":4961:4964  prs */\n      dup3\n        /* \"one_smart_contract/contr.sol\":4951:4952  a */\n      dup2\n        /* \"one_smart_contract/contr.sol\":4951:4958  a.prise */\n      0x40\n      add\n        /* \"one_smart_contract/contr.sol\":4951:4964  a.prise = prs */\n      dup2\n      dup2\n      mstore\n      pop\n      pop\n        /* \"one_smart_contract/contr.sol\":4986:4989  bus */\n      dup2\n        /* \"one_smart_contract/contr.sol\":4975:4976  a */\n      dup2\n        /* \"one_smart_contract/contr.sol\":4975:4983  a.numBus */\n      0x60\n      add\n        /* \"one_smart_contract/contr.sol\":4975:4989  a.numBus = bus */\n      dup2\n      dup2\n      mstore\n      pop\n      pop\n        /* \"one_smart_contract/contr.sol\":5022:5023  a */\n      dup1\n        /* \"one_smart_contract/contr.sol\":5000:5010  massOfTrip */\n      0x00\n        /* \"one_smart_contract/contr.sol\":5000:5019  massOfTrip[numTrip] */\n      dup1\n        /* \"one_smart_contract/contr.sol\":5011:5018  numTrip */\n      dup9\n        /* \"one_smart_contract/contr.sol\":5000:5019  massOfTrip[numTrip] */\n      dup2\n      mstore\n      0x20\n      add\n      swap1\n      dup2\n      mstore\n      0x20\n      add\n      0x00\n      keccak256\n        /* \"one_smart_contract/contr.sol\":5000:5023  massOfTrip[numTrip] = a */\n      0x00\n      dup3\n      add\n      mload\n      dup2\n      0x00\n      add\n      swap1\n      dup1\n      mload\n      swap1\n      0x20\n      add\n      swap1\n      tag_148\n      swap3\n      swap2\n      swap1\n      tag_141\n      jump\t// in\n    tag_148:\n      pop\n      0x20\n      dup3\n      add\n      mload\n      dup2\n      0x01\n      add\n      swap1\n      dup1\n      mload\n      swap1\n      0x20\n      add\n      swap1\n      tag_149\n      swap3\n      swap2\n      swap1\n      tag_141\n      jump\t// in\n    tag_149:\n      pop\n      0x40\n      dup3\n      add\n      mload\n      dup2\n      0x02\n      add\n      sstore\n      0x60\n      dup3\n      add\n      mload\n      dup2\n      0x03\n      add\n      sstore\n      0x80\n      dup3\n      add\n      mload\n      dup2\n      0x04\n      add\n      swap1\n      dup1\n      mload\n      swap1\n      0x20\n      add\n      swap1\n      tag_150\n      swap3\n      swap2\n      swap1\n      tag_151\n      jump\t// in\n    tag_150:\n      pop\n      swap1\n      pop\n      pop\n        /* \"one_smart_contract/contr.sol\":4870:5031  {\r... */\n      pop\n        /* \"one_smart_contract/contr.sol\":4763:5031  function setTrip(uint numTrip, string memory A, string memory B, uint prs, uint bus) public OnlyAdmin\r... */\n      pop\n      pop\n      pop\n      pop\n      pop\n      jump\t// out\n        /* \"one_smart_contract/contr.sol\":3265:3578  function getUser(address addr) public returns(string memory)\r... */\n    tag_64:\n        /* \"one_smart_contract/contr.sol\":3311:3324  string memory */\n      0x60\n        /* \"one_smart_contract/contr.sol\":3414:3434  abi.encodePacked(\"\") */\n      add(0x20, mload(0x40))\n      tag_153\n      swap1\n      tag_121\n      jump\t// in\n    tag_153:\n      mload(0x40)\n      0x20\n      dup2\n      dup4\n      sub\n      sub\n      dup2\n      mstore\n      swap1\n      0x40\n      mstore\n        /* \"one_smart_contract/contr.sol\":3404:3435  keccak256(abi.encodePacked(\"\")) */\n      dup1\n      mload\n      swap1\n      0x20\n      add\n      keccak256\n        /* \"one_smart_contract/contr.sol\":3372:3383  massOfUsers */\n      0x01\n        /* \"one_smart_contract/contr.sol\":3372:3389  massOfUsers[addr] */\n      0x00\n        /* \"one_smart_contract/contr.sol\":3384:3388  addr */\n      dup5\n        /* \"one_smart_contract/contr.sol\":3372:3389  massOfUsers[addr] */\n      0xffffffffffffffffffffffffffffffffffffffff\n      and\n      0xffffffffffffffffffffffffffffffffffffffff\n      and\n      dup2\n      mstore\n      0x20\n      add\n      swap1\n      dup2\n      mstore\n      0x20\n      add\n      0x00\n      keccak256\n        /* \"one_smart_contract/contr.sol\":3372:3398  massOfUsers[addr].userName */\n      0x00\n      add\n        /* \"one_smart_contract/contr.sol\":3355:3399  abi.encodePacked(massOfUsers[addr].userName) */\n      add(0x20, mload(0x40))\n      tag_154\n      swap2\n      swap1\n      tag_123\n      jump\t// in\n    tag_154:\n      mload(0x40)\n      0x20\n      dup2\n      dup4\n      sub\n      sub\n      dup2\n      mstore\n      swap1\n      0x40\n      mstore\n        /* \"one_smart_contract/contr.sol\":3345:3400  keccak256(abi.encodePacked(massOfUsers[addr].userName)) */\n      dup1\n      mload\n      swap1\n      0x20\n      add\n      keccak256\n        /* \"one_smart_contract/contr.sol\":3345:3435  keccak256(abi.encodePacked(massOfUsers[addr].userName)) != keccak256(abi.encodePacked(\"\")) */\n      eq\n        /* \"one_smart_contract/contr.sol\":3342:3571  if(keccak256(abi.encodePacked(massOfUsers[addr].userName)) != keccak256(abi.encodePacked(\"\")))\r... */\n      tag_155\n      jumpi\n        /* \"one_smart_contract/contr.sol\":3468:3479  massOfUsers */\n      0x01\n        /* \"one_smart_contract/contr.sol\":3468:3485  massOfUsers[addr] */\n      0x00\n        /* \"one_smart_contract/contr.sol\":3480:3484  addr */\n      dup4\n        /* \"one_smart_contract/contr.sol\":3468:3485  massOfUsers[addr] */\n      0xffffffffffffffffffffffffffffffffffffffff\n      and\n      0xffffffffffffffffffffffffffffffffffffffff\n      and\n      dup2\n      mstore\n      0x20\n      add\n      swap1\n      dup2\n      mstore\n      0x20\n      add\n      0x00\n      keccak256\n        /* \"one_smart_contract/contr.sol\":3468:3494  massOfUsers[addr].userName */\n      0x00\n      add\n        /* \"one_smart_contract/contr.sol\":3461:3494  return massOfUsers[addr].userName */\n      dup1\n      sload\n      tag_156\n      swap1\n      tag_104\n      jump\t// in\n    tag_156:\n      dup1\n      0x1f\n      add\n      0x20\n      dup1\n      swap2\n      div\n      mul\n      0x20\n      add\n      mload(0x40)\n      swap1\n      dup2\n      add\n      0x40\n      mstore\n      dup1\n      swap3\n      swap2\n      swap1\n      dup2\n      dup2\n      mstore\n      0x20\n      add\n      dup3\n      dup1\n      sload\n      tag_157\n      swap1\n      tag_104\n      jump\t// in\n    tag_157:\n      dup1\n      iszero\n      tag_158\n      jumpi\n      dup1\n      0x1f\n      lt\n      tag_159\n      jumpi\n      0x0100\n      dup1\n      dup4\n      sload\n      div\n      mul\n      dup4\n      mstore\n      swap2\n      0x20\n      add\n      swap2\n      jump(tag_158)\n    tag_159:\n      dup3\n      add\n      swap2\n      swap1\n      0x00\n      mstore\n      keccak256(0x00, 0x20)\n      swap1\n    tag_160:\n      dup2\n      sload\n      dup2\n      mstore\n      swap1\n      0x01\n      add\n      swap1\n      0x20\n      add\n      dup1\n      dup4\n      gt\n      tag_160\n      jumpi\n      dup3\n      swap1\n      sub\n      0x1f\n      and\n      dup3\n      add\n      swap2\n    tag_158:\n      pop\n      pop\n      pop\n      pop\n      pop\n      swap1\n      pop\n      jump(tag_152)\n        /* \"one_smart_contract/contr.sol\":3342:3571  if(keccak256(abi.encodePacked(massOfUsers[addr].userName)) != keccak256(abi.encodePacked(\"\")))\r... */\n    tag_155:\n        /* \"one_smart_contract/contr.sol\":3545:3559  return \"Nemae\" */\n      mload(0x40)\n      dup1\n      0x40\n      add\n      0x40\n      mstore\n      dup1\n      0x05\n      dup2\n      mstore\n      0x20\n      add\n      0x4e656d6165000000000000000000000000000000000000000000000000000000\n      dup2\n      mstore\n      pop\n      swap1\n      pop\n        /* \"one_smart_contract/contr.sol\":3265:3578  function getUser(address addr) public returns(string memory)\r... */\n    tag_152:\n      swap2\n      swap1\n      pop\n      jump\t// out\n        /* \"one_smart_contract/contr.sol\":5693:6122  function addUserInTrip(uint numTrip) public returns(bool)\r... */\n    tag_69:\n        /* \"one_smart_contract/contr.sol\":5745:5749  bool */\n      0x00\n        /* \"one_smart_contract/contr.sol\":5833:5834  0 */\n      dup1\n        /* \"one_smart_contract/contr.sol\":5804:5814  massOfTrip */\n      0x00\n        /* \"one_smart_contract/contr.sol\":5804:5823  massOfTrip[numTrip] */\n      dup1\n        /* \"one_smart_contract/contr.sol\":5815:5822  numTrip */\n      dup5\n        /* \"one_smart_contract/contr.sol\":5804:5823  massOfTrip[numTrip] */\n      dup2\n      mstore\n      0x20\n      add\n      swap1\n      dup2\n      mstore\n      0x20\n      add\n      0x00\n      keccak256\n        /* \"one_smart_contract/contr.sol\":5804:5829  massOfTrip[numTrip].prise */\n      0x02\n      add\n      sload\n        /* \"one_smart_contract/contr.sol\":5770:5781  massOfUsers */\n      0x01\n        /* \"one_smart_contract/contr.sol\":5770:5793  massOfUsers[msg.sender] */\n      0x00\n        /* \"one_smart_contract/contr.sol\":5782:5792  msg.sender */\n      caller\n        /* \"one_smart_contract/contr.sol\":5770:5793  massOfUsers[msg.sender] */\n      0xffffffffffffffffffffffffffffffffffffffff\n      and\n      0xffffffffffffffffffffffffffffffffffffffff\n      and\n      dup2\n      mstore\n      0x20\n      add\n      swap1\n      dup2\n      mstore\n      0x20\n      add\n      0x00\n      keccak256\n        /* \"one_smart_contract/contr.sol\":5770:5801  massOfUsers[msg.sender].balance */\n      0x02\n      add\n      sload\n        /* \"one_smart_contract/contr.sol\":5770:5829  massOfUsers[msg.sender].balance - massOfTrip[numTrip].prise */\n      tag_163\n      swap2\n      swap1\n      tag_164\n      jump\t// in\n    tag_163:\n        /* \"one_smart_contract/contr.sol\":5770:5834  massOfUsers[msg.sender].balance - massOfTrip[numTrip].prise >= 0 */\n      lt\n        /* \"one_smart_contract/contr.sol\":5767:6115  if(massOfUsers[msg.sender].balance - massOfTrip[numTrip].prise >= 0)\r... */\n      tag_165\n      jumpi\n        /* \"one_smart_contract/contr.sol\":5860:5870  massOfTrip */\n      0x00\n        /* \"one_smart_contract/contr.sol\":5860:5879  massOfTrip[numTrip] */\n      dup1\n        /* \"one_smart_contract/contr.sol\":5871:5878  numTrip */\n      dup4\n        /* \"one_smart_contract/contr.sol\":5860:5879  massOfTrip[numTrip] */\n      dup2\n      mstore\n      0x20\n      add\n      swap1\n      dup2\n      mstore\n      0x20\n      add\n      0x00\n      keccak256\n        /* \"one_smart_contract/contr.sol\":5860:5889  massOfTrip[numTrip].massUsers */\n      0x04\n      add\n        /* \"one_smart_contract/contr.sol\":5895:5905  msg.sender */\n      caller\n        /* \"one_smart_contract/contr.sol\":5860:5906  massOfTrip[numTrip].massUsers.push(msg.sender) */\n      swap1\n      dup1\n      0x01\n      dup2\n      sload\n      add\n      dup1\n      dup3\n      sstore\n      dup1\n      swap2\n      pop\n      pop\n      0x01\n      swap1\n      sub\n      swap1\n      0x00\n      mstore\n      keccak256(0x00, 0x20)\n      add\n      0x00\n      swap1\n      swap2\n      swap1\n      swap2\n      swap1\n      swap2\n      0x0100\n      exp\n      dup2\n      sload\n      dup2\n      0xffffffffffffffffffffffffffffffffffffffff\n      mul\n      not\n      and\n      swap1\n      dup4\n      0xffffffffffffffffffffffffffffffffffffffff\n      and\n      mul\n      or\n      swap1\n      sstore\n      pop\n        /* \"one_smart_contract/contr.sol\":5989:5999  massOfTrip */\n      0x00\n        /* \"one_smart_contract/contr.sol\":5989:6008  massOfTrip[numTrip] */\n      dup1\n        /* \"one_smart_contract/contr.sol\":6000:6007  numTrip */\n      dup4\n        /* \"one_smart_contract/contr.sol\":5989:6008  massOfTrip[numTrip] */\n      dup2\n      mstore\n      0x20\n      add\n      swap1\n      dup2\n      mstore\n      0x20\n      add\n      0x00\n      keccak256\n        /* \"one_smart_contract/contr.sol\":5989:6014  massOfTrip[numTrip].prise */\n      0x02\n      add\n      sload\n        /* \"one_smart_contract/contr.sol\":5955:5966  massOfUsers */\n      0x01\n        /* \"one_smart_contract/contr.sol\":5955:5978  massOfUsers[msg.sender] */\n      0x00\n        /* \"one_smart_contract/contr.sol\":5967:5977  msg.sender */\n      caller\n        /* \"one_smart_contract/contr.sol\":5955:5978  massOfUsers[msg.sender] */\n      0xffffffffffffffffffffffffffffffffffffffff\n      and\n      0xffffffffffffffffffffffffffffffffffffffff\n      and\n      dup2\n      mstore\n      0x20\n      add\n      swap1\n      dup2\n      mstore\n      0x20\n      add\n      0x00\n      keccak256\n        /* \"one_smart_contract/contr.sol\":5955:5986  massOfUsers[msg.sender].balance */\n      0x02\n      add\n      sload\n        /* \"one_smart_contract/contr.sol\":5955:6014  massOfUsers[msg.sender].balance - massOfTrip[numTrip].prise */\n      tag_167\n      swap2\n      swap1\n      tag_164\n      jump\t// in\n    tag_167:\n        /* \"one_smart_contract/contr.sol\":5921:5932  massOfUsers */\n      0x01\n        /* \"one_smart_contract/contr.sol\":5921:5944  massOfUsers[msg.sender] */\n      0x00\n        /* \"one_smart_contract/contr.sol\":5933:5943  msg.sender */\n      caller\n        /* \"one_smart_contract/contr.sol\":5921:5944  massOfUsers[msg.sender] */\n      0xffffffffffffffffffffffffffffffffffffffff\n      and\n      0xffffffffffffffffffffffffffffffffffffffff\n      and\n      dup2\n      mstore\n      0x20\n      add\n      swap1\n      dup2\n      mstore\n      0x20\n      add\n      0x00\n      keccak256\n        /* \"one_smart_contract/contr.sol\":5921:5952  massOfUsers[msg.sender].balance */\n      0x02\n      add\n        /* \"one_smart_contract/contr.sol\":5921:6014  massOfUsers[msg.sender].balance = massOfUsers[msg.sender].balance - massOfTrip[numTrip].prise */\n      dup2\n      swap1\n      sstore\n      pop\n        /* \"one_smart_contract/contr.sol\":6036:6040  true */\n      0x01\n        /* \"one_smart_contract/contr.sol\":6029:6040  return true */\n      swap1\n      pop\n      jump(tag_162)\n        /* \"one_smart_contract/contr.sol\":5767:6115  if(massOfUsers[msg.sender].balance - massOfTrip[numTrip].prise >= 0)\r... */\n    tag_165:\n        /* \"one_smart_contract/contr.sol\":6098:6103  false */\n      0x00\n        /* \"one_smart_contract/contr.sol\":6091:6103  return false */\n      swap1\n      pop\n        /* \"one_smart_contract/contr.sol\":5693:6122  function addUserInTrip(uint numTrip) public returns(bool)\r... */\n    tag_162:\n      swap2\n      swap1\n      pop\n      jump\t// out\n        /* \"one_smart_contract/contr.sol\":4534:4645  function setSostBus(uint num, bool cond) public BusInfo\r... */\n    tag_76:\n        /* \"one_smart_contract/contr.sol\":1242:1251  bool flag */\n      0x00\n        /* \"one_smart_contract/contr.sol\":1305:1306  1 */\n      0x01\n        /* \"one_smart_contract/contr.sol\":1273:1284  massOfUsers */\n      dup1\n        /* \"one_smart_contract/contr.sol\":1273:1296  massOfUsers[msg.sender] */\n      0x00\n        /* \"one_smart_contract/contr.sol\":1285:1295  msg.sender */\n      caller\n        /* \"one_smart_contract/contr.sol\":1273:1296  massOfUsers[msg.sender] */\n      0xffffffffffffffffffffffffffffffffffffffff\n      and\n      0xffffffffffffffffffffffffffffffffffffffff\n      and\n      dup2\n      mstore\n      0x20\n      add\n      swap1\n      dup2\n      mstore\n      0x20\n      add\n      0x00\n      keccak256\n        /* \"one_smart_contract/contr.sol\":1273:1301  massOfUsers[msg.sender].role */\n      0x01\n      add\n      sload\n        /* \"one_smart_contract/contr.sol\":1273:1306  massOfUsers[msg.sender].role == 1 */\n      eq\n        /* \"one_smart_contract/contr.sol\":1270:1355  if(massOfUsers[msg.sender].role == 1)\r... */\n      iszero\n      tag_170\n      jumpi\n        /* \"one_smart_contract/contr.sol\":1339:1343  true */\n      0x01\n        /* \"one_smart_contract/contr.sol\":1332:1343  flag = true */\n      swap1\n      pop\n        /* \"one_smart_contract/contr.sol\":1270:1355  if(massOfUsers[msg.sender].role == 1)\r... */\n    tag_170:\n        /* \"one_smart_contract/contr.sol\":1400:1401  4 */\n      0x04\n        /* \"one_smart_contract/contr.sol\":1368:1379  massOfUsers */\n      0x01\n        /* \"one_smart_contract/contr.sol\":1368:1391  massOfUsers[msg.sender] */\n      0x00\n        /* \"one_smart_contract/contr.sol\":1380:1390  msg.sender */\n      caller\n        /* \"one_smart_contract/contr.sol\":1368:1391  massOfUsers[msg.sender] */\n      0xffffffffffffffffffffffffffffffffffffffff\n      and\n      0xffffffffffffffffffffffffffffffffffffffff\n      and\n      dup2\n      mstore\n      0x20\n      add\n      swap1\n      dup2\n      mstore\n      0x20\n      add\n      0x00\n      keccak256\n        /* \"one_smart_contract/contr.sol\":1368:1396  massOfUsers[msg.sender].role */\n      0x01\n      add\n      sload\n        /* \"one_smart_contract/contr.sol\":1368:1401  massOfUsers[msg.sender].role == 4 */\n      eq\n        /* \"one_smart_contract/contr.sol\":1365:1450  if(massOfUsers[msg.sender].role == 4)\r... */\n      iszero\n      tag_171\n      jumpi\n        /* \"one_smart_contract/contr.sol\":1434:1438  true */\n      0x01\n        /* \"one_smart_contract/contr.sol\":1427:1438  flag = true */\n      swap1\n      pop\n        /* \"one_smart_contract/contr.sol\":1365:1450  if(massOfUsers[msg.sender].role == 4)\r... */\n    tag_171:\n        /* \"one_smart_contract/contr.sol\":1468:1472  flag */\n      dup1\n        /* \"one_smart_contract/contr.sol\":1460:1489  require(flag, \"Access denie\") */\n      tag_172\n      jumpi\n      mload(0x40)\n      0x08c379a000000000000000000000000000000000000000000000000000000000\n      dup2\n      mstore\n      0x04\n      add\n      tag_173\n      swap1\n      tag_100\n      jump\t// in\n    tag_173:\n      mload(0x40)\n      dup1\n      swap2\n      sub\n      swap1\n      revert\n    tag_172:\n        /* \"one_smart_contract/contr.sol\":4633:4637  cond */\n      dup2\n        /* \"one_smart_contract/contr.sol\":4606:4615  massOfBus */\n      0x02\n        /* \"one_smart_contract/contr.sol\":4606:4620  massOfBus[num] */\n      0x00\n        /* \"one_smart_contract/contr.sol\":4616:4619  num */\n      dup6\n        /* \"one_smart_contract/contr.sol\":4606:4620  massOfBus[num] */\n      dup2\n      mstore\n      0x20\n      add\n      swap1\n      dup2\n      mstore\n      0x20\n      add\n      0x00\n      keccak256\n        /* \"one_smart_contract/contr.sol\":4606:4630  massOfBus[num].condition */\n      0x01\n      add\n      0x00\n        /* \"one_smart_contract/contr.sol\":4606:4637  massOfBus[num].condition = cond */\n      0x0100\n      exp\n      dup2\n      sload\n      dup2\n      0xff\n      mul\n      not\n      and\n      swap1\n      dup4\n      iszero\n      iszero\n      mul\n      or\n      swap1\n      sstore\n      pop\n        /* \"one_smart_contract/contr.sol\":1231:1509  {\r... */\n      pop\n        /* \"one_smart_contract/contr.sol\":4534:4645  function setSostBus(uint num, bool cond) public BusInfo\r... */\n      pop\n      pop\n      jump\t// out\n        /* \"one_smart_contract/contr.sol\":6384:6507  function moneyHome() OnlyAdmin external payable\r... */\n    tag_78:\n        /* \"one_smart_contract/contr.sol\":1163:1164  4 */\n      0x04\n        /* \"one_smart_contract/contr.sol\":1131:1142  massOfUsers */\n      0x01\n        /* \"one_smart_contract/contr.sol\":1131:1154  massOfUsers[msg.sender] */\n      0x00\n        /* \"one_smart_contract/contr.sol\":1143:1153  msg.sender */\n      caller\n        /* \"one_smart_contract/contr.sol\":1131:1154  massOfUsers[msg.sender] */\n      0xffffffffffffffffffffffffffffffffffffffff\n      and\n      0xffffffffffffffffffffffffffffffffffffffff\n      and\n      dup2\n      mstore\n      0x20\n      add\n      swap1\n      dup2\n      mstore\n      0x20\n      add\n      0x00\n      keccak256\n        /* \"one_smart_contract/contr.sol\":1131:1159  massOfUsers[msg.sender].role */\n      0x01\n      add\n      sload\n        /* \"one_smart_contract/contr.sol\":1131:1164  massOfUsers[msg.sender].role == 4 */\n      eq\n        /* \"one_smart_contract/contr.sol\":1123:1181  require(massOfUsers[msg.sender].role == 4, \"Access denie\") */\n      tag_176\n      jumpi\n      mload(0x40)\n      0x08c379a000000000000000000000000000000000000000000000000000000000\n      dup2\n      mstore\n      0x04\n      add\n      tag_177\n      swap1\n      tag_100\n      jump\t// in\n    tag_177:\n      mload(0x40)\n      dup1\n      swap2\n      sub\n      swap1\n      revert\n    tag_176:\n        /* \"one_smart_contract/contr.sol\":6456:6466  msg.sender */\n      caller\n        /* \"one_smart_contract/contr.sol\":6448:6476  payable(msg.sender).transfer */\n      0xffffffffffffffffffffffffffffffffffffffff\n      and\n        /* \"one_smart_contract/contr.sol\":6448:6499  payable(msg.sender).transfer(address(this).balance) */\n      0x08fc\n        /* \"one_smart_contract/contr.sol\":6477:6498  address(this).balance */\n      selfbalance\n        /* \"one_smart_contract/contr.sol\":6448:6499  payable(msg.sender).transfer(address(this).balance) */\n      swap1\n      dup2\n      iszero\n      mul\n      swap1\n      mload(0x40)\n      0x00\n      mload(0x40)\n      dup1\n      dup4\n      sub\n      dup2\n      dup6\n      dup9\n      dup9\n      call\n      swap4\n      pop\n      pop\n      pop\n      pop\n      iszero\n      dup1\n      iszero\n      tag_180\n      jumpi\n      returndatasize\n      0x00\n      dup1\n      returndatacopy\n      revert(0x00, returndatasize)\n    tag_180:\n      pop\n        /* \"one_smart_contract/contr.sol\":6384:6507  function moneyHome() OnlyAdmin external payable\r... */\n      jump\t// out\n        /* \"one_smart_contract/contr.sol\":4082:4290  function setBus(uint num, bool cond,uint kM) public OnlyAdmin\r... */\n    tag_83:\n        /* \"one_smart_contract/contr.sol\":1163:1164  4 */\n      0x04\n        /* \"one_smart_contract/contr.sol\":1131:1142  massOfUsers */\n      0x01\n        /* \"one_smart_contract/contr.sol\":1131:1154  massOfUsers[msg.sender] */\n      0x00\n        /* \"one_smart_contract/contr.sol\":1143:1153  msg.sender */\n      caller\n        /* \"one_smart_contract/contr.sol\":1131:1154  massOfUsers[msg.sender] */\n      0xffffffffffffffffffffffffffffffffffffffff\n      and\n      0xffffffffffffffffffffffffffffffffffffffff\n      and\n      dup2\n      mstore\n      0x20\n      add\n      swap1\n      dup2\n      mstore\n      0x20\n      add\n      0x00\n      keccak256\n        /* \"one_smart_contract/contr.sol\":1131:1159  massOfUsers[msg.sender].role */\n      0x01\n      add\n      sload\n        /* \"one_smart_contract/contr.sol\":1131:1164  massOfUsers[msg.sender].role == 4 */\n      eq\n        /* \"one_smart_contract/contr.sol\":1123:1181  require(massOfUsers[msg.sender].role == 4, \"Access denie\") */\n      tag_182\n      jumpi\n      mload(0x40)\n      0x08c379a000000000000000000000000000000000000000000000000000000000\n      dup2\n      mstore\n      0x04\n      add\n      tag_183\n      swap1\n      tag_100\n      jump\t// in\n    tag_183:\n      mload(0x40)\n      dup1\n      swap2\n      sub\n      swap1\n      revert\n    tag_182:\n        /* \"one_smart_contract/contr.sol\":4160:4172  Bus memory a */\n      tag_185\n      tag_186\n      jump\t// in\n    tag_185:\n        /* \"one_smart_contract/contr.sol\":4194:4197  num */\n      dup4\n        /* \"one_smart_contract/contr.sol\":4183:4184  a */\n      dup2\n        /* \"one_smart_contract/contr.sol\":4183:4191  a.number */\n      0x00\n      add\n        /* \"one_smart_contract/contr.sol\":4183:4197  a.number = num */\n      dup2\n      dup2\n      mstore\n      pop\n      pop\n        /* \"one_smart_contract/contr.sol\":4222:4226  cond */\n      dup3\n        /* \"one_smart_contract/contr.sol\":4208:4209  a */\n      dup2\n        /* \"one_smart_contract/contr.sol\":4208:4219  a.condition */\n      0x20\n      add\n        /* \"one_smart_contract/contr.sol\":4208:4226  a.condition = cond */\n      swap1\n      iszero\n      iszero\n      swap1\n      dup2\n      iszero\n      iszero\n      dup2\n      mstore\n      pop\n      pop\n        /* \"one_smart_contract/contr.sol\":4251:4253  kM */\n      dup2\n        /* \"one_smart_contract/contr.sol\":4237:4238  a */\n      dup2\n        /* \"one_smart_contract/contr.sol\":4237:4248  a.kolvoMest */\n      0x40\n      add\n        /* \"one_smart_contract/contr.sol\":4237:4253  a.kolvoMest = kM */\n      dup2\n      dup2\n      mstore\n      pop\n      pop\n        /* \"one_smart_contract/contr.sol\":4281:4282  a */\n      dup1\n        /* \"one_smart_contract/contr.sol\":4264:4273  massOfBus */\n      0x02\n        /* \"one_smart_contract/contr.sol\":4264:4278  massOfBus[num] */\n      0x00\n        /* \"one_smart_contract/contr.sol\":4274:4277  num */\n      dup7\n        /* \"one_smart_contract/contr.sol\":4264:4278  massOfBus[num] */\n      dup2\n      mstore\n      0x20\n      add\n      swap1\n      dup2\n      mstore\n      0x20\n      add\n      0x00\n      keccak256\n        /* \"one_smart_contract/contr.sol\":4264:4282  massOfBus[num] = a */\n      0x00\n      dup3\n      add\n      mload\n      dup2\n      0x00\n      add\n      sstore\n      0x20\n      dup3\n      add\n      mload\n      dup2\n      0x01\n      add\n      exp(0x0100, 0x00)\n      dup2\n      sload\n      dup2\n      0xff\n      mul\n      not\n      and\n      swap1\n      dup4\n      iszero\n      iszero\n      mul\n      or\n      swap1\n      sstore\n      pop\n      0x40\n      dup3\n      add\n      mload\n      dup2\n      0x02\n      add\n      sstore\n      swap1\n      pop\n      pop\n        /* \"one_smart_contract/contr.sol\":4149:4290  {\r... */\n      pop\n        /* \"one_smart_contract/contr.sol\":4082:4290  function setBus(uint num, bool cond,uint kM) public OnlyAdmin\r... */\n      pop\n      pop\n      pop\n      jump\t// out\n        /* \"one_smart_contract/contr.sol\":4298:4528  function getSostBus(uint num) public BusInfo returns(bool) \r... */\n    tag_87:\n        /* \"one_smart_contract/contr.sol\":4351:4355  bool */\n      0x00\n        /* \"one_smart_contract/contr.sol\":1242:1251  bool flag */\n      dup1\n        /* \"one_smart_contract/contr.sol\":1254:1259  false */\n      0x00\n        /* \"one_smart_contract/contr.sol\":1242:1259  bool flag = false */\n      swap1\n      pop\n        /* \"one_smart_contract/contr.sol\":1305:1306  1 */\n      0x01\n        /* \"one_smart_contract/contr.sol\":1273:1284  massOfUsers */\n      dup1\n        /* \"one_smart_contract/contr.sol\":1273:1296  massOfUsers[msg.sender] */\n      0x00\n        /* \"one_smart_contract/contr.sol\":1285:1295  msg.sender */\n      caller\n        /* \"one_smart_contract/contr.sol\":1273:1296  massOfUsers[msg.sender] */\n      0xffffffffffffffffffffffffffffffffffffffff\n      and\n      0xffffffffffffffffffffffffffffffffffffffff\n      and\n      dup2\n      mstore\n      0x20\n      add\n      swap1\n      dup2\n      mstore\n      0x20\n      add\n      0x00\n      keccak256\n        /* \"one_smart_contract/contr.sol\":1273:1301  massOfUsers[msg.sender].role */\n      0x01\n      add\n      sload\n        /* \"one_smart_contract/contr.sol\":1273:1306  massOfUsers[msg.sender].role == 1 */\n      eq\n        /* \"one_smart_contract/contr.sol\":1270:1355  if(massOfUsers[msg.sender].role == 1)\r... */\n      iszero\n      tag_188\n      jumpi\n        /* \"one_smart_contract/contr.sol\":1339:1343  true */\n      0x01\n        /* \"one_smart_contract/contr.sol\":1332:1343  flag = true */\n      swap1\n      pop\n        /* \"one_smart_contract/contr.sol\":1270:1355  if(massOfUsers[msg.sender].role == 1)\r... */\n    tag_188:\n        /* \"one_smart_contract/contr.sol\":1400:1401  4 */\n      0x04\n        /* \"one_smart_contract/contr.sol\":1368:1379  massOfUsers */\n      0x01\n        /* \"one_smart_contract/contr.sol\":1368:1391  massOfUsers[msg.sender] */\n      0x00\n        /* \"one_smart_contract/contr.sol\":1380:1390  msg.sender */\n      caller\n        /* \"one_smart_contract/contr.sol\":1368:1391  massOfUsers[msg.sender] */\n      0xffffffffffffffffffffffffffffffffffffffff\n      and\n      0xffffffffffffffffffffffffffffffffffffffff\n      and\n      dup2\n      mstore\n      0x20\n      add\n      swap1\n      dup2\n      mstore\n      0x20\n      add\n      0x00\n      keccak256\n        /* \"one_smart_contract/contr.sol\":1368:1396  massOfUsers[msg.sender].role */\n      0x01\n      add\n      sload\n        /* \"one_smart_contract/contr.sol\":1368:1401  massOfUsers[msg.sender].role == 4 */\n      eq\n        /* \"one_smart_contract/contr.sol\":1365:1450  if(massOfUsers[msg.sender].role == 4)\r... */\n      iszero\n      tag_189\n      jumpi\n        /* \"one_smart_contract/contr.sol\":1434:1438  true */\n      0x01\n        /* \"one_smart_contract/contr.sol\":1427:1438  flag = true */\n      swap1\n      pop\n        /* \"one_smart_contract/contr.sol\":1365:1450  if(massOfUsers[msg.sender].role == 4)\r... */\n    tag_189:\n        /* \"one_smart_contract/contr.sol\":1468:1472  flag */\n      dup1\n        /* \"one_smart_contract/contr.sol\":1460:1489  require(flag, \"Access denie\") */\n      tag_190\n      jumpi\n      mload(0x40)\n      0x08c379a000000000000000000000000000000000000000000000000000000000\n      dup2\n      mstore\n      0x04\n      add\n      tag_191\n      swap1\n      tag_100\n      jump\t// in\n    tag_191:\n      mload(0x40)\n      dup1\n      swap2\n      sub\n      swap1\n      revert\n    tag_190:\n        /* \"one_smart_contract/contr.sol\":4405:4409  true */\n      0x01\n        /* \"one_smart_contract/contr.sol\":4377:4409  massOfBus[num].condition == true */\n      iszero\n      iszero\n        /* \"one_smart_contract/contr.sol\":4377:4386  massOfBus */\n      0x02\n        /* \"one_smart_contract/contr.sol\":4377:4391  massOfBus[num] */\n      0x00\n        /* \"one_smart_contract/contr.sol\":4387:4390  num */\n      dup6\n        /* \"one_smart_contract/contr.sol\":4377:4391  massOfBus[num] */\n      dup2\n      mstore\n      0x20\n      add\n      swap1\n      dup2\n      mstore\n      0x20\n      add\n      0x00\n      keccak256\n        /* \"one_smart_contract/contr.sol\":4377:4401  massOfBus[num].condition */\n      0x01\n      add\n      0x00\n      swap1\n      sload\n      swap1\n      0x0100\n      exp\n      swap1\n      div\n      0xff\n      and\n        /* \"one_smart_contract/contr.sol\":4377:4409  massOfBus[num].condition == true */\n      iszero\n      iszero\n      eq\n        /* \"one_smart_contract/contr.sol\":4374:4521  if(massOfBus[num].condition == true)\r... */\n      iszero\n      tag_193\n      jumpi\n        /* \"one_smart_contract/contr.sol\":4442:4446  true */\n      0x01\n        /* \"one_smart_contract/contr.sol\":4435:4446  return true */\n      swap2\n      pop\n      jump(tag_192)\n        /* \"one_smart_contract/contr.sol\":4374:4521  if(massOfBus[num].condition == true)\r... */\n    tag_193:\n        /* \"one_smart_contract/contr.sol\":4504:4509  false */\n      0x00\n        /* \"one_smart_contract/contr.sol\":4497:4509  return false */\n      swap2\n      pop\n        /* \"one_smart_contract/contr.sol\":1500:1501  _ */\n    tag_192:\n        /* \"one_smart_contract/contr.sol\":1231:1509  {\r... */\n      pop\n        /* \"one_smart_contract/contr.sol\":4298:4528  function getSostBus(uint num) public BusInfo returns(bool) \r... */\n      swap2\n      swap1\n      pop\n      jump\t// out\n        /* \"one_smart_contract/contr.sol\":2959:3072  function setSimpleUser(string memory us) public\r... */\n    tag_93:\n        /* \"one_smart_contract/contr.sol\":3062:3064  us */\n      dup1\n        /* \"one_smart_contract/contr.sol\":3027:3038  massOfUsers */\n      0x01\n        /* \"one_smart_contract/contr.sol\":3027:3050  massOfUsers[msg.sender] */\n      0x00\n        /* \"one_smart_contract/contr.sol\":3039:3049  msg.sender */\n      caller\n        /* \"one_smart_contract/contr.sol\":3027:3050  massOfUsers[msg.sender] */\n      0xffffffffffffffffffffffffffffffffffffffff\n      and\n      0xffffffffffffffffffffffffffffffffffffffff\n      and\n      dup2\n      mstore\n      0x20\n      add\n      swap1\n      dup2\n      mstore\n      0x20\n      add\n      0x00\n      keccak256\n        /* \"one_smart_contract/contr.sol\":3027:3059  massOfUsers[msg.sender].userName */\n      0x00\n      add\n        /* \"one_smart_contract/contr.sol\":3027:3064  massOfUsers[msg.sender].userName = us */\n      swap1\n      dup1\n      mload\n      swap1\n      0x20\n      add\n      swap1\n      tag_196\n      swap3\n      swap2\n      swap1\n      tag_141\n      jump\t// in\n    tag_196:\n      pop\n        /* \"one_smart_contract/contr.sol\":2959:3072  function setSimpleUser(string memory us) public\r... */\n      pop\n      jump\t// out\n        /* \"one_smart_contract/contr.sol\":2168:2824  function concat(string memory a, string memory b) internal returns (string memory) \r... */\n    tag_114:\n        /* \"one_smart_contract/contr.sol\":2236:2249  string memory */\n      0x60\n        /* \"one_smart_contract/contr.sol\":2268:2274  uint i */\n      0x00\n        /* \"one_smart_contract/contr.sol\":2285:2291  uint j */\n      dup1\n        /* \"one_smart_contract/contr.sol\":2294:2295  0 */\n      0x00\n        /* \"one_smart_contract/contr.sol\":2285:2295  uint j = 0 */\n      swap1\n      pop\n        /* \"one_smart_contract/contr.sol\":2306:2328  string memory newValue */\n      0x00\n        /* \"one_smart_contract/contr.sol\":2378:2379  1 */\n      0x01\n        /* \"one_smart_contract/contr.sol\":2366:2367  b */\n      dup6\n        /* \"one_smart_contract/contr.sol\":2360:2375  bytes(b).length */\n      mload\n        /* \"one_smart_contract/contr.sol\":2348:2349  a */\n      dup8\n        /* \"one_smart_contract/contr.sol\":2342:2357  bytes(a).length */\n      mload\n        /* \"one_smart_contract/contr.sol\":2342:2375  bytes(a).length + bytes(b).length */\n      tag_198\n      swap2\n      swap1\n      tag_118\n      jump\t// in\n    tag_198:\n        /* \"one_smart_contract/contr.sol\":2342:2379  bytes(a).length + bytes(b).length + 1 */\n      tag_199\n      swap2\n      swap1\n      tag_118\n      jump\t// in\n    tag_199:\n        /* \"one_smart_contract/contr.sol\":2331:2380  new string(bytes(a).length + bytes(b).length + 1) */\n      0xffffffffffffffff\n      dup2\n      gt\n      iszero\n      tag_200\n      jumpi\n      tag_201\n      tag_202\n      jump\t// in\n    tag_201:\n    tag_200:\n      mload(0x40)\n      swap1\n      dup1\n      dup3\n      mstore\n      dup1\n      0x1f\n      add\n      not(0x1f)\n      and\n      0x20\n      add\n      dup3\n      add\n      0x40\n      mstore\n      dup1\n      iszero\n      tag_203\n      jumpi\n      dup2\n      0x20\n      add\n      0x01\n      dup3\n      mul\n      dup1\n      calldatasize\n      dup4\n      calldatacopy\n      dup1\n      dup3\n      add\n      swap2\n      pop\n      pop\n      swap1\n      pop\n    tag_203:\n      pop\n        /* \"one_smart_contract/contr.sol\":2306:2380  string memory newValue = new string(bytes(a).length + bytes(b).length + 1) */\n      swap1\n      pop\n        /* \"one_smart_contract/contr.sol\":2391:2409  bytes memory value */\n      0x00\n        /* \"one_smart_contract/contr.sol\":2418:2426  newValue */\n      dup2\n        /* \"one_smart_contract/contr.sol\":2391:2427  bytes memory value = bytes(newValue) */\n      swap1\n      pop\n        /* \"one_smart_contract/contr.sol\":2438:2455  bytes memory str1 */\n      0x00\n        /* \"one_smart_contract/contr.sol\":2464:2465  a */\n      dup8\n        /* \"one_smart_contract/contr.sol\":2438:2466  bytes memory str1 = bytes(a) */\n      swap1\n      pop\n        /* \"one_smart_contract/contr.sol\":2477:2494  bytes memory str2 */\n      0x00\n        /* \"one_smart_contract/contr.sol\":2503:2504  b */\n      dup8\n        /* \"one_smart_contract/contr.sol\":2477:2505  bytes memory str2 = bytes(b) */\n      swap1\n      pop\n        /* \"one_smart_contract/contr.sol\":2522:2523  0 */\n      0x00\n        /* \"one_smart_contract/contr.sol\":2520:2523  i=0 */\n      swap6\n      pop\n        /* \"one_smart_contract/contr.sol\":2516:2618  for(i=0; i<str1.length; i++) \r... */\n    tag_204:\n        /* \"one_smart_contract/contr.sol\":2527:2531  str1 */\n      dup2\n        /* \"one_smart_contract/contr.sol\":2527:2538  str1.length */\n      mload\n        /* \"one_smart_contract/contr.sol\":2525:2526  i */\n      dup7\n        /* \"one_smart_contract/contr.sol\":2525:2538  i<str1.length */\n      lt\n        /* \"one_smart_contract/contr.sol\":2516:2618  for(i=0; i<str1.length; i++) \r... */\n      iszero\n      tag_205\n      jumpi\n        /* \"one_smart_contract/contr.sol\":2581:2585  str1 */\n      dup2\n        /* \"one_smart_contract/contr.sol\":2586:2587  i */\n      dup7\n        /* \"one_smart_contract/contr.sol\":2581:2588  str1[i] */\n      dup2\n      mload\n      dup2\n      lt\n      tag_207\n      jumpi\n      tag_208\n      tag_209\n      jump\t// in\n    tag_208:\n    tag_207:\n      0x20\n      add\n      add\n      mload\n      0xf8\n      shr\n      0xf8\n      shl\n        /* \"one_smart_contract/contr.sol\":2570:2575  value */\n      dup4\n        /* \"one_smart_contract/contr.sol\":2576:2577  j */\n      dup7\n        /* \"one_smart_contract/contr.sol\":2570:2578  value[j] */\n      dup2\n      mload\n      dup2\n      lt\n      tag_210\n      jumpi\n      tag_211\n      tag_209\n      jump\t// in\n    tag_211:\n    tag_210:\n      0x20\n      add\n      add\n        /* \"one_smart_contract/contr.sol\":2570:2588  value[j] = str1[i] */\n      swap1\n      not(0xffffffffffffffffffffffffffffffffffffffffffffffffffffffffffffff)\n      and\n      swap1\n      dup2\n      0x00\n      byte\n      swap1\n      mstore8\n      pop\n        /* \"one_smart_contract/contr.sol\":2603:2606  j++ */\n      dup5\n      dup1\n      tag_212\n      swap1\n      tag_213\n      jump\t// in\n    tag_212:\n      swap6\n      pop\n      pop\n        /* \"one_smart_contract/contr.sol\":2540:2543  i++ */\n      dup6\n      dup1\n      tag_214\n      swap1\n      tag_213\n      jump\t// in\n    tag_214:\n      swap7\n      pop\n      pop\n        /* \"one_smart_contract/contr.sol\":2516:2618  for(i=0; i<str1.length; i++) \r... */\n      jump(tag_204)\n    tag_205:\n        /* \"one_smart_contract/contr.sol\":2639:2649  bytes(\" \") */\n      mload(0x40)\n      dup1\n      0x40\n      add\n      0x40\n      mstore\n      dup1\n      0x01\n      dup2\n      mstore\n      0x20\n      add\n      0x2000000000000000000000000000000000000000000000000000000000000000\n      dup2\n      mstore\n      pop\n        /* \"one_smart_contract/contr.sol\":2650:2651  0 */\n      0x00\n        /* \"one_smart_contract/contr.sol\":2639:2652  bytes(\" \")[0] */\n      dup2\n      mload\n      dup2\n      lt\n      tag_215\n      jumpi\n      tag_216\n      tag_209\n      jump\t// in\n    tag_216:\n    tag_215:\n      0x20\n      add\n      add\n      mload\n      0xf8\n      shr\n      0xf8\n      shl\n        /* \"one_smart_contract/contr.sol\":2628:2633  value */\n      dup4\n        /* \"one_smart_contract/contr.sol\":2634:2635  j */\n      dup7\n        /* \"one_smart_contract/contr.sol\":2628:2636  value[j] */\n      dup2\n      mload\n      dup2\n      lt\n      tag_217\n      jumpi\n      tag_218\n      tag_209\n      jump\t// in\n    tag_218:\n    tag_217:\n      0x20\n      add\n      add\n        /* \"one_smart_contract/contr.sol\":2628:2652  value[j] = bytes(\" \")[0] */\n      swap1\n      not(0xffffffffffffffffffffffffffffffffffffffffffffffffffffffffffffff)\n      and\n      swap1\n      dup2\n      0x00\n      byte\n      swap1\n      mstore8\n      pop\n        /* \"one_smart_contract/contr.sol\":2663:2666  j++ */\n      dup5\n      dup1\n      tag_219\n      swap1\n      tag_213\n      jump\t// in\n    tag_219:\n      swap6\n      pop\n      pop\n        /* \"one_smart_contract/contr.sol\":2683:2684  0 */\n      0x00\n        /* \"one_smart_contract/contr.sol\":2681:2684  i=0 */\n      swap6\n      pop\n        /* \"one_smart_contract/contr.sol\":2677:2779  for(i=0; i<str2.length; i++) \r... */\n    tag_220:\n        /* \"one_smart_contract/contr.sol\":2688:2692  str2 */\n      dup1\n        /* \"one_smart_contract/contr.sol\":2688:2699  str2.length */\n      mload\n        /* \"one_smart_contract/contr.sol\":2686:2687  i */\n      dup7\n        /* \"one_smart_contract/contr.sol\":2686:2699  i<str2.length */\n      lt\n        /* \"one_smart_contract/contr.sol\":2677:2779  for(i=0; i<str2.length; i++) \r... */\n      iszero\n      tag_221\n      jumpi\n        /* \"one_smart_contract/contr.sol\":2742:2746  str2 */\n      dup1\n        /* \"one_smart_contract/contr.sol\":2747:2748  i */\n      dup7\n        /* \"one_smart_contract/contr.sol\":2742:2749  str2[i] */\n      dup2\n      mload\n      dup2\n      lt\n      tag_223\n      jumpi\n      tag_224\n      tag_209\n      jump\t// in\n    tag_224:\n    tag_223:\n      0x20\n      add\n      add\n      mload\n      0xf8\n      shr\n      0xf8\n      shl\n        /* \"one_smart_contract/contr.sol\":2731:2736  value */\n      dup4\n        /* \"one_smart_contract/contr.sol\":2737:2738  j */\n      dup7\n        /* \"one_smart_contract/contr.sol\":2731:2739  value[j] */\n      dup2\n      mload\n      dup2\n      lt\n      tag_225\n      jumpi\n      tag_226\n      tag_209\n      jump\t// in\n    tag_226:\n    tag_225:\n      0x20\n      add\n      add\n        /* \"one_smart_contract/contr.sol\":2731:2749  value[j] = str2[i] */\n      swap1\n      not(0xffffffffffffffffffffffffffffffffffffffffffffffffffffffffffffff)\n      and\n      swap1\n      dup2\n      0x00\n      byte\n      swap1\n      mstore8\n      pop\n        /* \"one_smart_contract/contr.sol\":2764:2767  j++ */\n      dup5\n      dup1\n      tag_227\n      swap1\n      tag_213\n      jump\t// in\n    tag_227:\n      swap6\n      pop\n      pop\n        /* \"one_smart_contract/contr.sol\":2701:2704  i++ */\n      dup6\n      dup1\n      tag_228\n      swap1\n      tag_213\n      jump\t// in\n    tag_228:\n      swap7\n      pop\n      pop\n        /* \"one_smart_contract/contr.sol\":2677:2779  for(i=0; i<str2.length; i++) \r... */\n      jump(tag_220)\n    tag_221:\n        /* \"one_smart_contract/contr.sol\":2807:2815  newValue */\n      dup4\n        /* \"one_smart_contract/contr.sol\":2793:2816  return string(newValue) */\n      swap7\n      pop\n      pop\n      pop\n      pop\n      pop\n      pop\n      pop\n        /* \"one_smart_contract/contr.sol\":2168:2824  function concat(string memory a, string memory b) internal returns (string memory) \r... */\n      swap3\n      swap2\n      pop\n      pop\n      jump\t// out\n    tag_141:\n      dup3\n      dup1\n      sload\n      tag_229\n      swap1\n      tag_104\n      jump\t// in\n    tag_229:\n      swap1\n      0x00\n      mstore\n      keccak256(0x00, 0x20)\n      swap1\n      0x1f\n      add\n      0x20\n      swap1\n      div\n      dup2\n      add\n      swap3\n      dup3\n      tag_231\n      jumpi\n      0x00\n      dup6\n      sstore\n      jump(tag_230)\n    tag_231:\n      dup3\n      0x1f\n      lt\n      tag_232\n      jumpi\n      dup1\n      mload\n      not(0xff)\n      and\n      dup4\n      dup1\n      add\n      or\n      dup6\n      sstore\n      jump(tag_230)\n    tag_232:\n      dup3\n      dup1\n      add\n      0x01\n      add\n      dup6\n      sstore\n      dup3\n      iszero\n      tag_230\n      jumpi\n      swap2\n      dup3\n      add\n    tag_233:\n      dup3\n      dup2\n      gt\n      iszero\n      tag_234\n      jumpi\n      dup3\n      mload\n      dup3\n      sstore\n      swap2\n      0x20\n      add\n      swap2\n      swap1\n      0x01\n      add\n      swap1\n      jump(tag_233)\n    tag_234:\n    tag_230:\n      pop\n      swap1\n      pop\n      tag_235\n      swap2\n      swap1\n      tag_236\n      jump\t// in\n    tag_235:\n      pop\n      swap1\n      jump\t// out\n    tag_147:\n      mload(0x40)\n      dup1\n      0xa0\n      add\n      0x40\n      mstore\n      dup1\n      0x60\n      dup2\n      mstore\n      0x20\n      add\n      0x60\n      dup2\n      mstore\n      0x20\n      add\n      0x00\n      dup2\n      mstore\n      0x20\n      add\n      0x00\n      dup2\n      mstore\n      0x20\n      add\n      0x60\n      dup2\n      mstore\n      pop\n      swap1\n      jump\t// out\n    tag_151:\n      dup3\n      dup1\n      sload\n      dup3\n      dup3\n      sstore\n      swap1\n      0x00\n      mstore\n      keccak256(0x00, 0x20)\n      swap1\n      dup2\n      add\n      swap3\n      dup3\n      iszero\n      tag_237\n      jumpi\n      swap2\n      0x20\n      mul\n      dup3\n      add\n    tag_238:\n      dup3\n      dup2\n      gt\n      iszero\n      tag_239\n      jumpi\n      dup3\n      mload\n      dup3\n      exp(0x0100, 0x00)\n      dup2\n      sload\n      dup2\n      0xffffffffffffffffffffffffffffffffffffffff\n      mul\n      not\n      and\n      swap1\n      dup4\n      0xffffffffffffffffffffffffffffffffffffffff\n      and\n      mul\n      or\n      swap1\n      sstore\n      pop\n      swap2\n      0x20\n      add\n      swap2\n      swap1\n      0x01\n      add\n      swap1\n      jump(tag_238)\n    tag_239:\n    tag_237:\n      pop\n      swap1\n      pop\n      tag_240\n      swap2\n      swap1\n      tag_236\n      jump\t// in\n    tag_240:\n      pop\n      swap1\n      jump\t// out\n    tag_186:\n      mload(0x40)\n      dup1\n      0x60\n      add\n      0x40\n      mstore\n      dup1\n      0x00\n      dup2\n      mstore\n      0x20\n      add\n      iszero(iszero(0x00))\n      dup2\n      mstore\n      0x20\n      add\n      0x00\n      dup2\n      mstore\n      pop\n      swap1\n      jump\t// out\n    tag_236:\n    tag_241:\n      dup1\n      dup3\n      gt\n      iszero\n      tag_242\n      jumpi\n      0x00\n      dup2\n      0x00\n      swap1\n      sstore\n      pop\n      0x01\n      add\n      jump(tag_241)\n    tag_242:\n      pop\n      swap1\n      jump\t// out\n        /* \"#utility.yul\":7:419   */\n    tag_244:\n        /* \"#utility.yul\":85:90   */\n      0x00\n        /* \"#utility.yul\":110:176   */\n      tag_246\n        /* \"#utility.yul\":126:175   */\n      tag_247\n        /* \"#utility.yul\":168:174   */\n      dup5\n        /* \"#utility.yul\":126:175   */\n      tag_248\n      jump\t// in\n    tag_247:\n        /* \"#utility.yul\":110:176   */\n      tag_249\n      jump\t// in\n    tag_246:\n        /* \"#utility.yul\":101:176   */\n      swap1\n      pop\n        /* \"#utility.yul\":199:205   */\n      dup3\n        /* \"#utility.yul\":192:197   */\n      dup2\n        /* \"#utility.yul\":185:206   */\n      mstore\n        /* \"#utility.yul\":237:241   */\n      0x20\n        /* \"#utility.yul\":230:235   */\n      dup2\n        /* \"#utility.yul\":226:242   */\n      add\n        /* \"#utility.yul\":275:278   */\n      dup5\n        /* \"#utility.yul\":266:272   */\n      dup5\n        /* \"#utility.yul\":261:264   */\n      dup5\n        /* \"#utility.yul\":257:273   */\n      add\n        /* \"#utility.yul\":254:279   */\n      gt\n        /* \"#utility.yul\":251:363   */\n      iszero\n      tag_250\n      jumpi\n        /* \"#utility.yul\":282:361   */\n      tag_251\n      tag_252\n      jump\t// in\n    tag_251:\n        /* \"#utility.yul\":251:363   */\n    tag_250:\n        /* \"#utility.yul\":372:413   */\n      tag_253\n        /* \"#utility.yul\":406:412   */\n      dup5\n        /* \"#utility.yul\":401:404   */\n      dup3\n        /* \"#utility.yul\":396:399   */\n      dup6\n        /* \"#utility.yul\":372:413   */\n      tag_254\n      jump\t// in\n    tag_253:\n        /* \"#utility.yul\":91:419   */\n      pop\n        /* \"#utility.yul\":7:419   */\n      swap4\n      swap3\n      pop\n      pop\n      pop\n      jump\t// out\n        /* \"#utility.yul\":425:564   */\n    tag_255:\n        /* \"#utility.yul\":471:476   */\n      0x00\n        /* \"#utility.yul\":509:515   */\n      dup2\n        /* \"#utility.yul\":496:516   */\n      calldataload\n        /* \"#utility.yul\":487:516   */\n      swap1\n      pop\n        /* \"#utility.yul\":525:558   */\n      tag_257\n        /* \"#utility.yul\":552:557   */\n      dup2\n        /* \"#utility.yul\":525:558   */\n      tag_258\n      jump\t// in\n    tag_257:\n        /* \"#utility.yul\":425:564   */\n      swap3\n      swap2\n      pop\n      pop\n      jump\t// out\n        /* \"#utility.yul\":570:703   */\n    tag_259:\n        /* \"#utility.yul\":613:618   */\n      0x00\n        /* \"#utility.yul\":651:657   */\n      dup2\n        /* \"#utility.yul\":638:658   */\n      calldataload\n        /* \"#utility.yul\":629:658   */\n      swap1\n      pop\n        /* \"#utility.yul\":667:697   */\n      tag_261\n        /* \"#utility.yul\":691:696   */\n      dup2\n        /* \"#utility.yul\":667:697   */\n      tag_262\n      jump\t// in\n    tag_261:\n        /* \"#utility.yul\":570:703   */\n      swap3\n      swap2\n      pop\n      pop\n      jump\t// out\n        /* \"#utility.yul\":723:1063   */\n    tag_263:\n        /* \"#utility.yul\":779:784   */\n      0x00\n        /* \"#utility.yul\":828:831   */\n      dup3\n        /* \"#utility.yul\":821:825   */\n      0x1f\n        /* \"#utility.yul\":813:819   */\n      dup4\n        /* \"#utility.yul\":809:826   */\n      add\n        /* \"#utility.yul\":805:832   */\n      slt\n        /* \"#utility.yul\":795:917   */\n      tag_265\n      jumpi\n        /* \"#utility.yul\":836:915   */\n      tag_266\n      tag_267\n      jump\t// in\n    tag_266:\n        /* \"#utility.yul\":795:917   */\n    tag_265:\n        /* \"#utility.yul\":953:959   */\n      dup2\n        /* \"#utility.yul\":940:960   */\n      calldataload\n        /* \"#utility.yul\":978:1057   */\n      tag_268\n        /* \"#utility.yul\":1053:1056   */\n      dup5\n        /* \"#utility.yul\":1045:1051   */\n      dup3\n        /* \"#utility.yul\":1038:1042   */\n      0x20\n        /* \"#utility.yul\":1030:1036   */\n      dup7\n        /* \"#utility.yul\":1026:1043   */\n      add\n        /* \"#utility.yul\":978:1057   */\n      tag_244\n      jump\t// in\n    tag_268:\n        /* \"#utility.yul\":969:1057   */\n      swap2\n      pop\n        /* \"#utility.yul\":785:1063   */\n      pop\n        /* \"#utility.yul\":723:1063   */\n      swap3\n      swap2\n      pop\n      pop\n      jump\t// out\n        /* \"#utility.yul\":1069:1208   */\n    tag_269:\n        /* \"#utility.yul\":1115:1120   */\n      0x00\n        /* \"#utility.yul\":1153:1159   */\n      dup2\n        /* \"#utility.yul\":1140:1160   */\n      calldataload\n        /* \"#utility.yul\":1131:1160   */\n      swap1\n      pop\n        /* \"#utility.yul\":1169:1202   */\n      tag_271\n        /* \"#utility.yul\":1196:1201   */\n      dup2\n        /* \"#utility.yul\":1169:1202   */\n      tag_272\n      jump\t// in\n    tag_271:\n        /* \"#utility.yul\":1069:1208   */\n      swap3\n      swap2\n      pop\n      pop\n      jump\t// out\n        /* \"#utility.yul\":1214:1543   */\n    tag_37:\n        /* \"#utility.yul\":1273:1279   */\n      0x00\n        /* \"#utility.yul\":1322:1324   */\n      0x20\n        /* \"#utility.yul\":1310:1319   */\n      dup3\n        /* \"#utility.yul\":1301:1308   */\n      dup5\n        /* \"#utility.yul\":1297:1320   */\n      sub\n        /* \"#utility.yul\":1293:1325   */\n      slt\n        /* \"#utility.yul\":1290:1409   */\n      iszero\n      tag_274\n      jumpi\n        /* \"#utility.yul\":1328:1407   */\n      tag_275\n      tag_276\n      jump\t// in\n    tag_275:\n        /* \"#utility.yul\":1290:1409   */\n    tag_274:\n        /* \"#utility.yul\":1448:1449   */\n      0x00\n        /* \"#utility.yul\":1473:1526   */\n      tag_277\n        /* \"#utility.yul\":1518:1525   */\n      dup5\n        /* \"#utility.yul\":1509:1515   */\n      dup3\n        /* \"#utility.yul\":1498:1507   */\n      dup6\n        /* \"#utility.yul\":1494:1516   */\n      add\n        /* \"#utility.yul\":1473:1526   */\n      tag_255\n      jump\t// in\n    tag_277:\n        /* \"#utility.yul\":1463:1526   */\n      swap2\n      pop\n        /* \"#utility.yul\":1419:1536   */\n      pop\n        /* \"#utility.yul\":1214:1543   */\n      swap3\n      swap2\n      pop\n      pop\n      jump\t// out\n        /* \"#utility.yul\":1549:2348   */\n    tag_54:\n        /* \"#utility.yul\":1636:1642   */\n      0x00\n        /* \"#utility.yul\":1644:1650   */\n      dup1\n        /* \"#utility.yul\":1652:1658   */\n      0x00\n        /* \"#utility.yul\":1701:1703   */\n      0x60\n        /* \"#utility.yul\":1689:1698   */\n      dup5\n        /* \"#utility.yul\":1680:1687   */\n      dup7\n        /* \"#utility.yul\":1676:1699   */\n      sub\n        /* \"#utility.yul\":1672:1704   */\n      slt\n        /* \"#utility.yul\":1669:1788   */\n      iszero\n      tag_279\n      jumpi\n        /* \"#utility.yul\":1707:1786   */\n      tag_280\n      tag_276\n      jump\t// in\n    tag_280:\n        /* \"#utility.yul\":1669:1788   */\n    tag_279:\n        /* \"#utility.yul\":1827:1828   */\n      0x00\n        /* \"#utility.yul\":1852:1905   */\n      tag_281\n        /* \"#utility.yul\":1897:1904   */\n      dup7\n        /* \"#utility.yul\":1888:1894   */\n      dup3\n        /* \"#utility.yul\":1877:1886   */\n      dup8\n        /* \"#utility.yul\":1873:1895   */\n      add\n        /* \"#utility.yul\":1852:1905   */\n      tag_255\n      jump\t// in\n    tag_281:\n        /* \"#utility.yul\":1842:1905   */\n      swap4\n      pop\n        /* \"#utility.yul\":1798:1915   */\n      pop\n        /* \"#utility.yul\":1982:1984   */\n      0x20\n        /* \"#utility.yul\":1971:1980   */\n      dup5\n        /* \"#utility.yul\":1967:1985   */\n      add\n        /* \"#utility.yul\":1954:1986   */\n      calldataload\n        /* \"#utility.yul\":2013:2031   */\n      0xffffffffffffffff\n        /* \"#utility.yul\":2005:2011   */\n      dup2\n        /* \"#utility.yul\":2002:2032   */\n      gt\n        /* \"#utility.yul\":1999:2116   */\n      iszero\n      tag_282\n      jumpi\n        /* \"#utility.yul\":2035:2114   */\n      tag_283\n      tag_284\n      jump\t// in\n    tag_283:\n        /* \"#utility.yul\":1999:2116   */\n    tag_282:\n        /* \"#utility.yul\":2140:2203   */\n      tag_285\n        /* \"#utility.yul\":2195:2202   */\n      dup7\n        /* \"#utility.yul\":2186:2192   */\n      dup3\n        /* \"#utility.yul\":2175:2184   */\n      dup8\n        /* \"#utility.yul\":2171:2193   */\n      add\n        /* \"#utility.yul\":2140:2203   */\n      tag_263\n      jump\t// in\n    tag_285:\n        /* \"#utility.yul\":2130:2203   */\n      swap3\n      pop\n        /* \"#utility.yul\":1925:2213   */\n      pop\n        /* \"#utility.yul\":2252:2254   */\n      0x40\n        /* \"#utility.yul\":2278:2331   */\n      tag_286\n        /* \"#utility.yul\":2323:2330   */\n      dup7\n        /* \"#utility.yul\":2314:2320   */\n      dup3\n        /* \"#utility.yul\":2303:2312   */\n      dup8\n        /* \"#utility.yul\":2299:2321   */\n      add\n        /* \"#utility.yul\":2278:2331   */\n      tag_269\n      jump\t// in\n    tag_286:\n        /* \"#utility.yul\":2268:2331   */\n      swap2\n      pop\n        /* \"#utility.yul\":2223:2341   */\n      pop\n        /* \"#utility.yul\":1549:2348   */\n      swap3\n      pop\n      swap3\n      pop\n      swap3\n      jump\t// out\n        /* \"#utility.yul\":2354:2863   */\n    tag_92:\n        /* \"#utility.yul\":2423:2429   */\n      0x00\n        /* \"#utility.yul\":2472:2474   */\n      0x20\n        /* \"#utility.yul\":2460:2469   */\n      dup3\n        /* \"#utility.yul\":2451:2458   */\n      dup5\n        /* \"#utility.yul\":2447:2470   */\n      sub\n        /* \"#utility.yul\":2443:2475   */\n      slt\n        /* \"#utility.yul\":2440:2559   */\n      iszero\n      tag_288\n      jumpi\n        /* \"#utility.yul\":2478:2557   */\n      tag_289\n      tag_276\n      jump\t// in\n    tag_289:\n        /* \"#utility.yul\":2440:2559   */\n    tag_288:\n        /* \"#utility.yul\":2626:2627   */\n      0x00\n        /* \"#utility.yul\":2615:2624   */\n      dup3\n        /* \"#utility.yul\":2611:2628   */\n      add\n        /* \"#utility.yul\":2598:2629   */\n      calldataload\n        /* \"#utility.yul\":2656:2674   */\n      0xffffffffffffffff\n        /* \"#utility.yul\":2648:2654   */\n      dup2\n        /* \"#utility.yul\":2645:2675   */\n      gt\n        /* \"#utility.yul\":2642:2759   */\n      iszero\n      tag_290\n      jumpi\n        /* \"#utility.yul\":2678:2757   */\n      tag_291\n      tag_284\n      jump\t// in\n    tag_291:\n        /* \"#utility.yul\":2642:2759   */\n    tag_290:\n        /* \"#utility.yul\":2783:2846   */\n      tag_292\n        /* \"#utility.yul\":2838:2845   */\n      dup5\n        /* \"#utility.yul\":2829:2835   */\n      dup3\n        /* \"#utility.yul\":2818:2827   */\n      dup6\n        /* \"#utility.yul\":2814:2836   */\n      add\n        /* \"#utility.yul\":2783:2846   */\n      tag_263\n      jump\t// in\n    tag_292:\n        /* \"#utility.yul\":2773:2846   */\n      swap2\n      pop\n        /* \"#utility.yul\":2569:2856   */\n      pop\n        /* \"#utility.yul\":2354:2863   */\n      swap3\n      swap2\n      pop\n      pop\n      jump\t// out\n        /* \"#utility.yul\":2869:3198   */\n    tag_23:\n        /* \"#utility.yul\":2928:2934   */\n      0x00\n        /* \"#utility.yul\":2977:2979   */\n      0x20\n        /* \"#utility.yul\":2965:2974   */\n      dup3\n        /* \"#utility.yul\":2956:2963   */\n      dup5\n        /* \"#utility.yul\":2952:2975   */\n      sub\n        /* \"#utility.yul\":2948:2980   */\n      slt\n        /* \"#utility.yul\":2945:3064   */\n      iszero\n      tag_294\n      jumpi\n        /* \"#utility.yul\":2983:3062   */\n      tag_295\n      tag_276\n      jump\t// in\n    tag_295:\n        /* \"#utility.yul\":2945:3064   */\n    tag_294:\n        /* \"#utility.yul\":3103:3104   */\n      0x00\n        /* \"#utility.yul\":3128:3181   */\n      tag_296\n        /* \"#utility.yul\":3173:3180   */\n      dup5\n        /* \"#utility.yul\":3164:3170   */\n      dup3\n        /* \"#utility.yul\":3153:3162   */\n      dup6\n        /* \"#utility.yul\":3149:3171   */\n      add\n        /* \"#utility.yul\":3128:3181   */\n      tag_269\n      jump\t// in\n    tag_296:\n        /* \"#utility.yul\":3118:3181   */\n      swap2\n      pop\n        /* \"#utility.yul\":3074:3191   */\n      pop\n        /* \"#utility.yul\":2869:3198   */\n      swap3\n      swap2\n      pop\n      pop\n      jump\t// out\n        /* \"#utility.yul\":3204:3672   */\n    tag_75:\n        /* \"#utility.yul\":3269:3275   */\n      0x00\n        /* \"#utility.yul\":3277:3283   */\n      dup1\n        /* \"#utility.yul\":3326:3328   */\n      0x40\n        /* \"#utility.yul\":3314:3323   */\n      dup4\n        /* \"#utility.yul\":3305:3312   */\n      dup6\n        /* \"#utility.yul\":3301:3324   */\n      sub\n        /* \"#utility.yul\":3297:3329   */\n      slt\n        /* \"#utility.yul\":3294:3413   */\n      iszero\n      tag_298\n      jumpi\n        /* \"#utility.yul\":3332:3411   */\n      tag_299\n      tag_276\n      jump\t// in\n    tag_299:\n        /* \"#utility.yul\":3294:3413   */\n    tag_298:\n        /* \"#utility.yul\":3452:3453   */\n      0x00\n        /* \"#utility.yul\":3477:3530   */\n      tag_300\n        /* \"#utility.yul\":3522:3529   */\n      dup6\n        /* \"#utility.yul\":3513:3519   */\n      dup3\n        /* \"#utility.yul\":3502:3511   */\n      dup7\n        /* \"#utility.yul\":3498:3520   */\n      add\n        /* \"#utility.yul\":3477:3530   */\n      tag_269\n      jump\t// in\n    tag_300:\n        /* \"#utility.yul\":3467:3530   */\n      swap3\n      pop\n        /* \"#utility.yul\":3423:3540   */\n      pop\n        /* \"#utility.yul\":3579:3581   */\n      0x20\n        /* \"#utility.yul\":3605:3655   */\n      tag_301\n        /* \"#utility.yul\":3647:3654   */\n      dup6\n        /* \"#utility.yul\":3638:3644   */\n      dup3\n        /* \"#utility.yul\":3627:3636   */\n      dup7\n        /* \"#utility.yul\":3623:3645   */\n      add\n        /* \"#utility.yul\":3605:3655   */\n      tag_259\n      jump\t// in\n    tag_301:\n        /* \"#utility.yul\":3595:3655   */\n      swap2\n      pop\n        /* \"#utility.yul\":3550:3665   */\n      pop\n        /* \"#utility.yul\":3204:3672   */\n      swap3\n      pop\n      swap3\n      swap1\n      pop\n      jump\t// out\n        /* \"#utility.yul\":3678:4291   */\n    tag_82:\n        /* \"#utility.yul\":3752:3758   */\n      0x00\n        /* \"#utility.yul\":3760:3766   */\n      dup1\n        /* \"#utility.yul\":3768:3774   */\n      0x00\n        /* \"#utility.yul\":3817:3819   */\n      0x60\n        /* \"#utility.yul\":3805:3814   */\n      dup5\n        /* \"#utility.yul\":3796:3803   */\n      dup7\n        /* \"#utility.yul\":3792:3815   */\n      sub\n        /* \"#utility.yul\":3788:3820   */\n      slt\n        /* \"#utility.yul\":3785:3904   */\n      iszero\n      tag_303\n      jumpi\n        /* \"#utility.yul\":3823:3902   */\n      tag_304\n      tag_276\n      jump\t// in\n    tag_304:\n        /* \"#utility.yul\":3785:3904   */\n    tag_303:\n        /* \"#utility.yul\":3943:3944   */\n      0x00\n        /* \"#utility.yul\":3968:4021   */\n      tag_305\n        /* \"#utility.yul\":4013:4020   */\n      dup7\n        /* \"#utility.yul\":4004:4010   */\n      dup3\n        /* \"#utility.yul\":3993:4002   */\n      dup8\n        /* \"#utility.yul\":3989:4011   */\n      add\n        /* \"#utility.yul\":3968:4021   */\n      tag_269\n      jump\t// in\n    tag_305:\n        /* \"#utility.yul\":3958:4021   */\n      swap4\n      pop\n        /* \"#utility.yul\":3914:4031   */\n      pop\n        /* \"#utility.yul\":4070:4072   */\n      0x20\n        /* \"#utility.yul\":4096:4146   */\n      tag_306\n        /* \"#utility.yul\":4138:4145   */\n      dup7\n        /* \"#utility.yul\":4129:4135   */\n      dup3\n        /* \"#utility.yul\":4118:4127   */\n      dup8\n        /* \"#utility.yul\":4114:4136   */\n      add\n        /* \"#utility.yul\":4096:4146   */\n      tag_259\n      jump\t// in\n    tag_306:\n        /* \"#utility.yul\":4086:4146   */\n      swap3\n      pop\n        /* \"#utility.yul\":4041:4156   */\n      pop\n        /* \"#utility.yul\":4195:4197   */\n      0x40\n        /* \"#utility.yul\":4221:4274   */\n      tag_307\n        /* \"#utility.yul\":4266:4273   */\n      dup7\n        /* \"#utility.yul\":4257:4263   */\n      dup3\n        /* \"#utility.yul\":4246:4255   */\n      dup8\n        /* \"#utility.yul\":4242:4264   */\n      add\n        /* \"#utility.yul\":4221:4274   */\n      tag_269\n      jump\t// in\n    tag_307:\n        /* \"#utility.yul\":4211:4274   */\n      swap2\n      pop\n        /* \"#utility.yul\":4166:4284   */\n      pop\n        /* \"#utility.yul\":3678:4291   */\n      swap3\n      pop\n      swap3\n      pop\n      swap3\n      jump\t// out\n        /* \"#utility.yul\":4297:5568   */\n    tag_59:\n        /* \"#utility.yul\":4412:4418   */\n      0x00\n        /* \"#utility.yul\":4420:4426   */\n      dup1\n        /* \"#utility.yul\":4428:4434   */\n      0x00\n        /* \"#utility.yul\":4436:4442   */\n      dup1\n        /* \"#utility.yul\":4444:4450   */\n      0x00\n        /* \"#utility.yul\":4493:4496   */\n      0xa0\n        /* \"#utility.yul\":4481:4490   */\n      dup7\n        /* \"#utility.yul\":4472:4479   */\n      dup9\n        /* \"#utility.yul\":4468:4491   */\n      sub\n        /* \"#utility.yul\":4464:4497   */\n      slt\n        /* \"#utility.yul\":4461:4581   */\n      iszero\n      tag_309\n      jumpi\n        /* \"#utility.yul\":4500:4579   */\n      tag_310\n      tag_276\n      jump\t// in\n    tag_310:\n        /* \"#utility.yul\":4461:4581   */\n    tag_309:\n        /* \"#utility.yul\":4620:4621   */\n      0x00\n        /* \"#utility.yul\":4645:4698   */\n      tag_311\n        /* \"#utility.yul\":4690:4697   */\n      dup9\n        /* \"#utility.yul\":4681:4687   */\n      dup3\n        /* \"#utility.yul\":4670:4679   */\n      dup10\n        /* \"#utility.yul\":4666:4688   */\n      add\n        /* \"#utility.yul\":4645:4698   */\n      tag_269\n      jump\t// in\n    tag_311:\n        /* \"#utility.yul\":4635:4698   */\n      swap6\n      pop\n        /* \"#utility.yul\":4591:4708   */\n      pop\n        /* \"#utility.yul\":4775:4777   */\n      0x20\n        /* \"#utility.yul\":4764:4773   */\n      dup7\n        /* \"#utility.yul\":4760:4778   */\n      add\n        /* \"#utility.yul\":4747:4779   */\n      calldataload\n        /* \"#utility.yul\":4806:4824   */\n      0xffffffffffffffff\n        /* \"#utility.yul\":4798:4804   */\n      dup2\n        /* \"#utility.yul\":4795:4825   */\n      gt\n        /* \"#utility.yul\":4792:4909   */\n      iszero\n      tag_312\n      jumpi\n        /* \"#utility.yul\":4828:4907   */\n      tag_313\n      tag_284\n      jump\t// in\n    tag_313:\n        /* \"#utility.yul\":4792:4909   */\n    tag_312:\n        /* \"#utility.yul\":4933:4996   */\n      tag_314\n        /* \"#utility.yul\":4988:4995   */\n      dup9\n        /* \"#utility.yul\":4979:4985   */\n      dup3\n        /* \"#utility.yul\":4968:4977   */\n      dup10\n        /* \"#utility.yul\":4964:4986   */\n      add\n        /* \"#utility.yul\":4933:4996   */\n      tag_263\n      jump\t// in\n    tag_314:\n        /* \"#utility.yul\":4923:4996   */\n      swap5\n      pop\n        /* \"#utility.yul\":4718:5006   */\n      pop\n        /* \"#utility.yul\":5073:5075   */\n      0x40\n        /* \"#utility.yul\":5062:5071   */\n      dup7\n        /* \"#utility.yul\":5058:5076   */\n      add\n        /* \"#utility.yul\":5045:5077   */\n      calldataload\n        /* \"#utility.yul\":5104:5122   */\n      0xffffffffffffffff\n        /* \"#utility.yul\":5096:5102   */\n      dup2\n        /* \"#utility.yul\":5093:5123   */\n      gt\n        /* \"#utility.yul\":5090:5207   */\n      iszero\n      tag_315\n      jumpi\n        /* \"#utility.yul\":5126:5205   */\n      tag_316\n      tag_284\n      jump\t// in\n    tag_316:\n        /* \"#utility.yul\":5090:5207   */\n    tag_315:\n        /* \"#utility.yul\":5231:5294   */\n      tag_317\n        /* \"#utility.yul\":5286:5293   */\n      dup9\n        /* \"#utility.yul\":5277:5283   */\n      dup3\n        /* \"#utility.yul\":5266:5275   */\n      dup10\n        /* \"#utility.yul\":5262:5284   */\n      add\n        /* \"#utility.yul\":5231:5294   */\n      tag_263\n      jump\t// in\n    tag_317:\n        /* \"#utility.yul\":5221:5294   */\n      swap4\n      pop\n        /* \"#utility.yul\":5016:5304   */\n      pop\n        /* \"#utility.yul\":5343:5345   */\n      0x60\n        /* \"#utility.yul\":5369:5422   */\n      tag_318\n        /* \"#utility.yul\":5414:5421   */\n      dup9\n        /* \"#utility.yul\":5405:5411   */\n      dup3\n        /* \"#utility.yul\":5394:5403   */\n      dup10\n        /* \"#utility.yul\":5390:5412   */\n      add\n        /* \"#utility.yul\":5369:5422   */\n      tag_269\n      jump\t// in\n    tag_318:\n        /* \"#utility.yul\":5359:5422   */\n      swap3\n      pop\n        /* \"#utility.yul\":5314:5432   */\n      pop\n        /* \"#utility.yul\":5471:5474   */\n      0x80\n        /* \"#utility.yul\":5498:5551   */\n      tag_319\n        /* \"#utility.yul\":5543:5550   */\n      dup9\n        /* \"#utility.yul\":5534:5540   */\n      dup3\n        /* \"#utility.yul\":5523:5532   */\n      dup10\n        /* \"#utility.yul\":5519:5541   */\n      add\n        /* \"#utility.yul\":5498:5551   */\n      tag_269\n      jump\t// in\n    tag_319:\n        /* \"#utility.yul\":5488:5551   */\n      swap2\n      pop\n        /* \"#utility.yul\":5442:5561   */\n      pop\n        /* \"#utility.yul\":4297:5568   */\n      swap3\n      swap6\n      pop\n      swap3\n      swap6\n      swap1\n      swap4\n      pop\n      jump\t// out\n        /* \"#utility.yul\":5574:5753   */\n    tag_320:\n        /* \"#utility.yul\":5643:5653   */\n      0x00\n        /* \"#utility.yul\":5664:5710   */\n      tag_322\n        /* \"#utility.yul\":5706:5709   */\n      dup4\n        /* \"#utility.yul\":5698:5704   */\n      dup4\n        /* \"#utility.yul\":5664:5710   */\n      tag_323\n      jump\t// in\n    tag_322:\n        /* \"#utility.yul\":5742:5746   */\n      0x20\n        /* \"#utility.yul\":5737:5740   */\n      dup4\n        /* \"#utility.yul\":5733:5747   */\n      add\n        /* \"#utility.yul\":5719:5747   */\n      swap1\n      pop\n        /* \"#utility.yul\":5574:5753   */\n      swap3\n      swap2\n      pop\n      pop\n      jump\t// out\n        /* \"#utility.yul\":5759:5867   */\n    tag_323:\n        /* \"#utility.yul\":5836:5860   */\n      tag_325\n        /* \"#utility.yul\":5854:5859   */\n      dup2\n        /* \"#utility.yul\":5836:5860   */\n      tag_326\n      jump\t// in\n    tag_325:\n        /* \"#utility.yul\":5831:5834   */\n      dup3\n        /* \"#utility.yul\":5824:5861   */\n      mstore\n        /* \"#utility.yul\":5759:5867   */\n      pop\n      pop\n      jump\t// out\n        /* \"#utility.yul\":5903:6635   */\n    tag_327:\n        /* \"#utility.yul\":6022:6025   */\n      0x00\n        /* \"#utility.yul\":6051:6105   */\n      tag_329\n        /* \"#utility.yul\":6099:6104   */\n      dup3\n        /* \"#utility.yul\":6051:6105   */\n      tag_330\n      jump\t// in\n    tag_329:\n        /* \"#utility.yul\":6121:6207   */\n      tag_331\n        /* \"#utility.yul\":6200:6206   */\n      dup2\n        /* \"#utility.yul\":6195:6198   */\n      dup6\n        /* \"#utility.yul\":6121:6207   */\n      tag_332\n      jump\t// in\n    tag_331:\n        /* \"#utility.yul\":6114:6207   */\n      swap4\n      pop\n        /* \"#utility.yul\":6231:6287   */\n      tag_333\n        /* \"#utility.yul\":6281:6286   */\n      dup4\n        /* \"#utility.yul\":6231:6287   */\n      tag_334\n      jump\t// in\n    tag_333:\n        /* \"#utility.yul\":6310:6317   */\n      dup1\n        /* \"#utility.yul\":6341:6342   */\n      0x00\n        /* \"#utility.yul\":6326:6610   */\n    tag_335:\n        /* \"#utility.yul\":6351:6357   */\n      dup4\n        /* \"#utility.yul\":6348:6349   */\n      dup2\n        /* \"#utility.yul\":6345:6358   */\n      lt\n        /* \"#utility.yul\":6326:6610   */\n      iszero\n      tag_337\n      jumpi\n        /* \"#utility.yul\":6427:6433   */\n      dup2\n        /* \"#utility.yul\":6421:6434   */\n      mload\n        /* \"#utility.yul\":6454:6517   */\n      tag_338\n        /* \"#utility.yul\":6513:6516   */\n      dup9\n        /* \"#utility.yul\":6498:6511   */\n      dup3\n        /* \"#utility.yul\":6454:6517   */\n      tag_320\n      jump\t// in\n    tag_338:\n        /* \"#utility.yul\":6447:6517   */\n      swap8\n      pop\n        /* \"#utility.yul\":6540:6600   */\n      tag_339\n        /* \"#utility.yul\":6593:6599   */\n      dup4\n        /* \"#utility.yul\":6540:6600   */\n      tag_340\n      jump\t// in\n    tag_339:\n        /* \"#utility.yul\":6530:6600   */\n      swap3\n      pop\n        /* \"#utility.yul\":6386:6610   */\n      pop\n        /* \"#utility.yul\":6373:6374   */\n      0x01\n        /* \"#utility.yul\":6370:6371   */\n      dup2\n        /* \"#utility.yul\":6366:6375   */\n      add\n        /* \"#utility.yul\":6361:6375   */\n      swap1\n      pop\n        /* \"#utility.yul\":6326:6610   */\n      jump(tag_335)\n    tag_337:\n        /* \"#utility.yul\":6330:6344   */\n      pop\n        /* \"#utility.yul\":6626:6629   */\n      dup6\n        /* \"#utility.yul\":6619:6629   */\n      swap4\n      pop\n        /* \"#utility.yul\":6027:6635   */\n      pop\n      pop\n      pop\n        /* \"#utility.yul\":5903:6635   */\n      swap3\n      swap2\n      pop\n      pop\n      jump\t// out\n        /* \"#utility.yul\":6641:6750   */\n    tag_341:\n        /* \"#utility.yul\":6722:6743   */\n      tag_343\n        /* \"#utility.yul\":6737:6742   */\n      dup2\n        /* \"#utility.yul\":6722:6743   */\n      tag_344\n      jump\t// in\n    tag_343:\n        /* \"#utility.yul\":6717:6720   */\n      dup3\n        /* \"#utility.yul\":6710:6744   */\n      mstore\n        /* \"#utility.yul\":6641:6750   */\n      pop\n      pop\n      jump\t// out\n        /* \"#utility.yul\":6756:7120   */\n    tag_345:\n        /* \"#utility.yul\":6844:6847   */\n      0x00\n        /* \"#utility.yul\":6872:6911   */\n      tag_347\n        /* \"#utility.yul\":6905:6910   */\n      dup3\n        /* \"#utility.yul\":6872:6911   */\n      tag_348\n      jump\t// in\n    tag_347:\n        /* \"#utility.yul\":6927:6998   */\n      tag_349\n        /* \"#utility.yul\":6991:6997   */\n      dup2\n        /* \"#utility.yul\":6986:6989   */\n      dup6\n        /* \"#utility.yul\":6927:6998   */\n      tag_350\n      jump\t// in\n    tag_349:\n        /* \"#utility.yul\":6920:6998   */\n      swap4\n      pop\n        /* \"#utility.yul\":7007:7059   */\n      tag_351\n        /* \"#utility.yul\":7052:7058   */\n      dup2\n        /* \"#utility.yul\":7047:7050   */\n      dup6\n        /* \"#utility.yul\":7040:7044   */\n      0x20\n        /* \"#utility.yul\":7033:7038   */\n      dup7\n        /* \"#utility.yul\":7029:7045   */\n      add\n        /* \"#utility.yul\":7007:7059   */\n      tag_352\n      jump\t// in\n    tag_351:\n        /* \"#utility.yul\":7084:7113   */\n      tag_353\n        /* \"#utility.yul\":7106:7112   */\n      dup2\n        /* \"#utility.yul\":7084:7113   */\n      tag_354\n      jump\t// in\n    tag_353:\n        /* \"#utility.yul\":7079:7082   */\n      dup5\n        /* \"#utility.yul\":7075:7114   */\n      add\n        /* \"#utility.yul\":7068:7114   */\n      swap2\n      pop\n        /* \"#utility.yul\":6848:7120   */\n      pop\n        /* \"#utility.yul\":6756:7120   */\n      swap3\n      swap2\n      pop\n      pop\n      jump\t// out\n        /* \"#utility.yul\":7150:7995   */\n    tag_355:\n        /* \"#utility.yul\":7253:7256   */\n      0x00\n        /* \"#utility.yul\":7290:7295   */\n      dup2\n        /* \"#utility.yul\":7284:7296   */\n      sload\n        /* \"#utility.yul\":7319:7355   */\n      tag_357\n        /* \"#utility.yul\":7345:7354   */\n      dup2\n        /* \"#utility.yul\":7319:7355   */\n      tag_104\n      jump\t// in\n    tag_357:\n        /* \"#utility.yul\":7371:7460   */\n      tag_358\n        /* \"#utility.yul\":7453:7459   */\n      dup2\n        /* \"#utility.yul\":7448:7451   */\n      dup7\n        /* \"#utility.yul\":7371:7460   */\n      tag_359\n      jump\t// in\n    tag_358:\n        /* \"#utility.yul\":7364:7460   */\n      swap5\n      pop\n        /* \"#utility.yul\":7491:7492   */\n      0x01\n        /* \"#utility.yul\":7480:7489   */\n      dup3\n        /* \"#utility.yul\":7476:7493   */\n      and\n        /* \"#utility.yul\":7507:7508   */\n      0x00\n        /* \"#utility.yul\":7502:7639   */\n      dup2\n      eq\n      tag_361\n      jumpi\n        /* \"#utility.yul\":7653:7654   */\n      0x01\n        /* \"#utility.yul\":7648:7989   */\n      dup2\n      eq\n      tag_362\n      jumpi\n        /* \"#utility.yul\":7469:7989   */\n      jump(tag_360)\n        /* \"#utility.yul\":7502:7639   */\n    tag_361:\n        /* \"#utility.yul\":7586:7590   */\n      0xff\n        /* \"#utility.yul\":7582:7591   */\n      not\n        /* \"#utility.yul\":7571:7580   */\n      dup4\n        /* \"#utility.yul\":7567:7592   */\n      and\n        /* \"#utility.yul\":7562:7565   */\n      dup7\n        /* \"#utility.yul\":7555:7593   */\n      mstore\n        /* \"#utility.yul\":7622:7628   */\n      dup2\n        /* \"#utility.yul\":7617:7620   */\n      dup7\n        /* \"#utility.yul\":7613:7629   */\n      add\n        /* \"#utility.yul\":7606:7629   */\n      swap4\n      pop\n        /* \"#utility.yul\":7502:7639   */\n      jump(tag_360)\n        /* \"#utility.yul\":7648:7989   */\n    tag_362:\n        /* \"#utility.yul\":7715:7753   */\n      tag_363\n        /* \"#utility.yul\":7747:7752   */\n      dup6\n        /* \"#utility.yul\":7715:7753   */\n      tag_364\n      jump\t// in\n    tag_363:\n        /* \"#utility.yul\":7775:7776   */\n      0x00\n        /* \"#utility.yul\":7789:7943   */\n    tag_365:\n        /* \"#utility.yul\":7803:7809   */\n      dup4\n        /* \"#utility.yul\":7800:7801   */\n      dup2\n        /* \"#utility.yul\":7797:7810   */\n      lt\n        /* \"#utility.yul\":7789:7943   */\n      iszero\n      tag_367\n      jumpi\n        /* \"#utility.yul\":7877:7884   */\n      dup2\n        /* \"#utility.yul\":7871:7885   */\n      sload\n        /* \"#utility.yul\":7867:7868   */\n      dup2\n        /* \"#utility.yul\":7862:7865   */\n      dup10\n        /* \"#utility.yul\":7858:7869   */\n      add\n        /* \"#utility.yul\":7851:7886   */\n      mstore\n        /* \"#utility.yul\":7927:7928   */\n      0x01\n        /* \"#utility.yul\":7918:7925   */\n      dup3\n        /* \"#utility.yul\":7914:7929   */\n      add\n        /* \"#utility.yul\":7903:7929   */\n      swap2\n      pop\n        /* \"#utility.yul\":7825:7829   */\n      0x20\n        /* \"#utility.yul\":7822:7823   */\n      dup2\n        /* \"#utility.yul\":7818:7830   */\n      add\n        /* \"#utility.yul\":7813:7830   */\n      swap1\n      pop\n        /* \"#utility.yul\":7789:7943   */\n      jump(tag_365)\n    tag_367:\n        /* \"#utility.yul\":7972:7978   */\n      dup4\n        /* \"#utility.yul\":7967:7970   */\n      dup9\n        /* \"#utility.yul\":7963:7979   */\n      add\n        /* \"#utility.yul\":7956:7979   */\n      swap6\n      pop\n        /* \"#utility.yul\":7655:7989   */\n      pop\n      pop\n        /* \"#utility.yul\":7469:7989   */\n    tag_360:\n      pop\n        /* \"#utility.yul\":7257:7995   */\n      pop\n      pop\n        /* \"#utility.yul\":7150:7995   */\n      swap3\n      swap2\n      pop\n      pop\n      jump\t// out\n        /* \"#utility.yul\":8001:8367   */\n    tag_368:\n        /* \"#utility.yul\":8143:8146   */\n      0x00\n        /* \"#utility.yul\":8164:8231   */\n      tag_370\n        /* \"#utility.yul\":8228:8230   */\n      0x0c\n        /* \"#utility.yul\":8223:8226   */\n      dup4\n        /* \"#utility.yul\":8164:8231   */\n      tag_350\n      jump\t// in\n    tag_370:\n        /* \"#utility.yul\":8157:8231   */\n      swap2\n      pop\n        /* \"#utility.yul\":8240:8333   */\n      tag_371\n        /* \"#utility.yul\":8329:8332   */\n      dup3\n        /* \"#utility.yul\":8240:8333   */\n      tag_372\n      jump\t// in\n    tag_371:\n        /* \"#utility.yul\":8358:8360   */\n      0x20\n        /* \"#utility.yul\":8353:8356   */\n      dup3\n        /* \"#utility.yul\":8349:8361   */\n      add\n        /* \"#utility.yul\":8342:8361   */\n      swap1\n      pop\n        /* \"#utility.yul\":8001:8367   */\n      swap2\n      swap1\n      pop\n      jump\t// out\n        /* \"#utility.yul\":8373:8773   */\n    tag_373:\n        /* \"#utility.yul\":8533:8536   */\n      0x00\n        /* \"#utility.yul\":8554:8638   */\n      tag_375\n        /* \"#utility.yul\":8636:8637   */\n      0x00\n        /* \"#utility.yul\":8631:8634   */\n      dup4\n        /* \"#utility.yul\":8554:8638   */\n      tag_359\n      jump\t// in\n    tag_375:\n        /* \"#utility.yul\":8547:8638   */\n      swap2\n      pop\n        /* \"#utility.yul\":8647:8740   */\n      tag_376\n        /* \"#utility.yul\":8736:8739   */\n      dup3\n        /* \"#utility.yul\":8647:8740   */\n      tag_377\n      jump\t// in\n    tag_376:\n        /* \"#utility.yul\":8765:8766   */\n      0x00\n        /* \"#utility.yul\":8760:8763   */\n      dup3\n        /* \"#utility.yul\":8756:8767   */\n      add\n        /* \"#utility.yul\":8749:8767   */\n      swap1\n      pop\n        /* \"#utility.yul\":8373:8773   */\n      swap2\n      swap1\n      pop\n      jump\t// out\n        /* \"#utility.yul\":8779:8897   */\n    tag_378:\n        /* \"#utility.yul\":8866:8890   */\n      tag_380\n        /* \"#utility.yul\":8884:8889   */\n      dup2\n        /* \"#utility.yul\":8866:8890   */\n      tag_381\n      jump\t// in\n    tag_380:\n        /* \"#utility.yul\":8861:8864   */\n      dup3\n        /* \"#utility.yul\":8854:8891   */\n      mstore\n        /* \"#utility.yul\":8779:8897   */\n      pop\n      pop\n      jump\t// out\n        /* \"#utility.yul\":8903:9172   */\n    tag_123:\n        /* \"#utility.yul\":9032:9035   */\n      0x00\n        /* \"#utility.yul\":9054:9146   */\n      tag_383\n        /* \"#utility.yul\":9142:9145   */\n      dup3\n        /* \"#utility.yul\":9133:9139   */\n      dup5\n        /* \"#utility.yul\":9054:9146   */\n      tag_355\n      jump\t// in\n    tag_383:\n        /* \"#utility.yul\":9047:9146   */\n      swap2\n      pop\n        /* \"#utility.yul\":9163:9166   */\n      dup2\n        /* \"#utility.yul\":9156:9166   */\n      swap1\n      pop\n        /* \"#utility.yul\":8903:9172   */\n      swap3\n      swap2\n      pop\n      pop\n      jump\t// out\n        /* \"#utility.yul\":9178:9559   */\n    tag_121:\n        /* \"#utility.yul\":9363:9366   */\n      0x00\n        /* \"#utility.yul\":9385:9533   */\n      tag_385\n        /* \"#utility.yul\":9529:9532   */\n      dup3\n        /* \"#utility.yul\":9385:9533   */\n      tag_373\n      jump\t// in\n    tag_385:\n        /* \"#utility.yul\":9378:9533   */\n      swap2\n      pop\n        /* \"#utility.yul\":9550:9553   */\n      dup2\n        /* \"#utility.yul\":9543:9553   */\n      swap1\n      pop\n        /* \"#utility.yul\":9178:9559   */\n      swap2\n      swap1\n      pop\n      jump\t// out\n        /* \"#utility.yul\":9565:9938   */\n    tag_45:\n        /* \"#utility.yul\":9708:9712   */\n      0x00\n        /* \"#utility.yul\":9746:9748   */\n      0x20\n        /* \"#utility.yul\":9735:9744   */\n      dup3\n        /* \"#utility.yul\":9731:9749   */\n      add\n        /* \"#utility.yul\":9723:9749   */\n      swap1\n      pop\n        /* \"#utility.yul\":9795:9804   */\n      dup2\n        /* \"#utility.yul\":9789:9793   */\n      dup2\n        /* \"#utility.yul\":9785:9805   */\n      sub\n        /* \"#utility.yul\":9781:9782   */\n      0x00\n        /* \"#utility.yul\":9770:9779   */\n      dup4\n        /* \"#utility.yul\":9766:9783   */\n      add\n        /* \"#utility.yul\":9759:9806   */\n      mstore\n        /* \"#utility.yul\":9823:9931   */\n      tag_387\n        /* \"#utility.yul\":9926:9930   */\n      dup2\n        /* \"#utility.yul\":9917:9923   */\n      dup5\n        /* \"#utility.yul\":9823:9931   */\n      tag_327\n      jump\t// in\n    tag_387:\n        /* \"#utility.yul\":9815:9931   */\n      swap1\n      pop\n        /* \"#utility.yul\":9565:9938   */\n      swap3\n      swap2\n      pop\n      pop\n      jump\t// out\n        /* \"#utility.yul\":9944:10154   */\n    tag_71:\n        /* \"#utility.yul\":10031:10035   */\n      0x00\n        /* \"#utility.yul\":10069:10071   */\n      0x20\n        /* \"#utility.yul\":10058:10067   */\n      dup3\n        /* \"#utility.yul\":10054:10072   */\n      add\n        /* \"#utility.yul\":10046:10072   */\n      swap1\n      pop\n        /* \"#utility.yul\":10082:10147   */\n      tag_389\n        /* \"#utility.yul\":10144:10145   */\n      0x00\n        /* \"#utility.yul\":10133:10142   */\n      dup4\n        /* \"#utility.yul\":10129:10146   */\n      add\n        /* \"#utility.yul\":10120:10126   */\n      dup5\n        /* \"#utility.yul\":10082:10147   */\n      tag_341\n      jump\t// in\n    tag_389:\n        /* \"#utility.yul\":9944:10154   */\n      swap3\n      swap2\n      pop\n      pop\n      jump\t// out\n        /* \"#utility.yul\":10160:10473   */\n    tag_26:\n        /* \"#utility.yul\":10273:10277   */\n      0x00\n        /* \"#utility.yul\":10311:10313   */\n      0x20\n        /* \"#utility.yul\":10300:10309   */\n      dup3\n        /* \"#utility.yul\":10296:10314   */\n      add\n        /* \"#utility.yul\":10288:10314   */\n      swap1\n      pop\n        /* \"#utility.yul\":10360:10369   */\n      dup2\n        /* \"#utility.yul\":10354:10358   */\n      dup2\n        /* \"#utility.yul\":10350:10370   */\n      sub\n        /* \"#utility.yul\":10346:10347   */\n      0x00\n        /* \"#utility.yul\":10335:10344   */\n      dup4\n        /* \"#utility.yul\":10331:10348   */\n      add\n        /* \"#utility.yul\":10324:10371   */\n      mstore\n        /* \"#utility.yul\":10388:10466   */\n      tag_391\n        /* \"#utility.yul\":10461:10465   */\n      dup2\n        /* \"#utility.yul\":10452:10458   */\n      dup5\n        /* \"#utility.yul\":10388:10466   */\n      tag_345\n      jump\t// in\n    tag_391:\n        /* \"#utility.yul\":10380:10466   */\n      swap1\n      pop\n        /* \"#utility.yul\":10160:10473   */\n      swap3\n      swap2\n      pop\n      pop\n      jump\t// out\n        /* \"#utility.yul\":10479:10898   */\n    tag_100:\n        /* \"#utility.yul\":10645:10649   */\n      0x00\n        /* \"#utility.yul\":10683:10685   */\n      0x20\n        /* \"#utility.yul\":10672:10681   */\n      dup3\n        /* \"#utility.yul\":10668:10686   */\n      add\n        /* \"#utility.yul\":10660:10686   */\n      swap1\n      pop\n        /* \"#utility.yul\":10732:10741   */\n      dup2\n        /* \"#utility.yul\":10726:10730   */\n      dup2\n        /* \"#utility.yul\":10722:10742   */\n      sub\n        /* \"#utility.yul\":10718:10719   */\n      0x00\n        /* \"#utility.yul\":10707:10716   */\n      dup4\n        /* \"#utility.yul\":10703:10720   */\n      add\n        /* \"#utility.yul\":10696:10743   */\n      mstore\n        /* \"#utility.yul\":10760:10891   */\n      tag_393\n        /* \"#utility.yul\":10886:10890   */\n      dup2\n        /* \"#utility.yul\":10760:10891   */\n      tag_368\n      jump\t// in\n    tag_393:\n        /* \"#utility.yul\":10752:10891   */\n      swap1\n      pop\n        /* \"#utility.yul\":10479:10898   */\n      swap2\n      swap1\n      pop\n      jump\t// out\n        /* \"#utility.yul\":10904:11126   */\n    tag_31:\n        /* \"#utility.yul\":10997:11001   */\n      0x00\n        /* \"#utility.yul\":11035:11037   */\n      0x20\n        /* \"#utility.yul\":11024:11033   */\n      dup3\n        /* \"#utility.yul\":11020:11038   */\n      add\n        /* \"#utility.yul\":11012:11038   */\n      swap1\n      pop\n        /* \"#utility.yul\":11048:11119   */\n      tag_395\n        /* \"#utility.yul\":11116:11117   */\n      0x00\n        /* \"#utility.yul\":11105:11114   */\n      dup4\n        /* \"#utility.yul\":11101:11118   */\n      add\n        /* \"#utility.yul\":11092:11098   */\n      dup5\n        /* \"#utility.yul\":11048:11119   */\n      tag_378\n      jump\t// in\n    tag_395:\n        /* \"#utility.yul\":10904:11126   */\n      swap3\n      swap2\n      pop\n      pop\n      jump\t// out\n        /* \"#utility.yul\":11132:11261   */\n    tag_249:\n        /* \"#utility.yul\":11166:11172   */\n      0x00\n        /* \"#utility.yul\":11193:11213   */\n      tag_397\n      tag_398\n      jump\t// in\n    tag_397:\n        /* \"#utility.yul\":11183:11213   */\n      swap1\n      pop\n        /* \"#utility.yul\":11222:11255   */\n      tag_399\n        /* \"#utility.yul\":11250:11254   */\n      dup3\n        /* \"#utility.yul\":11242:11248   */\n      dup3\n        /* \"#utility.yul\":11222:11255   */\n      tag_400\n      jump\t// in\n    tag_399:\n        /* \"#utility.yul\":11132:11261   */\n      swap2\n      swap1\n      pop\n      jump\t// out\n        /* \"#utility.yul\":11267:11342   */\n    tag_398:\n        /* \"#utility.yul\":11300:11306   */\n      0x00\n        /* \"#utility.yul\":11333:11335   */\n      0x40\n        /* \"#utility.yul\":11327:11336   */\n      mload\n        /* \"#utility.yul\":11317:11336   */\n      swap1\n      pop\n        /* \"#utility.yul\":11267:11342   */\n      swap1\n      jump\t// out\n        /* \"#utility.yul\":11348:11656   */\n    tag_248:\n        /* \"#utility.yul\":11410:11414   */\n      0x00\n        /* \"#utility.yul\":11500:11518   */\n      0xffffffffffffffff\n        /* \"#utility.yul\":11492:11498   */\n      dup3\n        /* \"#utility.yul\":11489:11519   */\n      gt\n        /* \"#utility.yul\":11486:11542   */\n      iszero\n      tag_403\n      jumpi\n        /* \"#utility.yul\":11522:11540   */\n      tag_404\n      tag_202\n      jump\t// in\n    tag_404:\n        /* \"#utility.yul\":11486:11542   */\n    tag_403:\n        /* \"#utility.yul\":11560:11589   */\n      tag_405\n        /* \"#utility.yul\":11582:11588   */\n      dup3\n        /* \"#utility.yul\":11560:11589   */\n      tag_354\n      jump\t// in\n    tag_405:\n        /* \"#utility.yul\":11552:11589   */\n      swap1\n      pop\n        /* \"#utility.yul\":11644:11648   */\n      0x20\n        /* \"#utility.yul\":11638:11642   */\n      dup2\n        /* \"#utility.yul\":11634:11649   */\n      add\n        /* \"#utility.yul\":11626:11649   */\n      swap1\n      pop\n        /* \"#utility.yul\":11348:11656   */\n      swap2\n      swap1\n      pop\n      jump\t// out\n        /* \"#utility.yul\":11662:11794   */\n    tag_334:\n        /* \"#utility.yul\":11729:11733   */\n      0x00\n        /* \"#utility.yul\":11752:11755   */\n      dup2\n        /* \"#utility.yul\":11744:11755   */\n      swap1\n      pop\n        /* \"#utility.yul\":11782:11786   */\n      0x20\n        /* \"#utility.yul\":11777:11780   */\n      dup3\n        /* \"#utility.yul\":11773:11787   */\n      add\n        /* \"#utility.yul\":11765:11787   */\n      swap1\n      pop\n        /* \"#utility.yul\":11662:11794   */\n      swap2\n      swap1\n      pop\n      jump\t// out\n        /* \"#utility.yul\":11800:11941   */\n    tag_364:\n        /* \"#utility.yul\":11849:11853   */\n      0x00\n        /* \"#utility.yul\":11872:11875   */\n      dup2\n        /* \"#utility.yul\":11864:11875   */\n      swap1\n      pop\n        /* \"#utility.yul\":11895:11898   */\n      dup2\n        /* \"#utility.yul\":11892:11893   */\n      0x00\n        /* \"#utility.yul\":11885:11899   */\n      mstore\n        /* \"#utility.yul\":11929:11933   */\n      0x20\n        /* \"#utility.yul\":11926:11927   */\n      0x00\n        /* \"#utility.yul\":11916:11934   */\n      keccak256\n        /* \"#utility.yul\":11908:11934   */\n      swap1\n      pop\n        /* \"#utility.yul\":11800:11941   */\n      swap2\n      swap1\n      pop\n      jump\t// out\n        /* \"#utility.yul\":11947:12061   */\n    tag_330:\n        /* \"#utility.yul\":12014:12020   */\n      0x00\n        /* \"#utility.yul\":12048:12053   */\n      dup2\n        /* \"#utility.yul\":12042:12054   */\n      mload\n        /* \"#utility.yul\":12032:12054   */\n      swap1\n      pop\n        /* \"#utility.yul\":11947:12061   */\n      swap2\n      swap1\n      pop\n      jump\t// out\n        /* \"#utility.yul\":12067:12166   */\n    tag_348:\n        /* \"#utility.yul\":12119:12125   */\n      0x00\n        /* \"#utility.yul\":12153:12158   */\n      dup2\n        /* \"#utility.yul\":12147:12159   */\n      mload\n        /* \"#utility.yul\":12137:12159   */\n      swap1\n      pop\n        /* \"#utility.yul\":12067:12166   */\n      swap2\n      swap1\n      pop\n      jump\t// out\n        /* \"#utility.yul\":12172:12285   */\n    tag_340:\n        /* \"#utility.yul\":12242:12246   */\n      0x00\n        /* \"#utility.yul\":12274:12278   */\n      0x20\n        /* \"#utility.yul\":12269:12272   */\n      dup3\n        /* \"#utility.yul\":12265:12279   */\n      add\n        /* \"#utility.yul\":12257:12279   */\n      swap1\n      pop\n        /* \"#utility.yul\":12172:12285   */\n      swap2\n      swap1\n      pop\n      jump\t// out\n        /* \"#utility.yul\":12291:12475   */\n    tag_332:\n        /* \"#utility.yul\":12390:12401   */\n      0x00\n        /* \"#utility.yul\":12424:12430   */\n      dup3\n        /* \"#utility.yul\":12419:12422   */\n      dup3\n        /* \"#utility.yul\":12412:12431   */\n      mstore\n        /* \"#utility.yul\":12464:12468   */\n      0x20\n        /* \"#utility.yul\":12459:12462   */\n      dup3\n        /* \"#utility.yul\":12455:12469   */\n      add\n        /* \"#utility.yul\":12440:12469   */\n      swap1\n      pop\n        /* \"#utility.yul\":12291:12475   */\n      swap3\n      swap2\n      pop\n      pop\n      jump\t// out\n        /* \"#utility.yul\":12481:12650   */\n    tag_350:\n        /* \"#utility.yul\":12565:12576   */\n      0x00\n        /* \"#utility.yul\":12599:12605   */\n      dup3\n        /* \"#utility.yul\":12594:12597   */\n      dup3\n        /* \"#utility.yul\":12587:12606   */\n      mstore\n        /* \"#utility.yul\":12639:12643   */\n      0x20\n        /* \"#utility.yul\":12634:12637   */\n      dup3\n        /* \"#utility.yul\":12630:12644   */\n      add\n        /* \"#utility.yul\":12615:12644   */\n      swap1\n      pop\n        /* \"#utility.yul\":12481:12650   */\n      swap3\n      swap2\n      pop\n      pop\n      jump\t// out\n        /* \"#utility.yul\":12656:12804   */\n    tag_359:\n        /* \"#utility.yul\":12758:12769   */\n      0x00\n        /* \"#utility.yul\":12795:12798   */\n      dup2\n        /* \"#utility.yul\":12780:12798   */\n      swap1\n      pop\n        /* \"#utility.yul\":12656:12804   */\n      swap3\n      swap2\n      pop\n      pop\n      jump\t// out\n        /* \"#utility.yul\":12810:13115   */\n    tag_118:\n        /* \"#utility.yul\":12850:12853   */\n      0x00\n        /* \"#utility.yul\":12869:12889   */\n      tag_415\n        /* \"#utility.yul\":12887:12888   */\n      dup3\n        /* \"#utility.yul\":12869:12889   */\n      tag_381\n      jump\t// in\n    tag_415:\n        /* \"#utility.yul\":12864:12889   */\n      swap2\n      pop\n        /* \"#utility.yul\":12903:12923   */\n      tag_416\n        /* \"#utility.yul\":12921:12922   */\n      dup4\n        /* \"#utility.yul\":12903:12923   */\n      tag_381\n      jump\t// in\n    tag_416:\n        /* \"#utility.yul\":12898:12923   */\n      swap3\n      pop\n        /* \"#utility.yul\":13057:13058   */\n      dup3\n        /* \"#utility.yul\":12989:13055   */\n      0xffffffffffffffffffffffffffffffffffffffffffffffffffffffffffffffff\n        /* \"#utility.yul\":12985:13059   */\n      sub\n        /* \"#utility.yul\":12982:12983   */\n      dup3\n        /* \"#utility.yul\":12979:13060   */\n      gt\n        /* \"#utility.yul\":12976:13083   */\n      iszero\n      tag_417\n      jumpi\n        /* \"#utility.yul\":13063:13081   */\n      tag_418\n      tag_419\n      jump\t// in\n    tag_418:\n        /* \"#utility.yul\":12976:13083   */\n    tag_417:\n        /* \"#utility.yul\":13107:13108   */\n      dup3\n        /* \"#utility.yul\":13104:13105   */\n      dup3\n        /* \"#utility.yul\":13100:13109   */\n      add\n        /* \"#utility.yul\":13093:13109   */\n      swap1\n      pop\n        /* \"#utility.yul\":12810:13115   */\n      swap3\n      swap2\n      pop\n      pop\n      jump\t// out\n        /* \"#utility.yul\":13121:13312   */\n    tag_164:\n        /* \"#utility.yul\":13161:13165   */\n      0x00\n        /* \"#utility.yul\":13181:13201   */\n      tag_421\n        /* \"#utility.yul\":13199:13200   */\n      dup3\n        /* \"#utility.yul\":13181:13201   */\n      tag_381\n      jump\t// in\n    tag_421:\n        /* \"#utility.yul\":13176:13201   */\n      swap2\n      pop\n        /* \"#utility.yul\":13215:13235   */\n      tag_422\n        /* \"#utility.yul\":13233:13234   */\n      dup4\n        /* \"#utility.yul\":13215:13235   */\n      tag_381\n      jump\t// in\n    tag_422:\n        /* \"#utility.yul\":13210:13235   */\n      swap3\n      pop\n        /* \"#utility.yul\":13254:13255   */\n      dup3\n        /* \"#utility.yul\":13251:13252   */\n      dup3\n        /* \"#utility.yul\":13248:13256   */\n      lt\n        /* \"#utility.yul\":13245:13279   */\n      iszero\n      tag_423\n      jumpi\n        /* \"#utility.yul\":13259:13277   */\n      tag_424\n      tag_419\n      jump\t// in\n    tag_424:\n        /* \"#utility.yul\":13245:13279   */\n    tag_423:\n        /* \"#utility.yul\":13304:13305   */\n      dup3\n        /* \"#utility.yul\":13301:13302   */\n      dup3\n        /* \"#utility.yul\":13297:13306   */\n      sub\n        /* \"#utility.yul\":13289:13306   */\n      swap1\n      pop\n        /* \"#utility.yul\":13121:13312   */\n      swap3\n      swap2\n      pop\n      pop\n      jump\t// out\n        /* \"#utility.yul\":13318:13414   */\n    tag_326:\n        /* \"#utility.yul\":13355:13362   */\n      0x00\n        /* \"#utility.yul\":13384:13408   */\n      tag_426\n        /* \"#utility.yul\":13402:13407   */\n      dup3\n        /* \"#utility.yul\":13384:13408   */\n      tag_427\n      jump\t// in\n    tag_426:\n        /* \"#utility.yul\":13373:13408   */\n      swap1\n      pop\n        /* \"#utility.yul\":13318:13414   */\n      swap2\n      swap1\n      pop\n      jump\t// out\n        /* \"#utility.yul\":13420:13510   */\n    tag_344:\n        /* \"#utility.yul\":13454:13461   */\n      0x00\n        /* \"#utility.yul\":13497:13502   */\n      dup2\n        /* \"#utility.yul\":13490:13503   */\n      iszero\n        /* \"#utility.yul\":13483:13504   */\n      iszero\n        /* \"#utility.yul\":13472:13504   */\n      swap1\n      pop\n        /* \"#utility.yul\":13420:13510   */\n      swap2\n      swap1\n      pop\n      jump\t// out\n        /* \"#utility.yul\":13516:13642   */\n    tag_427:\n        /* \"#utility.yul\":13553:13560   */\n      0x00\n        /* \"#utility.yul\":13593:13635   */\n      0xffffffffffffffffffffffffffffffffffffffff\n        /* \"#utility.yul\":13586:13591   */\n      dup3\n        /* \"#utility.yul\":13582:13636   */\n      and\n        /* \"#utility.yul\":13571:13636   */\n      swap1\n      pop\n        /* \"#utility.yul\":13516:13642   */\n      swap2\n      swap1\n      pop\n      jump\t// out\n        /* \"#utility.yul\":13648:13725   */\n    tag_381:\n        /* \"#utility.yul\":13685:13692   */\n      0x00\n        /* \"#utility.yul\":13714:13719   */\n      dup2\n        /* \"#utility.yul\":13703:13719   */\n      swap1\n      pop\n        /* \"#utility.yul\":13648:13725   */\n      swap2\n      swap1\n      pop\n      jump\t// out\n        /* \"#utility.yul\":13731:13885   */\n    tag_254:\n        /* \"#utility.yul\":13815:13821   */\n      dup3\n        /* \"#utility.yul\":13810:13813   */\n      dup2\n        /* \"#utility.yul\":13805:13808   */\n      dup4\n        /* \"#utility.yul\":13792:13822   */\n      calldatacopy\n        /* \"#utility.yul\":13877:13878   */\n      0x00\n        /* \"#utility.yul\":13868:13874   */\n      dup4\n        /* \"#utility.yul\":13863:13866   */\n      dup4\n        /* \"#utility.yul\":13859:13875   */\n      add\n        /* \"#utility.yul\":13852:13879   */\n      mstore\n        /* \"#utility.yul\":13731:13885   */\n      pop\n      pop\n      pop\n      jump\t// out\n        /* \"#utility.yul\":13891:14198   */\n    tag_352:\n        /* \"#utility.yul\":13959:13960   */\n      0x00\n        /* \"#utility.yul\":13969:14082   */\n    tag_433:\n        /* \"#utility.yul\":13983:13989   */\n      dup4\n        /* \"#utility.yul\":13980:13981   */\n      dup2\n        /* \"#utility.yul\":13977:13990   */\n      lt\n        /* \"#utility.yul\":13969:14082   */\n      iszero\n      tag_435\n      jumpi\n        /* \"#utility.yul\":14068:14069   */\n      dup1\n        /* \"#utility.yul\":14063:14066   */\n      dup3\n        /* \"#utility.yul\":14059:14070   */\n      add\n        /* \"#utility.yul\":14053:14071   */\n      mload\n        /* \"#utility.yul\":14049:14050   */\n      dup2\n        /* \"#utility.yul\":14044:14047   */\n      dup5\n        /* \"#utility.yul\":14040:14051   */\n      add\n        /* \"#utility.yul\":14033:14072   */\n      mstore\n        /* \"#utility.yul\":14005:14007   */\n      0x20\n        /* \"#utility.yul\":14002:14003   */\n      dup2\n        /* \"#utility.yul\":13998:14008   */\n      add\n        /* \"#utility.yul\":13993:14008   */\n      swap1\n      pop\n        /* \"#utility.yul\":13969:14082   */\n      jump(tag_433)\n    tag_435:\n        /* \"#utility.yul\":14100:14106   */\n      dup4\n        /* \"#utility.yul\":14097:14098   */\n      dup2\n        /* \"#utility.yul\":14094:14107   */\n      gt\n        /* \"#utility.yul\":14091:14192   */\n      iszero\n      tag_436\n      jumpi\n        /* \"#utility.yul\":14180:14181   */\n      0x00\n        /* \"#utility.yul\":14171:14177   */\n      dup5\n        /* \"#utility.yul\":14166:14169   */\n      dup5\n        /* \"#utility.yul\":14162:14178   */\n      add\n        /* \"#utility.yul\":14155:14182   */\n      mstore\n        /* \"#utility.yul\":14091:14192   */\n    tag_436:\n        /* \"#utility.yul\":13940:14198   */\n      pop\n        /* \"#utility.yul\":13891:14198   */\n      pop\n      pop\n      pop\n      jump\t// out\n        /* \"#utility.yul\":14204:14524   */\n    tag_104:\n        /* \"#utility.yul\":14248:14254   */\n      0x00\n        /* \"#utility.yul\":14285:14286   */\n      0x02\n        /* \"#utility.yul\":14279:14283   */\n      dup3\n        /* \"#utility.yul\":14275:14287   */\n      div\n        /* \"#utility.yul\":14265:14287   */\n      swap1\n      pop\n        /* \"#utility.yul\":14332:14333   */\n      0x01\n        /* \"#utility.yul\":14326:14330   */\n      dup3\n        /* \"#utility.yul\":14322:14334   */\n      and\n        /* \"#utility.yul\":14353:14371   */\n      dup1\n        /* \"#utility.yul\":14343:14424   */\n      tag_438\n      jumpi\n        /* \"#utility.yul\":14409:14413   */\n      0x7f\n        /* \"#utility.yul\":14401:14407   */\n      dup3\n        /* \"#utility.yul\":14397:14414   */\n      and\n        /* \"#utility.yul\":14387:14414   */\n      swap2\n      pop\n        /* \"#utility.yul\":14343:14424   */\n    tag_438:\n        /* \"#utility.yul\":14471:14473   */\n      0x20\n        /* \"#utility.yul\":14463:14469   */\n      dup3\n        /* \"#utility.yul\":14460:14474   */\n      lt\n        /* \"#utility.yul\":14440:14458   */\n      dup2\n        /* \"#utility.yul\":14437:14475   */\n      eq\n        /* \"#utility.yul\":14434:14518   */\n      iszero\n      tag_439\n      jumpi\n        /* \"#utility.yul\":14490:14508   */\n      tag_440\n      tag_441\n      jump\t// in\n    tag_440:\n        /* \"#utility.yul\":14434:14518   */\n    tag_439:\n        /* \"#utility.yul\":14255:14524   */\n      pop\n        /* \"#utility.yul\":14204:14524   */\n      swap2\n      swap1\n      pop\n      jump\t// out\n        /* \"#utility.yul\":14530:14811   */\n    tag_400:\n        /* \"#utility.yul\":14613:14640   */\n      tag_443\n        /* \"#utility.yul\":14635:14639   */\n      dup3\n        /* \"#utility.yul\":14613:14640   */\n      tag_354\n      jump\t// in\n    tag_443:\n        /* \"#utility.yul\":14605:14611   */\n      dup2\n        /* \"#utility.yul\":14601:14641   */\n      add\n        /* \"#utility.yul\":14743:14749   */\n      dup2\n        /* \"#utility.yul\":14731:14741   */\n      dup2\n        /* \"#utility.yul\":14728:14750   */\n      lt\n        /* \"#utility.yul\":14707:14725   */\n      0xffffffffffffffff\n        /* \"#utility.yul\":14695:14705   */\n      dup3\n        /* \"#utility.yul\":14692:14726   */\n      gt\n        /* \"#utility.yul\":14689:14751   */\n      or\n        /* \"#utility.yul\":14686:14774   */\n      iszero\n      tag_444\n      jumpi\n        /* \"#utility.yul\":14754:14772   */\n      tag_445\n      tag_202\n      jump\t// in\n    tag_445:\n        /* \"#utility.yul\":14686:14774   */\n    tag_444:\n        /* \"#utility.yul\":14794:14804   */\n      dup1\n        /* \"#utility.yul\":14790:14792   */\n      0x40\n        /* \"#utility.yul\":14783:14805   */\n      mstore\n        /* \"#utility.yul\":14573:14811   */\n      pop\n        /* \"#utility.yul\":14530:14811   */\n      pop\n      pop\n      jump\t// out\n        /* \"#utility.yul\":14817:15050   */\n    tag_213:\n        /* \"#utility.yul\":14856:14859   */\n      0x00\n        /* \"#utility.yul\":14879:14903   */\n      tag_447\n        /* \"#utility.yul\":14897:14902   */\n      dup3\n        /* \"#utility.yul\":14879:14903   */\n      tag_381\n      jump\t// in\n    tag_447:\n        /* \"#utility.yul\":14870:14903   */\n      swap2\n      pop\n        /* \"#utility.yul\":14925:14991   */\n      0xffffffffffffffffffffffffffffffffffffffffffffffffffffffffffffffff\n        /* \"#utility.yul\":14918:14923   */\n      dup3\n        /* \"#utility.yul\":14915:14992   */\n      eq\n        /* \"#utility.yul\":14912:15015   */\n      iszero\n      tag_448\n      jumpi\n        /* \"#utility.yul\":14995:15013   */\n      tag_449\n      tag_419\n      jump\t// in\n    tag_449:\n        /* \"#utility.yul\":14912:15015   */\n    tag_448:\n        /* \"#utility.yul\":15042:15043   */\n      0x01\n        /* \"#utility.yul\":15035:15040   */\n      dup3\n        /* \"#utility.yul\":15031:15044   */\n      add\n        /* \"#utility.yul\":15024:15044   */\n      swap1\n      pop\n        /* \"#utility.yul\":14817:15050   */\n      swap2\n      swap1\n      pop\n      jump\t// out\n        /* \"#utility.yul\":15056:15236   */\n    tag_419:\n        /* \"#utility.yul\":15104:15181   */\n      0x4e487b7100000000000000000000000000000000000000000000000000000000\n        /* \"#utility.yul\":15101:15102   */\n      0x00\n        /* \"#utility.yul\":15094:15182   */\n      mstore\n        /* \"#utility.yul\":15201:15205   */\n      0x11\n        /* \"#utility.yul\":15198:15199   */\n      0x04\n        /* \"#utility.yul\":15191:15206   */\n      mstore\n        /* \"#utility.yul\":15225:15229   */\n      0x24\n        /* \"#utility.yul\":15222:15223   */\n      0x00\n        /* \"#utility.yul\":15215:15230   */\n      revert\n        /* \"#utility.yul\":15242:15422   */\n    tag_441:\n        /* \"#utility.yul\":15290:15367   */\n      0x4e487b7100000000000000000000000000000000000000000000000000000000\n        /* \"#utility.yul\":15287:15288   */\n      0x00\n        /* \"#utility.yul\":15280:15368   */\n      mstore\n        /* \"#utility.yul\":15387:15391   */\n      0x22\n        /* \"#utility.yul\":15384:15385   */\n      0x04\n        /* \"#utility.yul\":15377:15392   */\n      mstore\n        /* \"#utility.yul\":15411:15415   */\n      0x24\n        /* \"#utility.yul\":15408:15409   */\n      0x00\n        /* \"#utility.yul\":15401:15416   */\n      revert\n        /* \"#utility.yul\":15428:15608   */\n    tag_209:\n        /* \"#utility.yul\":15476:15553   */\n      0x4e487b7100000000000000000000000000000000000000000000000000000000\n        /* \"#utility.yul\":15473:15474   */\n      0x00\n        /* \"#utility.yul\":15466:15554   */\n      mstore\n        /* \"#utility.yul\":15573:15577   */\n      0x32\n        /* \"#utility.yul\":15570:15571   */\n      0x04\n        /* \"#utility.yul\":15563:15578   */\n      mstore\n        /* \"#utility.yul\":15597:15601   */\n      0x24\n        /* \"#utility.yul\":15594:15595   */\n      0x00\n        /* \"#utility.yul\":15587:15602   */\n      revert\n        /* \"#utility.yul\":15614:15794   */\n    tag_202:\n        /* \"#utility.yul\":15662:15739   */\n      0x4e487b7100000000000000000000000000000000000000000000000000000000\n        /* \"#utility.yul\":15659:15660   */\n      0x00\n        /* \"#utility.yul\":15652:15740   */\n      mstore\n        /* \"#utility.yul\":15759:15763   */\n      0x41\n        /* \"#utility.yul\":15756:15757   */\n      0x04\n        /* \"#utility.yul\":15749:15764   */\n      mstore\n        /* \"#utility.yul\":15783:15787   */\n      0x24\n        /* \"#utility.yul\":15780:15781   */\n      0x00\n        /* \"#utility.yul\":15773:15788   */\n      revert\n        /* \"#utility.yul\":15800:15917   */\n    tag_267:\n        /* \"#utility.yul\":15909:15910   */\n      0x00\n        /* \"#utility.yul\":15906:15907   */\n      dup1\n        /* \"#utility.yul\":15899:15911   */\n      revert\n        /* \"#utility.yul\":15923:16040   */\n    tag_252:\n        /* \"#utility.yul\":16032:16033   */\n      0x00\n        /* \"#utility.yul\":16029:16030   */\n      dup1\n        /* \"#utility.yul\":16022:16034   */\n      revert\n        /* \"#utility.yul\":16046:16163   */\n    tag_284:\n        /* \"#utility.yul\":16155:16156   */\n      0x00\n        /* \"#utility.yul\":16152:16153   */\n      dup1\n        /* \"#utility.yul\":16145:16157   */\n      revert\n        /* \"#utility.yul\":16169:16286   */\n    tag_276:\n        /* \"#utility.yul\":16278:16279   */\n      0x00\n        /* \"#utility.yul\":16275:16276   */\n      dup1\n        /* \"#utility.yul\":16268:16280   */\n      revert\n        /* \"#utility.yul\":16292:16394   */\n    tag_354:\n        /* \"#utility.yul\":16333:16339   */\n      0x00\n        /* \"#utility.yul\":16384:16386   */\n      0x1f\n        /* \"#utility.yul\":16380:16387   */\n      not\n        /* \"#utility.yul\":16375:16377   */\n      0x1f\n        /* \"#utility.yul\":16368:16373   */\n      dup4\n        /* \"#utility.yul\":16364:16378   */\n      add\n        /* \"#utility.yul\":16360:16388   */\n      and\n        /* \"#utility.yul\":16350:16388   */\n      swap1\n      pop\n        /* \"#utility.yul\":16292:16394   */\n      swap2\n      swap1\n      pop\n      jump\t// out\n        /* \"#utility.yul\":16400:16562   */\n    tag_372:\n        /* \"#utility.yul\":16540:16554   */\n      0x4163636573732064656e69650000000000000000000000000000000000000000\n        /* \"#utility.yul\":16536:16537   */\n      0x00\n        /* \"#utility.yul\":16528:16534   */\n      dup3\n        /* \"#utility.yul\":16524:16538   */\n      add\n        /* \"#utility.yul\":16517:16555   */\n      mstore\n        /* \"#utility.yul\":16400:16562   */\n      pop\n      jump\t// out\n        /* \"#utility.yul\":16568:16682   */\n    tag_377:\n      pop\n      jump\t// out\n        /* \"#utility.yul\":16688:16810   */\n    tag_258:\n        /* \"#utility.yul\":16761:16785   */\n      tag_462\n        /* \"#utility.yul\":16779:16784   */\n      dup2\n        /* \"#utility.yul\":16761:16785   */\n      tag_326\n      jump\t// in\n    tag_462:\n        /* \"#utility.yul\":16754:16759   */\n      dup2\n        /* \"#utility.yul\":16751:16786   */\n      eq\n        /* \"#utility.yul\":16741:16804   */\n      tag_463\n      jumpi\n        /* \"#utility.yul\":16800:16801   */\n      0x00\n        /* \"#utility.yul\":16797:16798   */\n      dup1\n        /* \"#utility.yul\":16790:16802   */\n      revert\n        /* \"#utility.yul\":16741:16804   */\n    tag_463:\n        /* \"#utility.yul\":16688:16810   */\n      pop\n      jump\t// out\n        /* \"#utility.yul\":16816:16932   */\n    tag_262:\n        /* \"#utility.yul\":16886:16907   */\n      tag_465\n        /* \"#utility.yul\":16901:16906   */\n      dup2\n        /* \"#utility.yul\":16886:16907   */\n      tag_344\n      jump\t// in\n    tag_465:\n        /* \"#utility.yul\":16879:16884   */\n      dup2\n        /* \"#utility.yul\":16876:16908   */\n      eq\n        /* \"#utility.yul\":16866:16926   */\n      tag_466\n      jumpi\n        /* \"#utility.yul\":16922:16923   */\n      0x00\n        /* \"#utility.yul\":16919:16920   */\n      dup1\n        /* \"#utility.yul\":16912:16924   */\n      revert\n        /* \"#utility.yul\":16866:16926   */\n    tag_466:\n        /* \"#utility.yul\":16816:16932   */\n      pop\n      jump\t// out\n        /* \"#utility.yul\":16938:17060   */\n    tag_272:\n        /* \"#utility.yul\":17011:17035   */\n      tag_468\n        /* \"#utility.yul\":17029:17034   */\n      dup2\n        /* \"#utility.yul\":17011:17035   */\n      tag_381\n      jump\t// in\n    tag_468:\n        /* \"#utility.yul\":17004:17009   */\n      dup2\n        /* \"#utility.yul\":17001:17036   */\n      eq\n        /* \"#utility.yul\":16991:17054   */\n      tag_469\n      jumpi\n        /* \"#utility.yul\":17050:17051   */\n      0x00\n        /* \"#utility.yul\":17047:17048   */\n      dup1\n        /* \"#utility.yul\":17040:17052   */\n      revert\n        /* \"#utility.yul\":16991:17054   */\n    tag_469:\n        /* \"#utility.yul\":16938:17060   */\n      pop\n      jump\t// out\n\n    auxdata: 0xa2646970667358221220a3a1d436def04784a590b7709d568c6ce4e76da49b6c71979cf474ab23bbd6fc64736f6c63430008070033\n}\n",
				"bytecode": {
					"linkReferences": {},
					"object": "60806040523480156200001157600080fd5b506040516200253938038062002539833981810160405281019062000037919062000215565b6000803390506004600160003373ffffffffffffffffffffffffffffffffffffffff1673ffffffffffffffffffffffffffffffffffffffff1681526020019081526020016000206001018190555082600160003373ffffffffffffffffffffffffffffffffffffffff1673ffffffffffffffffffffffffffffffffffffffff1681526020019081526020016000206000019080519060200190620000dd929190620000e7565b50505050620003ea565b828054620000f590620002fb565b90600052602060002090601f01602090048101928262000119576000855562000165565b82601f106200013457805160ff191683800117855562000165565b8280016001018555821562000165579182015b828111156200016457825182559160200191906001019062000147565b5b50905062000174919062000178565b5090565b5b808211156200019357600081600090555060010162000179565b5090565b6000620001ae620001a8846200028f565b62000266565b905082815260208101848484011115620001cd57620001cc620003ca565b5b620001da848285620002c5565b509392505050565b600082601f830112620001fa57620001f9620003c5565b5b81516200020c84826020860162000197565b91505092915050565b6000602082840312156200022e576200022d620003d4565b5b600082015167ffffffffffffffff8111156200024f576200024e620003cf565b5b6200025d84828501620001e2565b91505092915050565b60006200027262000285565b905062000280828262000331565b919050565b6000604051905090565b600067ffffffffffffffff821115620002ad57620002ac62000396565b5b620002b882620003d9565b9050602081019050919050565b60005b83811015620002e5578082015181840152602081019050620002c8565b83811115620002f5576000848401525b50505050565b600060028204905060018216806200031457607f821691505b602082108114156200032b576200032a62000367565b5b50919050565b6200033c82620003d9565b810181811067ffffffffffffffff821117156200035e576200035d62000396565b5b80604052505050565b7f4e487b7100000000000000000000000000000000000000000000000000000000600052602260045260246000fd5b7f4e487b7100000000000000000000000000000000000000000000000000000000600052604160045260246000fd5b600080fd5b600080fd5b600080fd5b600080fd5b6000601f19601f8301169050919050565b61213f80620003fa6000396000f3fe6080604052600436106100e85760003560e01c80635ee44ac71161008a578063bf1e4efc11610059578063bf1e4efc1461030b578063ccede9a714610315578063d13429231461033e578063ed9023dd1461037b576100e8565b80635ee44ac71461023f5780636f77926b1461026857806377c3e6cc146102a557806392f7e2ce146102e2576100e8565b806327820851116100c6578063278208511461015f578063311c0c621461019c57806335c064c6146101d957806340e5cb3f14610216576100e8565b806305d930b7146100ed57806312065fe01461012a5780631b9265b814610155575b600080fd5b3480156100f957600080fd5b50610114600480360381019061010f9190611952565b6103a4565b6040516101219190611ccf565b60405180910390f35b34801561013657600080fd5b5061013f610623565b60405161014c9190611d11565b60405180910390f35b61015d61066d565b005b34801561016b57600080fd5b506101866004803603810190610181919061186d565b610703565b6040516101939190611d11565b60405180910390f35b3480156101a857600080fd5b506101c360048036038101906101be9190611952565b6107eb565b6040516101d09190611c92565b60405180910390f35b3480156101e557600080fd5b5061020060048036038101906101fb9190611952565b6109c0565b60405161020d9190611d11565b60405180910390f35b34801561022257600080fd5b5061023d6004803603810190610238919061189a565b6109df565b005b34801561024b57600080fd5b5061026660048036038101906102619190611a12565b610b07565b005b34801561027457600080fd5b5061028f600480360381019061028a919061186d565b610c43565b60405161029c9190611ccf565b60405180910390f35b3480156102b157600080fd5b506102cc60048036038101906102c79190611952565b610de7565b6040516102d99190611cb4565b60405180910390f35b3480156102ee57600080fd5b506103096004803603810190610304919061197f565b610f84565b005b610313611098565b005b34801561032157600080fd5b5061033c600480360381019061033791906119bf565b611166565b005b34801561034a57600080fd5b5061036560048036038101906103609190611952565b611268565b6040516103729190611cb4565b60405180910390f35b34801561038757600080fd5b506103a2600480360381019061039d9190611909565b611392565b005b6060600060018060003373ffffffffffffffffffffffffffffffffffffffff1673ffffffffffffffffffffffffffffffffffffffff1681526020019081526020016000206001015414156103f757600190505b6003600160003373ffffffffffffffffffffffffffffffffffffffff1673ffffffffffffffffffffffffffffffffffffffff16815260200190815260200160002060010154141561044757600190505b6004600160003373ffffffffffffffffffffffffffffffffffffffff1673ffffffffffffffffffffffffffffffffffffffff16815260200190815260200160002060010154141561049757600190505b806104d7576040517f08c379a00000000000000000000000000000000000000000000000000000000081526004016104ce90611cf1565b60405180910390fd5b61061b60008085815260200190815260200160002060000180546104fa90611f0b565b80601f016020809104026020016040519081016040528092919081815260200182805461052690611f0b565b80156105735780601f1061054857610100808354040283529160200191610573565b820191906000526020600020905b81548152906001019060200180831161055657829003601f168201915b5050505050600080868152602001908152602001600020600101805461059890611f0b565b80601f01602080910402602001604051908101604052809291908181526020018280546105c490611f0b565b80156106115780601f106105e657610100808354040283529160200191610611565b820191906000526020600020905b8154815290600101906020018083116105f457829003601f168201915b50505050506113ec565b915050919050565b6000600160003373ffffffffffffffffffffffffffffffffffffffff1673ffffffffffffffffffffffffffffffffffffffff16815260200190815260200160002060020154905090565b34600160003373ffffffffffffffffffffffffffffffffffffffff1673ffffffffffffffffffffffffffffffffffffffff168152602001908152602001600020600201546106bb9190611df7565b600160003373ffffffffffffffffffffffffffffffffffffffff1673ffffffffffffffffffffffffffffffffffffffff16815260200190815260200160002060020181905550565b600060405160200161071490611c7d565b60405160208183030381529060405280519060200120600160008473ffffffffffffffffffffffffffffffffffffffff1673ffffffffffffffffffffffffffffffffffffffff16815260200190815260200160002060000160405160200161077c9190611c66565b60405160208183030381529060405280519060200120146107e157600160008373ffffffffffffffffffffffffffffffffffffffff1673ffffffffffffffffffffffffffffffffffffffff1681526020019081526020016000206001015490506107e6565b600590505b919050565b6060600060018060003373ffffffffffffffffffffffffffffffffffffffff1673ffffffffffffffffffffffffffffffffffffffff16815260200190815260200160002060010154141561083e57600190505b6003600160003373ffffffffffffffffffffffffffffffffffffffff1673ffffffffffffffffffffffffffffffffffffffff16815260200190815260200160002060010154141561088e57600190505b6004600160003373ffffffffffffffffffffffffffffffffffffffff1673ffffffffffffffffffffffffffffffffffffffff1681526020019081526020016000206001015414156108de57600190505b8061091e576040517f08c379a000000000000000000000000000000000000000000000000000000000815260040161091590611cf1565b60405180910390fd5b6000808481526020019081526020016000206004018054806020026020016040519081016040528092919081815260200182805480156109b357602002820191906000526020600020905b8160009054906101000a900473ffffffffffffffffffffffffffffffffffffffff1673ffffffffffffffffffffffffffffffffffffffff1681526020019060010190808311610969575b5050505050915050919050565b6000806000838152602001908152602001600020600201549050919050565b6004600160003373ffffffffffffffffffffffffffffffffffffffff1673ffffffffffffffffffffffffffffffffffffffff1681526020019081526020016000206001015414610a64576040517f08c379a0000000000000000000000000000000000000000000000000000000008152600401610a5b90611cf1565b60405180910390fd5b81600160008573ffffffffffffffffffffffffffffffffffffffff1673ffffffffffffffffffffffffffffffffffffffff1681526020019081526020016000206000019080519060200190610aba92919061163f565b5080600160008573ffffffffffffffffffffffffffffffffffffffff1673ffffffffffffffffffffffffffffffffffffffff16815260200190815260200160002060010181905550505050565b6004600160003373ffffffffffffffffffffffffffffffffffffffff1673ffffffffffffffffffffffffffffffffffffffff1681526020019081526020016000206001015414610b8c576040517f08c379a0000000000000000000000000000000000000000000000000000000008152600401610b8390611cf1565b60405180910390fd5b610b946116c5565b8481600001819052508381602001819052508281604001818152505081816060018181525050806000808881526020019081526020016000206000820151816000019080519060200190610be992919061163f565b506020820151816001019080519060200190610c0692919061163f565b5060408201518160020155606082015181600301556080820151816004019080519060200190610c379291906116f4565b50905050505050505050565b6060604051602001610c5490611c7d565b60405160208183030381529060405280519060200120600160008473ffffffffffffffffffffffffffffffffffffffff1673ffffffffffffffffffffffffffffffffffffffff168152602001908152602001600020600001604051602001610cbc9190611c66565b6040516020818303038152906040528051906020012014610da957600160008373ffffffffffffffffffffffffffffffffffffffff1673ffffffffffffffffffffffffffffffffffffffff1681526020019081526020016000206000018054610d2490611f0b565b80601f0160208091040260200160405190810160405280929190818152602001828054610d5090611f0b565b8015610d9d5780601f10610d7257610100808354040283529160200191610d9d565b820191906000526020600020905b815481529060010190602001808311610d8057829003601f168201915b50505050509050610de2565b6040518060400160405280600581526020017f4e656d616500000000000000000000000000000000000000000000000000000081525090505b919050565b60008060008084815260200190815260200160002060020154600160003373ffffffffffffffffffffffffffffffffffffffff1673ffffffffffffffffffffffffffffffffffffffff16815260200190815260200160002060020154610e4d9190611e4d565b10610f7a57600080838152602001908152602001600020600401339080600181540180825580915050600190039060005260206000200160009091909190916101000a81548173ffffffffffffffffffffffffffffffffffffffff021916908373ffffffffffffffffffffffffffffffffffffffff16021790555060008083815260200190815260200160002060020154600160003373ffffffffffffffffffffffffffffffffffffffff1673ffffffffffffffffffffffffffffffffffffffff16815260200190815260200160002060020154610f2b9190611e4d565b600160003373ffffffffffffffffffffffffffffffffffffffff1673ffffffffffffffffffffffffffffffffffffffff1681526020019081526020016000206002018190555060019050610f7f565b600090505b919050565b600060018060003373ffffffffffffffffffffffffffffffffffffffff1673ffffffffffffffffffffffffffffffffffffffff168152602001908152602001600020600101541415610fd557600190505b6004600160003373ffffffffffffffffffffffffffffffffffffffff1673ffffffffffffffffffffffffffffffffffffffff16815260200190815260200160002060010154141561102557600190505b80611065576040517f08c379a000000000000000000000000000000000000000000000000000000000815260040161105c90611cf1565b60405180910390fd5b816002600085815260200190815260200160002060010160006101000a81548160ff021916908315150217905550505050565b6004600160003373ffffffffffffffffffffffffffffffffffffffff1673ffffffffffffffffffffffffffffffffffffffff168152602001908152602001600020600101541461111d576040517f08c379a000000000000000000000000000000000000000000000000000000000815260040161111490611cf1565b60405180910390fd5b3373ffffffffffffffffffffffffffffffffffffffff166108fc479081150290604051600060405180830381858888f19350505050158015611163573d6000803e3d6000fd5b50565b6004600160003373ffffffffffffffffffffffffffffffffffffffff1673ffffffffffffffffffffffffffffffffffffffff16815260200190815260200160002060010154146111eb576040517f08c379a00000000000000000000000000000000000000000000000000000000081526004016111e290611cf1565b60405180910390fd5b6111f361177e565b83816000018181525050828160200190151590811515815250508181604001818152505080600260008681526020019081526020016000206000820151816000015560208201518160010160006101000a81548160ff0219169083151502179055506040820151816002015590505050505050565b6000806000905060018060003373ffffffffffffffffffffffffffffffffffffffff1673ffffffffffffffffffffffffffffffffffffffff1681526020019081526020016000206001015414156112be57600190505b6004600160003373ffffffffffffffffffffffffffffffffffffffff1673ffffffffffffffffffffffffffffffffffffffff16815260200190815260200160002060010154141561130e57600190505b8061134e576040517f08c379a000000000000000000000000000000000000000000000000000000000815260040161134590611cf1565b60405180910390fd5b600115156002600085815260200190815260200160002060010160009054906101000a900460ff1615151415611387576001915061138c565b600091505b50919050565b80600160003373ffffffffffffffffffffffffffffffffffffffff1673ffffffffffffffffffffffffffffffffffffffff16815260200190815260200160002060000190805190602001906113e892919061163f565b5050565b60606000806000905060006001855187516114079190611df7565b6114119190611df7565b67ffffffffffffffff81111561142a57611429612044565b5b6040519080825280601f01601f19166020018201604052801561145c5781602001600182028036833780820191505090505b509050600081905060008790506000879050600095505b81518610156114fd5781868151811061148f5761148e612015565b5b602001015160f81c60f81b8386815181106114ad576114ac612015565b5b60200101907effffffffffffffffffffffffffffffffffffffffffffffffffffffffffffff1916908160001a90535084806114e790611f6e565b95505085806114f590611f6e565b965050611473565b6040518060400160405280600181526020017f200000000000000000000000000000000000000000000000000000000000000081525060008151811061154657611545612015565b5b602001015160f81c60f81b83868151811061156457611563612015565b5b60200101907effffffffffffffffffffffffffffffffffffffffffffffffffffffffffffff1916908160001a905350848061159e90611f6e565b955050600095505b8051861015611630578086815181106115c2576115c1612015565b5b602001015160f81c60f81b8386815181106115e0576115df612015565b5b60200101907effffffffffffffffffffffffffffffffffffffffffffffffffffffffffffff1916908160001a905350848061161a90611f6e565b955050858061162890611f6e565b9650506115a6565b83965050505050505092915050565b82805461164b90611f0b565b90600052602060002090601f01602090048101928261166d57600085556116b4565b82601f1061168657805160ff19168380011785556116b4565b828001600101855582156116b4579182015b828111156116b3578251825591602001919060010190611698565b5b5090506116c191906117a1565b5090565b6040518060a0016040528060608152602001606081526020016000815260200160008152602001606081525090565b82805482825590600052602060002090810192821561176d579160200282015b8281111561176c5782518260006101000a81548173ffffffffffffffffffffffffffffffffffffffff021916908373ffffffffffffffffffffffffffffffffffffffff16021790555091602001919060010190611714565b5b50905061177a91906117a1565b5090565b604051806060016040528060008152602001600015158152602001600081525090565b5b808211156117ba5760008160009055506001016117a2565b5090565b60006117d16117cc84611d51565b611d2c565b9050828152602081018484840111156117ed576117ec612078565b5b6117f8848285611ec9565b509392505050565b60008135905061180f816120c4565b92915050565b600081359050611824816120db565b92915050565b600082601f83011261183f5761183e612073565b5b813561184f8482602086016117be565b91505092915050565b600081359050611867816120f2565b92915050565b60006020828403121561188357611882612082565b5b600061189184828501611800565b91505092915050565b6000806000606084860312156118b3576118b2612082565b5b60006118c186828701611800565b935050602084013567ffffffffffffffff8111156118e2576118e161207d565b5b6118ee8682870161182a565b92505060406118ff86828701611858565b9150509250925092565b60006020828403121561191f5761191e612082565b5b600082013567ffffffffffffffff81111561193d5761193c61207d565b5b6119498482850161182a565b91505092915050565b60006020828403121561196857611967612082565b5b600061197684828501611858565b91505092915050565b6000806040838503121561199657611995612082565b5b60006119a485828601611858565b92505060206119b585828601611815565b9150509250929050565b6000806000606084860312156119d8576119d7612082565b5b60006119e686828701611858565b93505060206119f786828701611815565b9250506040611a0886828701611858565b9150509250925092565b600080600080600060a08688031215611a2e57611a2d612082565b5b6000611a3c88828901611858565b955050602086013567ffffffffffffffff811115611a5d57611a5c61207d565b5b611a698882890161182a565b945050604086013567ffffffffffffffff811115611a8a57611a8961207d565b5b611a968882890161182a565b9350506060611aa788828901611858565b9250506080611ab888828901611858565b9150509295509295909350565b6000611ad18383611add565b60208301905092915050565b611ae681611e81565b82525050565b6000611af782611da7565b611b018185611dca565b9350611b0c83611d82565b8060005b83811015611b3d578151611b248882611ac5565b9750611b2f83611dbd565b925050600181019050611b10565b5085935050505092915050565b611b5381611e93565b82525050565b6000611b6482611db2565b611b6e8185611ddb565b9350611b7e818560208601611ed8565b611b8781612087565b840191505092915050565b60008154611b9f81611f0b565b611ba98186611dec565b94506001821660008114611bc45760018114611bd557611c08565b60ff19831686528186019350611c08565b611bde85611d92565b60005b83811015611c0057815481890152600182019150602081019050611be1565b838801955050505b50505092915050565b6000611c1e600c83611ddb565b9150611c2982612098565b602082019050919050565b6000611c41600083611dec565b9150611c4c826120c1565b600082019050919050565b611c6081611ebf565b82525050565b6000611c728284611b92565b915081905092915050565b6000611c8882611c34565b9150819050919050565b60006020820190508181036000830152611cac8184611aec565b905092915050565b6000602082019050611cc96000830184611b4a565b92915050565b60006020820190508181036000830152611ce98184611b59565b905092915050565b60006020820190508181036000830152611d0a81611c11565b9050919050565b6000602082019050611d266000830184611c57565b92915050565b6000611d36611d47565b9050611d428282611f3d565b919050565b6000604051905090565b600067ffffffffffffffff821115611d6c57611d6b612044565b5b611d7582612087565b9050602081019050919050565b6000819050602082019050919050565b60008190508160005260206000209050919050565b600081519050919050565b600081519050919050565b6000602082019050919050565b600082825260208201905092915050565b600082825260208201905092915050565b600081905092915050565b6000611e0282611ebf565b9150611e0d83611ebf565b9250827fffffffffffffffffffffffffffffffffffffffffffffffffffffffffffffffff03821115611e4257611e41611fb7565b5b828201905092915050565b6000611e5882611ebf565b9150611e6383611ebf565b925082821015611e7657611e75611fb7565b5b828203905092915050565b6000611e8c82611e9f565b9050919050565b60008115159050919050565b600073ffffffffffffffffffffffffffffffffffffffff82169050919050565b6000819050919050565b82818337600083830152505050565b60005b83811015611ef6578082015181840152602081019050611edb565b83811115611f05576000848401525b50505050565b60006002820490506001821680611f2357607f821691505b60208210811415611f3757611f36611fe6565b5b50919050565b611f4682612087565b810181811067ffffffffffffffff82111715611f6557611f64612044565b5b80604052505050565b6000611f7982611ebf565b91507fffffffffffffffffffffffffffffffffffffffffffffffffffffffffffffffff821415611fac57611fab611fb7565b5b600182019050919050565b7f4e487b7100000000000000000000000000000000000000000000000000000000600052601160045260246000fd5b7f4e487b7100000000000000000000000000000000000000000000000000000000600052602260045260246000fd5b7f4e487b7100000000000000000000000000000000000000000000000000000000600052603260045260246000fd5b7f4e487b7100000000000000000000000000000000000000000000000000000000600052604160045260246000fd5b600080fd5b600080fd5b600080fd5b600080fd5b6000601f19601f8301169050919050565b7f4163636573732064656e69650000000000000000000000000000000000000000600082015250565b50565b6120cd81611e81565b81146120d857600080fd5b50565b6120e481611e93565b81146120ef57600080fd5b50565b6120fb81611ebf565b811461210657600080fd5b5056fea2646970667358221220a3a1d436def04784a590b7709d568c6ce4e76da49b6c71979cf474ab23bbd6fc64736f6c63430008070033",
					"opcodes": "PUSH1 0x80 PUSH1 0x40 MSTORE CALLVALUE DUP1 ISZERO PUSH3 0x11 JUMPI PUSH1 0x0 DUP1 REVERT JUMPDEST POP PUSH1 0x40 MLOAD PUSH3 0x2539 CODESIZE SUB DUP1 PUSH3 0x2539 DUP4 CODECOPY DUP2 DUP2 ADD PUSH1 0x40 MSTORE DUP2 ADD SWAP1 PUSH3 0x37 SWAP2 SWAP1 PUSH3 0x215 JUMP JUMPDEST PUSH1 0x0 DUP1 CALLER SWAP1 POP PUSH1 0x4 PUSH1 0x1 PUSH1 0x0 CALLER PUSH20 0xFFFFFFFFFFFFFFFFFFFFFFFFFFFFFFFFFFFFFFFF AND PUSH20 0xFFFFFFFFFFFFFFFFFFFFFFFFFFFFFFFFFFFFFFFF AND DUP2 MSTORE PUSH1 0x20 ADD SWAP1 DUP2 MSTORE PUSH1 0x20 ADD PUSH1 0x0 KECCAK256 PUSH1 0x1 ADD DUP2 SWAP1 SSTORE POP DUP3 PUSH1 0x1 PUSH1 0x0 CALLER PUSH20 0xFFFFFFFFFFFFFFFFFFFFFFFFFFFFFFFFFFFFFFFF AND PUSH20 0xFFFFFFFFFFFFFFFFFFFFFFFFFFFFFFFFFFFFFFFF AND DUP2 MSTORE PUSH1 0x20 ADD SWAP1 DUP2 MSTORE PUSH1 0x20 ADD PUSH1 0x0 KECCAK256 PUSH1 0x0 ADD SWAP1 DUP1 MLOAD SWAP1 PUSH1 0x20 ADD SWAP1 PUSH3 0xDD SWAP3 SWAP2 SWAP1 PUSH3 0xE7 JUMP JUMPDEST POP POP POP POP PUSH3 0x3EA JUMP JUMPDEST DUP3 DUP1 SLOAD PUSH3 0xF5 SWAP1 PUSH3 0x2FB JUMP JUMPDEST SWAP1 PUSH1 0x0 MSTORE PUSH1 0x20 PUSH1 0x0 KECCAK256 SWAP1 PUSH1 0x1F ADD PUSH1 0x20 SWAP1 DIV DUP2 ADD SWAP3 DUP3 PUSH3 0x119 JUMPI PUSH1 0x0 DUP6 SSTORE PUSH3 0x165 JUMP JUMPDEST DUP3 PUSH1 0x1F LT PUSH3 0x134 JUMPI DUP1 MLOAD PUSH1 0xFF NOT AND DUP4 DUP1 ADD OR DUP6 SSTORE PUSH3 0x165 JUMP JUMPDEST DUP3 DUP1 ADD PUSH1 0x1 ADD DUP6 SSTORE DUP3 ISZERO PUSH3 0x165 JUMPI SWAP2 DUP3 ADD JUMPDEST DUP3 DUP2 GT ISZERO PUSH3 0x164 JUMPI DUP3 MLOAD DUP3 SSTORE SWAP2 PUSH1 0x20 ADD SWAP2 SWAP1 PUSH1 0x1 ADD SWAP1 PUSH3 0x147 JUMP JUMPDEST JUMPDEST POP SWAP1 POP PUSH3 0x174 SWAP2 SWAP1 PUSH3 0x178 JUMP JUMPDEST POP SWAP1 JUMP JUMPDEST JUMPDEST DUP1 DUP3 GT ISZERO PUSH3 0x193 JUMPI PUSH1 0x0 DUP2 PUSH1 0x0 SWAP1 SSTORE POP PUSH1 0x1 ADD PUSH3 0x179 JUMP JUMPDEST POP SWAP1 JUMP JUMPDEST PUSH1 0x0 PUSH3 0x1AE PUSH3 0x1A8 DUP5 PUSH3 0x28F JUMP JUMPDEST PUSH3 0x266 JUMP JUMPDEST SWAP1 POP DUP3 DUP2 MSTORE PUSH1 0x20 DUP2 ADD DUP5 DUP5 DUP5 ADD GT ISZERO PUSH3 0x1CD JUMPI PUSH3 0x1CC PUSH3 0x3CA JUMP JUMPDEST JUMPDEST PUSH3 0x1DA DUP5 DUP3 DUP6 PUSH3 0x2C5 JUMP JUMPDEST POP SWAP4 SWAP3 POP POP POP JUMP JUMPDEST PUSH1 0x0 DUP3 PUSH1 0x1F DUP4 ADD SLT PUSH3 0x1FA JUMPI PUSH3 0x1F9 PUSH3 0x3C5 JUMP JUMPDEST JUMPDEST DUP2 MLOAD PUSH3 0x20C DUP5 DUP3 PUSH1 0x20 DUP7 ADD PUSH3 0x197 JUMP JUMPDEST SWAP2 POP POP SWAP3 SWAP2 POP POP JUMP JUMPDEST PUSH1 0x0 PUSH1 0x20 DUP3 DUP5 SUB SLT ISZERO PUSH3 0x22E JUMPI PUSH3 0x22D PUSH3 0x3D4 JUMP JUMPDEST JUMPDEST PUSH1 0x0 DUP3 ADD MLOAD PUSH8 0xFFFFFFFFFFFFFFFF DUP2 GT ISZERO PUSH3 0x24F JUMPI PUSH3 0x24E PUSH3 0x3CF JUMP JUMPDEST JUMPDEST PUSH3 0x25D DUP5 DUP3 DUP6 ADD PUSH3 0x1E2 JUMP JUMPDEST SWAP2 POP POP SWAP3 SWAP2 POP POP JUMP JUMPDEST PUSH1 0x0 PUSH3 0x272 PUSH3 0x285 JUMP JUMPDEST SWAP1 POP PUSH3 0x280 DUP3 DUP3 PUSH3 0x331 JUMP JUMPDEST SWAP2 SWAP1 POP JUMP JUMPDEST PUSH1 0x0 PUSH1 0x40 MLOAD SWAP1 POP SWAP1 JUMP JUMPDEST PUSH1 0x0 PUSH8 0xFFFFFFFFFFFFFFFF DUP3 GT ISZERO PUSH3 0x2AD JUMPI PUSH3 0x2AC PUSH3 0x396 JUMP JUMPDEST JUMPDEST PUSH3 0x2B8 DUP3 PUSH3 0x3D9 JUMP JUMPDEST SWAP1 POP PUSH1 0x20 DUP2 ADD SWAP1 POP SWAP2 SWAP1 POP JUMP JUMPDEST PUSH1 0x0 JUMPDEST DUP4 DUP2 LT ISZERO PUSH3 0x2E5 JUMPI DUP1 DUP3 ADD MLOAD DUP2 DUP5 ADD MSTORE PUSH1 0x20 DUP2 ADD SWAP1 POP PUSH3 0x2C8 JUMP JUMPDEST DUP4 DUP2 GT ISZERO PUSH3 0x2F5 JUMPI PUSH1 0x0 DUP5 DUP5 ADD MSTORE JUMPDEST POP POP POP POP JUMP JUMPDEST PUSH1 0x0 PUSH1 0x2 DUP3 DIV SWAP1 POP PUSH1 0x1 DUP3 AND DUP1 PUSH3 0x314 JUMPI PUSH1 0x7F DUP3 AND SWAP2 POP JUMPDEST PUSH1 0x20 DUP3 LT DUP2 EQ ISZERO PUSH3 0x32B JUMPI PUSH3 0x32A PUSH3 0x367 JUMP JUMPDEST JUMPDEST POP SWAP2 SWAP1 POP JUMP JUMPDEST PUSH3 0x33C DUP3 PUSH3 0x3D9 JUMP JUMPDEST DUP2 ADD DUP2 DUP2 LT PUSH8 0xFFFFFFFFFFFFFFFF DUP3 GT OR ISZERO PUSH3 0x35E JUMPI PUSH3 0x35D PUSH3 0x396 JUMP JUMPDEST JUMPDEST DUP1 PUSH1 0x40 MSTORE POP POP POP JUMP JUMPDEST PUSH32 0x4E487B7100000000000000000000000000000000000000000000000000000000 PUSH1 0x0 MSTORE PUSH1 0x22 PUSH1 0x4 MSTORE PUSH1 0x24 PUSH1 0x0 REVERT JUMPDEST PUSH32 0x4E487B7100000000000000000000000000000000000000000000000000000000 PUSH1 0x0 MSTORE PUSH1 0x41 PUSH1 0x4 MSTORE PUSH1 0x24 PUSH1 0x0 REVERT JUMPDEST PUSH1 0x0 DUP1 REVERT JUMPDEST PUSH1 0x0 DUP1 REVERT JUMPDEST PUSH1 0x0 DUP1 REVERT JUMPDEST PUSH1 0x0 DUP1 REVERT JUMPDEST PUSH1 0x0 PUSH1 0x1F NOT PUSH1 0x1F DUP4 ADD AND SWAP1 POP SWAP2 SWAP1 POP JUMP JUMPDEST PUSH2 0x213F DUP1 PUSH3 0x3FA PUSH1 0x0 CODECOPY PUSH1 0x0 RETURN INVALID PUSH1 0x80 PUSH1 0x40 MSTORE PUSH1 0x4 CALLDATASIZE LT PUSH2 0xE8 JUMPI PUSH1 0x0 CALLDATALOAD PUSH1 0xE0 SHR DUP1 PUSH4 0x5EE44AC7 GT PUSH2 0x8A JUMPI DUP1 PUSH4 0xBF1E4EFC GT PUSH2 0x59 JUMPI DUP1 PUSH4 0xBF1E4EFC EQ PUSH2 0x30B JUMPI DUP1 PUSH4 0xCCEDE9A7 EQ PUSH2 0x315 JUMPI DUP1 PUSH4 0xD1342923 EQ PUSH2 0x33E JUMPI DUP1 PUSH4 0xED9023DD EQ PUSH2 0x37B JUMPI PUSH2 0xE8 JUMP JUMPDEST DUP1 PUSH4 0x5EE44AC7 EQ PUSH2 0x23F JUMPI DUP1 PUSH4 0x6F77926B EQ PUSH2 0x268 JUMPI DUP1 PUSH4 0x77C3E6CC EQ PUSH2 0x2A5 JUMPI DUP1 PUSH4 0x92F7E2CE EQ PUSH2 0x2E2 JUMPI PUSH2 0xE8 JUMP JUMPDEST DUP1 PUSH4 0x27820851 GT PUSH2 0xC6 JUMPI DUP1 PUSH4 0x27820851 EQ PUSH2 0x15F JUMPI DUP1 PUSH4 0x311C0C62 EQ PUSH2 0x19C JUMPI DUP1 PUSH4 0x35C064C6 EQ PUSH2 0x1D9 JUMPI DUP1 PUSH4 0x40E5CB3F EQ PUSH2 0x216 JUMPI PUSH2 0xE8 JUMP JUMPDEST DUP1 PUSH4 0x5D930B7 EQ PUSH2 0xED JUMPI DUP1 PUSH4 0x12065FE0 EQ PUSH2 0x12A JUMPI DUP1 PUSH4 0x1B9265B8 EQ PUSH2 0x155 JUMPI JUMPDEST PUSH1 0x0 DUP1 REVERT JUMPDEST CALLVALUE DUP1 ISZERO PUSH2 0xF9 JUMPI PUSH1 0x0 DUP1 REVERT JUMPDEST POP PUSH2 0x114 PUSH1 0x4 DUP1 CALLDATASIZE SUB DUP2 ADD SWAP1 PUSH2 0x10F SWAP2 SWAP1 PUSH2 0x1952 JUMP JUMPDEST PUSH2 0x3A4 JUMP JUMPDEST PUSH1 0x40 MLOAD PUSH2 0x121 SWAP2 SWAP1 PUSH2 0x1CCF JUMP JUMPDEST PUSH1 0x40 MLOAD DUP1 SWAP2 SUB SWAP1 RETURN JUMPDEST CALLVALUE DUP1 ISZERO PUSH2 0x136 JUMPI PUSH1 0x0 DUP1 REVERT JUMPDEST POP PUSH2 0x13F PUSH2 0x623 JUMP JUMPDEST PUSH1 0x40 MLOAD PUSH2 0x14C SWAP2 SWAP1 PUSH2 0x1D11 JUMP JUMPDEST PUSH1 0x40 MLOAD DUP1 SWAP2 SUB SWAP1 RETURN JUMPDEST PUSH2 0x15D PUSH2 0x66D JUMP JUMPDEST STOP JUMPDEST CALLVALUE DUP1 ISZERO PUSH2 0x16B JUMPI PUSH1 0x0 DUP1 REVERT JUMPDEST POP PUSH2 0x186 PUSH1 0x4 DUP1 CALLDATASIZE SUB DUP2 ADD SWAP1 PUSH2 0x181 SWAP2 SWAP1 PUSH2 0x186D JUMP JUMPDEST PUSH2 0x703 JUMP JUMPDEST PUSH1 0x40 MLOAD PUSH2 0x193 SWAP2 SWAP1 PUSH2 0x1D11 JUMP JUMPDEST PUSH1 0x40 MLOAD DUP1 SWAP2 SUB SWAP1 RETURN JUMPDEST CALLVALUE DUP1 ISZERO PUSH2 0x1A8 JUMPI PUSH1 0x0 DUP1 REVERT JUMPDEST POP PUSH2 0x1C3 PUSH1 0x4 DUP1 CALLDATASIZE SUB DUP2 ADD SWAP1 PUSH2 0x1BE SWAP2 SWAP1 PUSH2 0x1952 JUMP JUMPDEST PUSH2 0x7EB JUMP JUMPDEST PUSH1 0x40 MLOAD PUSH2 0x1D0 SWAP2 SWAP1 PUSH2 0x1C92 JUMP JUMPDEST PUSH1 0x40 MLOAD DUP1 SWAP2 SUB SWAP1 RETURN JUMPDEST CALLVALUE DUP1 ISZERO PUSH2 0x1E5 JUMPI PUSH1 0x0 DUP1 REVERT JUMPDEST POP PUSH2 0x200 PUSH1 0x4 DUP1 CALLDATASIZE SUB DUP2 ADD SWAP1 PUSH2 0x1FB SWAP2 SWAP1 PUSH2 0x1952 JUMP JUMPDEST PUSH2 0x9C0 JUMP JUMPDEST PUSH1 0x40 MLOAD PUSH2 0x20D SWAP2 SWAP1 PUSH2 0x1D11 JUMP JUMPDEST PUSH1 0x40 MLOAD DUP1 SWAP2 SUB SWAP1 RETURN JUMPDEST CALLVALUE DUP1 ISZERO PUSH2 0x222 JUMPI PUSH1 0x0 DUP1 REVERT JUMPDEST POP PUSH2 0x23D PUSH1 0x4 DUP1 CALLDATASIZE SUB DUP2 ADD SWAP1 PUSH2 0x238 SWAP2 SWAP1 PUSH2 0x189A JUMP JUMPDEST PUSH2 0x9DF JUMP JUMPDEST STOP JUMPDEST CALLVALUE DUP1 ISZERO PUSH2 0x24B JUMPI PUSH1 0x0 DUP1 REVERT JUMPDEST POP PUSH2 0x266 PUSH1 0x4 DUP1 CALLDATASIZE SUB DUP2 ADD SWAP1 PUSH2 0x261 SWAP2 SWAP1 PUSH2 0x1A12 JUMP JUMPDEST PUSH2 0xB07 JUMP JUMPDEST STOP JUMPDEST CALLVALUE DUP1 ISZERO PUSH2 0x274 JUMPI PUSH1 0x0 DUP1 REVERT JUMPDEST POP PUSH2 0x28F PUSH1 0x4 DUP1 CALLDATASIZE SUB DUP2 ADD SWAP1 PUSH2 0x28A SWAP2 SWAP1 PUSH2 0x186D JUMP JUMPDEST PUSH2 0xC43 JUMP JUMPDEST PUSH1 0x40 MLOAD PUSH2 0x29C SWAP2 SWAP1 PUSH2 0x1CCF JUMP JUMPDEST PUSH1 0x40 MLOAD DUP1 SWAP2 SUB SWAP1 RETURN JUMPDEST CALLVALUE DUP1 ISZERO PUSH2 0x2B1 JUMPI PUSH1 0x0 DUP1 REVERT JUMPDEST POP PUSH2 0x2CC PUSH1 0x4 DUP1 CALLDATASIZE SUB DUP2 ADD SWAP1 PUSH2 0x2C7 SWAP2 SWAP1 PUSH2 0x1952 JUMP JUMPDEST PUSH2 0xDE7 JUMP JUMPDEST PUSH1 0x40 MLOAD PUSH2 0x2D9 SWAP2 SWAP1 PUSH2 0x1CB4 JUMP JUMPDEST PUSH1 0x40 MLOAD DUP1 SWAP2 SUB SWAP1 RETURN JUMPDEST CALLVALUE DUP1 ISZERO PUSH2 0x2EE JUMPI PUSH1 0x0 DUP1 REVERT JUMPDEST POP PUSH2 0x309 PUSH1 0x4 DUP1 CALLDATASIZE SUB DUP2 ADD SWAP1 PUSH2 0x304 SWAP2 SWAP1 PUSH2 0x197F JUMP JUMPDEST PUSH2 0xF84 JUMP JUMPDEST STOP JUMPDEST PUSH2 0x313 PUSH2 0x1098 JUMP JUMPDEST STOP JUMPDEST CALLVALUE DUP1 ISZERO PUSH2 0x321 JUMPI PUSH1 0x0 DUP1 REVERT JUMPDEST POP PUSH2 0x33C PUSH1 0x4 DUP1 CALLDATASIZE SUB DUP2 ADD SWAP1 PUSH2 0x337 SWAP2 SWAP1 PUSH2 0x19BF JUMP JUMPDEST PUSH2 0x1166 JUMP JUMPDEST STOP JUMPDEST CALLVALUE DUP1 ISZERO PUSH2 0x34A JUMPI PUSH1 0x0 DUP1 REVERT JUMPDEST POP PUSH2 0x365 PUSH1 0x4 DUP1 CALLDATASIZE SUB DUP2 ADD SWAP1 PUSH2 0x360 SWAP2 SWAP1 PUSH2 0x1952 JUMP JUMPDEST PUSH2 0x1268 JUMP JUMPDEST PUSH1 0x40 MLOAD PUSH2 0x372 SWAP2 SWAP1 PUSH2 0x1CB4 JUMP JUMPDEST PUSH1 0x40 MLOAD DUP1 SWAP2 SUB SWAP1 RETURN JUMPDEST CALLVALUE DUP1 ISZERO PUSH2 0x387 JUMPI PUSH1 0x0 DUP1 REVERT JUMPDEST POP PUSH2 0x3A2 PUSH1 0x4 DUP1 CALLDATASIZE SUB DUP2 ADD SWAP1 PUSH2 0x39D SWAP2 SWAP1 PUSH2 0x1909 JUMP JUMPDEST PUSH2 0x1392 JUMP JUMPDEST STOP JUMPDEST PUSH1 0x60 PUSH1 0x0 PUSH1 0x1 DUP1 PUSH1 0x0 CALLER PUSH20 0xFFFFFFFFFFFFFFFFFFFFFFFFFFFFFFFFFFFFFFFF AND PUSH20 0xFFFFFFFFFFFFFFFFFFFFFFFFFFFFFFFFFFFFFFFF AND DUP2 MSTORE PUSH1 0x20 ADD SWAP1 DUP2 MSTORE PUSH1 0x20 ADD PUSH1 0x0 KECCAK256 PUSH1 0x1 ADD SLOAD EQ ISZERO PUSH2 0x3F7 JUMPI PUSH1 0x1 SWAP1 POP JUMPDEST PUSH1 0x3 PUSH1 0x1 PUSH1 0x0 CALLER PUSH20 0xFFFFFFFFFFFFFFFFFFFFFFFFFFFFFFFFFFFFFFFF AND PUSH20 0xFFFFFFFFFFFFFFFFFFFFFFFFFFFFFFFFFFFFFFFF AND DUP2 MSTORE PUSH1 0x20 ADD SWAP1 DUP2 MSTORE PUSH1 0x20 ADD PUSH1 0x0 KECCAK256 PUSH1 0x1 ADD SLOAD EQ ISZERO PUSH2 0x447 JUMPI PUSH1 0x1 SWAP1 POP JUMPDEST PUSH1 0x4 PUSH1 0x1 PUSH1 0x0 CALLER PUSH20 0xFFFFFFFFFFFFFFFFFFFFFFFFFFFFFFFFFFFFFFFF AND PUSH20 0xFFFFFFFFFFFFFFFFFFFFFFFFFFFFFFFFFFFFFFFF AND DUP2 MSTORE PUSH1 0x20 ADD SWAP1 DUP2 MSTORE PUSH1 0x20 ADD PUSH1 0x0 KECCAK256 PUSH1 0x1 ADD SLOAD EQ ISZERO PUSH2 0x497 JUMPI PUSH1 0x1 SWAP1 POP JUMPDEST DUP1 PUSH2 0x4D7 JUMPI PUSH1 0x40 MLOAD PUSH32 0x8C379A000000000000000000000000000000000000000000000000000000000 DUP2 MSTORE PUSH1 0x4 ADD PUSH2 0x4CE SWAP1 PUSH2 0x1CF1 JUMP JUMPDEST PUSH1 0x40 MLOAD DUP1 SWAP2 SUB SWAP1 REVERT JUMPDEST PUSH2 0x61B PUSH1 0x0 DUP1 DUP6 DUP2 MSTORE PUSH1 0x20 ADD SWAP1 DUP2 MSTORE PUSH1 0x20 ADD PUSH1 0x0 KECCAK256 PUSH1 0x0 ADD DUP1 SLOAD PUSH2 0x4FA SWAP1 PUSH2 0x1F0B JUMP JUMPDEST DUP1 PUSH1 0x1F ADD PUSH1 0x20 DUP1 SWAP2 DIV MUL PUSH1 0x20 ADD PUSH1 0x40 MLOAD SWAP1 DUP2 ADD PUSH1 0x40 MSTORE DUP1 SWAP3 SWAP2 SWAP1 DUP2 DUP2 MSTORE PUSH1 0x20 ADD DUP3 DUP1 SLOAD PUSH2 0x526 SWAP1 PUSH2 0x1F0B JUMP JUMPDEST DUP1 ISZERO PUSH2 0x573 JUMPI DUP1 PUSH1 0x1F LT PUSH2 0x548 JUMPI PUSH2 0x100 DUP1 DUP4 SLOAD DIV MUL DUP4 MSTORE SWAP2 PUSH1 0x20 ADD SWAP2 PUSH2 0x573 JUMP JUMPDEST DUP3 ADD SWAP2 SWAP1 PUSH1 0x0 MSTORE PUSH1 0x20 PUSH1 0x0 KECCAK256 SWAP1 JUMPDEST DUP2 SLOAD DUP2 MSTORE SWAP1 PUSH1 0x1 ADD SWAP1 PUSH1 0x20 ADD DUP1 DUP4 GT PUSH2 0x556 JUMPI DUP3 SWAP1 SUB PUSH1 0x1F AND DUP3 ADD SWAP2 JUMPDEST POP POP POP POP POP PUSH1 0x0 DUP1 DUP7 DUP2 MSTORE PUSH1 0x20 ADD SWAP1 DUP2 MSTORE PUSH1 0x20 ADD PUSH1 0x0 KECCAK256 PUSH1 0x1 ADD DUP1 SLOAD PUSH2 0x598 SWAP1 PUSH2 0x1F0B JUMP JUMPDEST DUP1 PUSH1 0x1F ADD PUSH1 0x20 DUP1 SWAP2 DIV MUL PUSH1 0x20 ADD PUSH1 0x40 MLOAD SWAP1 DUP2 ADD PUSH1 0x40 MSTORE DUP1 SWAP3 SWAP2 SWAP1 DUP2 DUP2 MSTORE PUSH1 0x20 ADD DUP3 DUP1 SLOAD PUSH2 0x5C4 SWAP1 PUSH2 0x1F0B JUMP JUMPDEST DUP1 ISZERO PUSH2 0x611 JUMPI DUP1 PUSH1 0x1F LT PUSH2 0x5E6 JUMPI PUSH2 0x100 DUP1 DUP4 SLOAD DIV MUL DUP4 MSTORE SWAP2 PUSH1 0x20 ADD SWAP2 PUSH2 0x611 JUMP JUMPDEST DUP3 ADD SWAP2 SWAP1 PUSH1 0x0 MSTORE PUSH1 0x20 PUSH1 0x0 KECCAK256 SWAP1 JUMPDEST DUP2 SLOAD DUP2 MSTORE SWAP1 PUSH1 0x1 ADD SWAP1 PUSH1 0x20 ADD DUP1 DUP4 GT PUSH2 0x5F4 JUMPI DUP3 SWAP1 SUB PUSH1 0x1F AND DUP3 ADD SWAP2 JUMPDEST POP POP POP POP POP PUSH2 0x13EC JUMP JUMPDEST SWAP2 POP POP SWAP2 SWAP1 POP JUMP JUMPDEST PUSH1 0x0 PUSH1 0x1 PUSH1 0x0 CALLER PUSH20 0xFFFFFFFFFFFFFFFFFFFFFFFFFFFFFFFFFFFFFFFF AND PUSH20 0xFFFFFFFFFFFFFFFFFFFFFFFFFFFFFFFFFFFFFFFF AND DUP2 MSTORE PUSH1 0x20 ADD SWAP1 DUP2 MSTORE PUSH1 0x20 ADD PUSH1 0x0 KECCAK256 PUSH1 0x2 ADD SLOAD SWAP1 POP SWAP1 JUMP JUMPDEST CALLVALUE PUSH1 0x1 PUSH1 0x0 CALLER PUSH20 0xFFFFFFFFFFFFFFFFFFFFFFFFFFFFFFFFFFFFFFFF AND PUSH20 0xFFFFFFFFFFFFFFFFFFFFFFFFFFFFFFFFFFFFFFFF AND DUP2 MSTORE PUSH1 0x20 ADD SWAP1 DUP2 MSTORE PUSH1 0x20 ADD PUSH1 0x0 KECCAK256 PUSH1 0x2 ADD SLOAD PUSH2 0x6BB SWAP2 SWAP1 PUSH2 0x1DF7 JUMP JUMPDEST PUSH1 0x1 PUSH1 0x0 CALLER PUSH20 0xFFFFFFFFFFFFFFFFFFFFFFFFFFFFFFFFFFFFFFFF AND PUSH20 0xFFFFFFFFFFFFFFFFFFFFFFFFFFFFFFFFFFFFFFFF AND DUP2 MSTORE PUSH1 0x20 ADD SWAP1 DUP2 MSTORE PUSH1 0x20 ADD PUSH1 0x0 KECCAK256 PUSH1 0x2 ADD DUP2 SWAP1 SSTORE POP JUMP JUMPDEST PUSH1 0x0 PUSH1 0x40 MLOAD PUSH1 0x20 ADD PUSH2 0x714 SWAP1 PUSH2 0x1C7D JUMP JUMPDEST PUSH1 0x40 MLOAD PUSH1 0x20 DUP2 DUP4 SUB SUB DUP2 MSTORE SWAP1 PUSH1 0x40 MSTORE DUP1 MLOAD SWAP1 PUSH1 0x20 ADD KECCAK256 PUSH1 0x1 PUSH1 0x0 DUP5 PUSH20 0xFFFFFFFFFFFFFFFFFFFFFFFFFFFFFFFFFFFFFFFF AND PUSH20 0xFFFFFFFFFFFFFFFFFFFFFFFFFFFFFFFFFFFFFFFF AND DUP2 MSTORE PUSH1 0x20 ADD SWAP1 DUP2 MSTORE PUSH1 0x20 ADD PUSH1 0x0 KECCAK256 PUSH1 0x0 ADD PUSH1 0x40 MLOAD PUSH1 0x20 ADD PUSH2 0x77C SWAP2 SWAP1 PUSH2 0x1C66 JUMP JUMPDEST PUSH1 0x40 MLOAD PUSH1 0x20 DUP2 DUP4 SUB SUB DUP2 MSTORE SWAP1 PUSH1 0x40 MSTORE DUP1 MLOAD SWAP1 PUSH1 0x20 ADD KECCAK256 EQ PUSH2 0x7E1 JUMPI PUSH1 0x1 PUSH1 0x0 DUP4 PUSH20 0xFFFFFFFFFFFFFFFFFFFFFFFFFFFFFFFFFFFFFFFF AND PUSH20 0xFFFFFFFFFFFFFFFFFFFFFFFFFFFFFFFFFFFFFFFF AND DUP2 MSTORE PUSH1 0x20 ADD SWAP1 DUP2 MSTORE PUSH1 0x20 ADD PUSH1 0x0 KECCAK256 PUSH1 0x1 ADD SLOAD SWAP1 POP PUSH2 0x7E6 JUMP JUMPDEST PUSH1 0x5 SWAP1 POP JUMPDEST SWAP2 SWAP1 POP JUMP JUMPDEST PUSH1 0x60 PUSH1 0x0 PUSH1 0x1 DUP1 PUSH1 0x0 CALLER PUSH20 0xFFFFFFFFFFFFFFFFFFFFFFFFFFFFFFFFFFFFFFFF AND PUSH20 0xFFFFFFFFFFFFFFFFFFFFFFFFFFFFFFFFFFFFFFFF AND DUP2 MSTORE PUSH1 0x20 ADD SWAP1 DUP2 MSTORE PUSH1 0x20 ADD PUSH1 0x0 KECCAK256 PUSH1 0x1 ADD SLOAD EQ ISZERO PUSH2 0x83E JUMPI PUSH1 0x1 SWAP1 POP JUMPDEST PUSH1 0x3 PUSH1 0x1 PUSH1 0x0 CALLER PUSH20 0xFFFFFFFFFFFFFFFFFFFFFFFFFFFFFFFFFFFFFFFF AND PUSH20 0xFFFFFFFFFFFFFFFFFFFFFFFFFFFFFFFFFFFFFFFF AND DUP2 MSTORE PUSH1 0x20 ADD SWAP1 DUP2 MSTORE PUSH1 0x20 ADD PUSH1 0x0 KECCAK256 PUSH1 0x1 ADD SLOAD EQ ISZERO PUSH2 0x88E JUMPI PUSH1 0x1 SWAP1 POP JUMPDEST PUSH1 0x4 PUSH1 0x1 PUSH1 0x0 CALLER PUSH20 0xFFFFFFFFFFFFFFFFFFFFFFFFFFFFFFFFFFFFFFFF AND PUSH20 0xFFFFFFFFFFFFFFFFFFFFFFFFFFFFFFFFFFFFFFFF AND DUP2 MSTORE PUSH1 0x20 ADD SWAP1 DUP2 MSTORE PUSH1 0x20 ADD PUSH1 0x0 KECCAK256 PUSH1 0x1 ADD SLOAD EQ ISZERO PUSH2 0x8DE JUMPI PUSH1 0x1 SWAP1 POP JUMPDEST DUP1 PUSH2 0x91E JUMPI PUSH1 0x40 MLOAD PUSH32 0x8C379A000000000000000000000000000000000000000000000000000000000 DUP2 MSTORE PUSH1 0x4 ADD PUSH2 0x915 SWAP1 PUSH2 0x1CF1 JUMP JUMPDEST PUSH1 0x40 MLOAD DUP1 SWAP2 SUB SWAP1 REVERT JUMPDEST PUSH1 0x0 DUP1 DUP5 DUP2 MSTORE PUSH1 0x20 ADD SWAP1 DUP2 MSTORE PUSH1 0x20 ADD PUSH1 0x0 KECCAK256 PUSH1 0x4 ADD DUP1 SLOAD DUP1 PUSH1 0x20 MUL PUSH1 0x20 ADD PUSH1 0x40 MLOAD SWAP1 DUP2 ADD PUSH1 0x40 MSTORE DUP1 SWAP3 SWAP2 SWAP1 DUP2 DUP2 MSTORE PUSH1 0x20 ADD DUP3 DUP1 SLOAD DUP1 ISZERO PUSH2 0x9B3 JUMPI PUSH1 0x20 MUL DUP3 ADD SWAP2 SWAP1 PUSH1 0x0 MSTORE PUSH1 0x20 PUSH1 0x0 KECCAK256 SWAP1 JUMPDEST DUP2 PUSH1 0x0 SWAP1 SLOAD SWAP1 PUSH2 0x100 EXP SWAP1 DIV PUSH20 0xFFFFFFFFFFFFFFFFFFFFFFFFFFFFFFFFFFFFFFFF AND PUSH20 0xFFFFFFFFFFFFFFFFFFFFFFFFFFFFFFFFFFFFFFFF AND DUP2 MSTORE PUSH1 0x20 ADD SWAP1 PUSH1 0x1 ADD SWAP1 DUP1 DUP4 GT PUSH2 0x969 JUMPI JUMPDEST POP POP POP POP POP SWAP2 POP POP SWAP2 SWAP1 POP JUMP JUMPDEST PUSH1 0x0 DUP1 PUSH1 0x0 DUP4 DUP2 MSTORE PUSH1 0x20 ADD SWAP1 DUP2 MSTORE PUSH1 0x20 ADD PUSH1 0x0 KECCAK256 PUSH1 0x2 ADD SLOAD SWAP1 POP SWAP2 SWAP1 POP JUMP JUMPDEST PUSH1 0x4 PUSH1 0x1 PUSH1 0x0 CALLER PUSH20 0xFFFFFFFFFFFFFFFFFFFFFFFFFFFFFFFFFFFFFFFF AND PUSH20 0xFFFFFFFFFFFFFFFFFFFFFFFFFFFFFFFFFFFFFFFF AND DUP2 MSTORE PUSH1 0x20 ADD SWAP1 DUP2 MSTORE PUSH1 0x20 ADD PUSH1 0x0 KECCAK256 PUSH1 0x1 ADD SLOAD EQ PUSH2 0xA64 JUMPI PUSH1 0x40 MLOAD PUSH32 0x8C379A000000000000000000000000000000000000000000000000000000000 DUP2 MSTORE PUSH1 0x4 ADD PUSH2 0xA5B SWAP1 PUSH2 0x1CF1 JUMP JUMPDEST PUSH1 0x40 MLOAD DUP1 SWAP2 SUB SWAP1 REVERT JUMPDEST DUP2 PUSH1 0x1 PUSH1 0x0 DUP6 PUSH20 0xFFFFFFFFFFFFFFFFFFFFFFFFFFFFFFFFFFFFFFFF AND PUSH20 0xFFFFFFFFFFFFFFFFFFFFFFFFFFFFFFFFFFFFFFFF AND DUP2 MSTORE PUSH1 0x20 ADD SWAP1 DUP2 MSTORE PUSH1 0x20 ADD PUSH1 0x0 KECCAK256 PUSH1 0x0 ADD SWAP1 DUP1 MLOAD SWAP1 PUSH1 0x20 ADD SWAP1 PUSH2 0xABA SWAP3 SWAP2 SWAP1 PUSH2 0x163F JUMP JUMPDEST POP DUP1 PUSH1 0x1 PUSH1 0x0 DUP6 PUSH20 0xFFFFFFFFFFFFFFFFFFFFFFFFFFFFFFFFFFFFFFFF AND PUSH20 0xFFFFFFFFFFFFFFFFFFFFFFFFFFFFFFFFFFFFFFFF AND DUP2 MSTORE PUSH1 0x20 ADD SWAP1 DUP2 MSTORE PUSH1 0x20 ADD PUSH1 0x0 KECCAK256 PUSH1 0x1 ADD DUP2 SWAP1 SSTORE POP POP POP POP JUMP JUMPDEST PUSH1 0x4 PUSH1 0x1 PUSH1 0x0 CALLER PUSH20 0xFFFFFFFFFFFFFFFFFFFFFFFFFFFFFFFFFFFFFFFF AND PUSH20 0xFFFFFFFFFFFFFFFFFFFFFFFFFFFFFFFFFFFFFFFF AND DUP2 MSTORE PUSH1 0x20 ADD SWAP1 DUP2 MSTORE PUSH1 0x20 ADD PUSH1 0x0 KECCAK256 PUSH1 0x1 ADD SLOAD EQ PUSH2 0xB8C JUMPI PUSH1 0x40 MLOAD PUSH32 0x8C379A000000000000000000000000000000000000000000000000000000000 DUP2 MSTORE PUSH1 0x4 ADD PUSH2 0xB83 SWAP1 PUSH2 0x1CF1 JUMP JUMPDEST PUSH1 0x40 MLOAD DUP1 SWAP2 SUB SWAP1 REVERT JUMPDEST PUSH2 0xB94 PUSH2 0x16C5 JUMP JUMPDEST DUP5 DUP2 PUSH1 0x0 ADD DUP2 SWAP1 MSTORE POP DUP4 DUP2 PUSH1 0x20 ADD DUP2 SWAP1 MSTORE POP DUP3 DUP2 PUSH1 0x40 ADD DUP2 DUP2 MSTORE POP POP DUP2 DUP2 PUSH1 0x60 ADD DUP2 DUP2 MSTORE POP POP DUP1 PUSH1 0x0 DUP1 DUP9 DUP2 MSTORE PUSH1 0x20 ADD SWAP1 DUP2 MSTORE PUSH1 0x20 ADD PUSH1 0x0 KECCAK256 PUSH1 0x0 DUP3 ADD MLOAD DUP2 PUSH1 0x0 ADD SWAP1 DUP1 MLOAD SWAP1 PUSH1 0x20 ADD SWAP1 PUSH2 0xBE9 SWAP3 SWAP2 SWAP1 PUSH2 0x163F JUMP JUMPDEST POP PUSH1 0x20 DUP3 ADD MLOAD DUP2 PUSH1 0x1 ADD SWAP1 DUP1 MLOAD SWAP1 PUSH1 0x20 ADD SWAP1 PUSH2 0xC06 SWAP3 SWAP2 SWAP1 PUSH2 0x163F JUMP JUMPDEST POP PUSH1 0x40 DUP3 ADD MLOAD DUP2 PUSH1 0x2 ADD SSTORE PUSH1 0x60 DUP3 ADD MLOAD DUP2 PUSH1 0x3 ADD SSTORE PUSH1 0x80 DUP3 ADD MLOAD DUP2 PUSH1 0x4 ADD SWAP1 DUP1 MLOAD SWAP1 PUSH1 0x20 ADD SWAP1 PUSH2 0xC37 SWAP3 SWAP2 SWAP1 PUSH2 0x16F4 JUMP JUMPDEST POP SWAP1 POP POP POP POP POP POP POP POP JUMP JUMPDEST PUSH1 0x60 PUSH1 0x40 MLOAD PUSH1 0x20 ADD PUSH2 0xC54 SWAP1 PUSH2 0x1C7D JUMP JUMPDEST PUSH1 0x40 MLOAD PUSH1 0x20 DUP2 DUP4 SUB SUB DUP2 MSTORE SWAP1 PUSH1 0x40 MSTORE DUP1 MLOAD SWAP1 PUSH1 0x20 ADD KECCAK256 PUSH1 0x1 PUSH1 0x0 DUP5 PUSH20 0xFFFFFFFFFFFFFFFFFFFFFFFFFFFFFFFFFFFFFFFF AND PUSH20 0xFFFFFFFFFFFFFFFFFFFFFFFFFFFFFFFFFFFFFFFF AND DUP2 MSTORE PUSH1 0x20 ADD SWAP1 DUP2 MSTORE PUSH1 0x20 ADD PUSH1 0x0 KECCAK256 PUSH1 0x0 ADD PUSH1 0x40 MLOAD PUSH1 0x20 ADD PUSH2 0xCBC SWAP2 SWAP1 PUSH2 0x1C66 JUMP JUMPDEST PUSH1 0x40 MLOAD PUSH1 0x20 DUP2 DUP4 SUB SUB DUP2 MSTORE SWAP1 PUSH1 0x40 MSTORE DUP1 MLOAD SWAP1 PUSH1 0x20 ADD KECCAK256 EQ PUSH2 0xDA9 JUMPI PUSH1 0x1 PUSH1 0x0 DUP4 PUSH20 0xFFFFFFFFFFFFFFFFFFFFFFFFFFFFFFFFFFFFFFFF AND PUSH20 0xFFFFFFFFFFFFFFFFFFFFFFFFFFFFFFFFFFFFFFFF AND DUP2 MSTORE PUSH1 0x20 ADD SWAP1 DUP2 MSTORE PUSH1 0x20 ADD PUSH1 0x0 KECCAK256 PUSH1 0x0 ADD DUP1 SLOAD PUSH2 0xD24 SWAP1 PUSH2 0x1F0B JUMP JUMPDEST DUP1 PUSH1 0x1F ADD PUSH1 0x20 DUP1 SWAP2 DIV MUL PUSH1 0x20 ADD PUSH1 0x40 MLOAD SWAP1 DUP2 ADD PUSH1 0x40 MSTORE DUP1 SWAP3 SWAP2 SWAP1 DUP2 DUP2 MSTORE PUSH1 0x20 ADD DUP3 DUP1 SLOAD PUSH2 0xD50 SWAP1 PUSH2 0x1F0B JUMP JUMPDEST DUP1 ISZERO PUSH2 0xD9D JUMPI DUP1 PUSH1 0x1F LT PUSH2 0xD72 JUMPI PUSH2 0x100 DUP1 DUP4 SLOAD DIV MUL DUP4 MSTORE SWAP2 PUSH1 0x20 ADD SWAP2 PUSH2 0xD9D JUMP JUMPDEST DUP3 ADD SWAP2 SWAP1 PUSH1 0x0 MSTORE PUSH1 0x20 PUSH1 0x0 KECCAK256 SWAP1 JUMPDEST DUP2 SLOAD DUP2 MSTORE SWAP1 PUSH1 0x1 ADD SWAP1 PUSH1 0x20 ADD DUP1 DUP4 GT PUSH2 0xD80 JUMPI DUP3 SWAP1 SUB PUSH1 0x1F AND DUP3 ADD SWAP2 JUMPDEST POP POP POP POP POP SWAP1 POP PUSH2 0xDE2 JUMP JUMPDEST PUSH1 0x40 MLOAD DUP1 PUSH1 0x40 ADD PUSH1 0x40 MSTORE DUP1 PUSH1 0x5 DUP2 MSTORE PUSH1 0x20 ADD PUSH32 0x4E656D6165000000000000000000000000000000000000000000000000000000 DUP2 MSTORE POP SWAP1 POP JUMPDEST SWAP2 SWAP1 POP JUMP JUMPDEST PUSH1 0x0 DUP1 PUSH1 0x0 DUP1 DUP5 DUP2 MSTORE PUSH1 0x20 ADD SWAP1 DUP2 MSTORE PUSH1 0x20 ADD PUSH1 0x0 KECCAK256 PUSH1 0x2 ADD SLOAD PUSH1 0x1 PUSH1 0x0 CALLER PUSH20 0xFFFFFFFFFFFFFFFFFFFFFFFFFFFFFFFFFFFFFFFF AND PUSH20 0xFFFFFFFFFFFFFFFFFFFFFFFFFFFFFFFFFFFFFFFF AND DUP2 MSTORE PUSH1 0x20 ADD SWAP1 DUP2 MSTORE PUSH1 0x20 ADD PUSH1 0x0 KECCAK256 PUSH1 0x2 ADD SLOAD PUSH2 0xE4D SWAP2 SWAP1 PUSH2 0x1E4D JUMP JUMPDEST LT PUSH2 0xF7A JUMPI PUSH1 0x0 DUP1 DUP4 DUP2 MSTORE PUSH1 0x20 ADD SWAP1 DUP2 MSTORE PUSH1 0x20 ADD PUSH1 0x0 KECCAK256 PUSH1 0x4 ADD CALLER SWAP1 DUP1 PUSH1 0x1 DUP2 SLOAD ADD DUP1 DUP3 SSTORE DUP1 SWAP2 POP POP PUSH1 0x1 SWAP1 SUB SWAP1 PUSH1 0x0 MSTORE PUSH1 0x20 PUSH1 0x0 KECCAK256 ADD PUSH1 0x0 SWAP1 SWAP2 SWAP1 SWAP2 SWAP1 SWAP2 PUSH2 0x100 EXP DUP2 SLOAD DUP2 PUSH20 0xFFFFFFFFFFFFFFFFFFFFFFFFFFFFFFFFFFFFFFFF MUL NOT AND SWAP1 DUP4 PUSH20 0xFFFFFFFFFFFFFFFFFFFFFFFFFFFFFFFFFFFFFFFF AND MUL OR SWAP1 SSTORE POP PUSH1 0x0 DUP1 DUP4 DUP2 MSTORE PUSH1 0x20 ADD SWAP1 DUP2 MSTORE PUSH1 0x20 ADD PUSH1 0x0 KECCAK256 PUSH1 0x2 ADD SLOAD PUSH1 0x1 PUSH1 0x0 CALLER PUSH20 0xFFFFFFFFFFFFFFFFFFFFFFFFFFFFFFFFFFFFFFFF AND PUSH20 0xFFFFFFFFFFFFFFFFFFFFFFFFFFFFFFFFFFFFFFFF AND DUP2 MSTORE PUSH1 0x20 ADD SWAP1 DUP2 MSTORE PUSH1 0x20 ADD PUSH1 0x0 KECCAK256 PUSH1 0x2 ADD SLOAD PUSH2 0xF2B SWAP2 SWAP1 PUSH2 0x1E4D JUMP JUMPDEST PUSH1 0x1 PUSH1 0x0 CALLER PUSH20 0xFFFFFFFFFFFFFFFFFFFFFFFFFFFFFFFFFFFFFFFF AND PUSH20 0xFFFFFFFFFFFFFFFFFFFFFFFFFFFFFFFFFFFFFFFF AND DUP2 MSTORE PUSH1 0x20 ADD SWAP1 DUP2 MSTORE PUSH1 0x20 ADD PUSH1 0x0 KECCAK256 PUSH1 0x2 ADD DUP2 SWAP1 SSTORE POP PUSH1 0x1 SWAP1 POP PUSH2 0xF7F JUMP JUMPDEST PUSH1 0x0 SWAP1 POP JUMPDEST SWAP2 SWAP1 POP JUMP JUMPDEST PUSH1 0x0 PUSH1 0x1 DUP1 PUSH1 0x0 CALLER PUSH20 0xFFFFFFFFFFFFFFFFFFFFFFFFFFFFFFFFFFFFFFFF AND PUSH20 0xFFFFFFFFFFFFFFFFFFFFFFFFFFFFFFFFFFFFFFFF AND DUP2 MSTORE PUSH1 0x20 ADD SWAP1 DUP2 MSTORE PUSH1 0x20 ADD PUSH1 0x0 KECCAK256 PUSH1 0x1 ADD SLOAD EQ ISZERO PUSH2 0xFD5 JUMPI PUSH1 0x1 SWAP1 POP JUMPDEST PUSH1 0x4 PUSH1 0x1 PUSH1 0x0 CALLER PUSH20 0xFFFFFFFFFFFFFFFFFFFFFFFFFFFFFFFFFFFFFFFF AND PUSH20 0xFFFFFFFFFFFFFFFFFFFFFFFFFFFFFFFFFFFFFFFF AND DUP2 MSTORE PUSH1 0x20 ADD SWAP1 DUP2 MSTORE PUSH1 0x20 ADD PUSH1 0x0 KECCAK256 PUSH1 0x1 ADD SLOAD EQ ISZERO PUSH2 0x1025 JUMPI PUSH1 0x1 SWAP1 POP JUMPDEST DUP1 PUSH2 0x1065 JUMPI PUSH1 0x40 MLOAD PUSH32 0x8C379A000000000000000000000000000000000000000000000000000000000 DUP2 MSTORE PUSH1 0x4 ADD PUSH2 0x105C SWAP1 PUSH2 0x1CF1 JUMP JUMPDEST PUSH1 0x40 MLOAD DUP1 SWAP2 SUB SWAP1 REVERT JUMPDEST DUP2 PUSH1 0x2 PUSH1 0x0 DUP6 DUP2 MSTORE PUSH1 0x20 ADD SWAP1 DUP2 MSTORE PUSH1 0x20 ADD PUSH1 0x0 KECCAK256 PUSH1 0x1 ADD PUSH1 0x0 PUSH2 0x100 EXP DUP2 SLOAD DUP2 PUSH1 0xFF MUL NOT AND SWAP1 DUP4 ISZERO ISZERO MUL OR SWAP1 SSTORE POP POP POP POP JUMP JUMPDEST PUSH1 0x4 PUSH1 0x1 PUSH1 0x0 CALLER PUSH20 0xFFFFFFFFFFFFFFFFFFFFFFFFFFFFFFFFFFFFFFFF AND PUSH20 0xFFFFFFFFFFFFFFFFFFFFFFFFFFFFFFFFFFFFFFFF AND DUP2 MSTORE PUSH1 0x20 ADD SWAP1 DUP2 MSTORE PUSH1 0x20 ADD PUSH1 0x0 KECCAK256 PUSH1 0x1 ADD SLOAD EQ PUSH2 0x111D JUMPI PUSH1 0x40 MLOAD PUSH32 0x8C379A000000000000000000000000000000000000000000000000000000000 DUP2 MSTORE PUSH1 0x4 ADD PUSH2 0x1114 SWAP1 PUSH2 0x1CF1 JUMP JUMPDEST PUSH1 0x40 MLOAD DUP1 SWAP2 SUB SWAP1 REVERT JUMPDEST CALLER PUSH20 0xFFFFFFFFFFFFFFFFFFFFFFFFFFFFFFFFFFFFFFFF AND PUSH2 0x8FC SELFBALANCE SWAP1 DUP2 ISZERO MUL SWAP1 PUSH1 0x40 MLOAD PUSH1 0x0 PUSH1 0x40 MLOAD DUP1 DUP4 SUB DUP2 DUP6 DUP9 DUP9 CALL SWAP4 POP POP POP POP ISZERO DUP1 ISZERO PUSH2 0x1163 JUMPI RETURNDATASIZE PUSH1 0x0 DUP1 RETURNDATACOPY RETURNDATASIZE PUSH1 0x0 REVERT JUMPDEST POP JUMP JUMPDEST PUSH1 0x4 PUSH1 0x1 PUSH1 0x0 CALLER PUSH20 0xFFFFFFFFFFFFFFFFFFFFFFFFFFFFFFFFFFFFFFFF AND PUSH20 0xFFFFFFFFFFFFFFFFFFFFFFFFFFFFFFFFFFFFFFFF AND DUP2 MSTORE PUSH1 0x20 ADD SWAP1 DUP2 MSTORE PUSH1 0x20 ADD PUSH1 0x0 KECCAK256 PUSH1 0x1 ADD SLOAD EQ PUSH2 0x11EB JUMPI PUSH1 0x40 MLOAD PUSH32 0x8C379A000000000000000000000000000000000000000000000000000000000 DUP2 MSTORE PUSH1 0x4 ADD PUSH2 0x11E2 SWAP1 PUSH2 0x1CF1 JUMP JUMPDEST PUSH1 0x40 MLOAD DUP1 SWAP2 SUB SWAP1 REVERT JUMPDEST PUSH2 0x11F3 PUSH2 0x177E JUMP JUMPDEST DUP4 DUP2 PUSH1 0x0 ADD DUP2 DUP2 MSTORE POP POP DUP3 DUP2 PUSH1 0x20 ADD SWAP1 ISZERO ISZERO SWAP1 DUP2 ISZERO ISZERO DUP2 MSTORE POP POP DUP2 DUP2 PUSH1 0x40 ADD DUP2 DUP2 MSTORE POP POP DUP1 PUSH1 0x2 PUSH1 0x0 DUP7 DUP2 MSTORE PUSH1 0x20 ADD SWAP1 DUP2 MSTORE PUSH1 0x20 ADD PUSH1 0x0 KECCAK256 PUSH1 0x0 DUP3 ADD MLOAD DUP2 PUSH1 0x0 ADD SSTORE PUSH1 0x20 DUP3 ADD MLOAD DUP2 PUSH1 0x1 ADD PUSH1 0x0 PUSH2 0x100 EXP DUP2 SLOAD DUP2 PUSH1 0xFF MUL NOT AND SWAP1 DUP4 ISZERO ISZERO MUL OR SWAP1 SSTORE POP PUSH1 0x40 DUP3 ADD MLOAD DUP2 PUSH1 0x2 ADD SSTORE SWAP1 POP POP POP POP POP POP JUMP JUMPDEST PUSH1 0x0 DUP1 PUSH1 0x0 SWAP1 POP PUSH1 0x1 DUP1 PUSH1 0x0 CALLER PUSH20 0xFFFFFFFFFFFFFFFFFFFFFFFFFFFFFFFFFFFFFFFF AND PUSH20 0xFFFFFFFFFFFFFFFFFFFFFFFFFFFFFFFFFFFFFFFF AND DUP2 MSTORE PUSH1 0x20 ADD SWAP1 DUP2 MSTORE PUSH1 0x20 ADD PUSH1 0x0 KECCAK256 PUSH1 0x1 ADD SLOAD EQ ISZERO PUSH2 0x12BE JUMPI PUSH1 0x1 SWAP1 POP JUMPDEST PUSH1 0x4 PUSH1 0x1 PUSH1 0x0 CALLER PUSH20 0xFFFFFFFFFFFFFFFFFFFFFFFFFFFFFFFFFFFFFFFF AND PUSH20 0xFFFFFFFFFFFFFFFFFFFFFFFFFFFFFFFFFFFFFFFF AND DUP2 MSTORE PUSH1 0x20 ADD SWAP1 DUP2 MSTORE PUSH1 0x20 ADD PUSH1 0x0 KECCAK256 PUSH1 0x1 ADD SLOAD EQ ISZERO PUSH2 0x130E JUMPI PUSH1 0x1 SWAP1 POP JUMPDEST DUP1 PUSH2 0x134E JUMPI PUSH1 0x40 MLOAD PUSH32 0x8C379A000000000000000000000000000000000000000000000000000000000 DUP2 MSTORE PUSH1 0x4 ADD PUSH2 0x1345 SWAP1 PUSH2 0x1CF1 JUMP JUMPDEST PUSH1 0x40 MLOAD DUP1 SWAP2 SUB SWAP1 REVERT JUMPDEST PUSH1 0x1 ISZERO ISZERO PUSH1 0x2 PUSH1 0x0 DUP6 DUP2 MSTORE PUSH1 0x20 ADD SWAP1 DUP2 MSTORE PUSH1 0x20 ADD PUSH1 0x0 KECCAK256 PUSH1 0x1 ADD PUSH1 0x0 SWAP1 SLOAD SWAP1 PUSH2 0x100 EXP SWAP1 DIV PUSH1 0xFF AND ISZERO ISZERO EQ ISZERO PUSH2 0x1387 JUMPI PUSH1 0x1 SWAP2 POP PUSH2 0x138C JUMP JUMPDEST PUSH1 0x0 SWAP2 POP JUMPDEST POP SWAP2 SWAP1 POP JUMP JUMPDEST DUP1 PUSH1 0x1 PUSH1 0x0 CALLER PUSH20 0xFFFFFFFFFFFFFFFFFFFFFFFFFFFFFFFFFFFFFFFF AND PUSH20 0xFFFFFFFFFFFFFFFFFFFFFFFFFFFFFFFFFFFFFFFF AND DUP2 MSTORE PUSH1 0x20 ADD SWAP1 DUP2 MSTORE PUSH1 0x20 ADD PUSH1 0x0 KECCAK256 PUSH1 0x0 ADD SWAP1 DUP1 MLOAD SWAP1 PUSH1 0x20 ADD SWAP1 PUSH2 0x13E8 SWAP3 SWAP2 SWAP1 PUSH2 0x163F JUMP JUMPDEST POP POP JUMP JUMPDEST PUSH1 0x60 PUSH1 0x0 DUP1 PUSH1 0x0 SWAP1 POP PUSH1 0x0 PUSH1 0x1 DUP6 MLOAD DUP8 MLOAD PUSH2 0x1407 SWAP2 SWAP1 PUSH2 0x1DF7 JUMP JUMPDEST PUSH2 0x1411 SWAP2 SWAP1 PUSH2 0x1DF7 JUMP JUMPDEST PUSH8 0xFFFFFFFFFFFFFFFF DUP2 GT ISZERO PUSH2 0x142A JUMPI PUSH2 0x1429 PUSH2 0x2044 JUMP JUMPDEST JUMPDEST PUSH1 0x40 MLOAD SWAP1 DUP1 DUP3 MSTORE DUP1 PUSH1 0x1F ADD PUSH1 0x1F NOT AND PUSH1 0x20 ADD DUP3 ADD PUSH1 0x40 MSTORE DUP1 ISZERO PUSH2 0x145C JUMPI DUP2 PUSH1 0x20 ADD PUSH1 0x1 DUP3 MUL DUP1 CALLDATASIZE DUP4 CALLDATACOPY DUP1 DUP3 ADD SWAP2 POP POP SWAP1 POP JUMPDEST POP SWAP1 POP PUSH1 0x0 DUP2 SWAP1 POP PUSH1 0x0 DUP8 SWAP1 POP PUSH1 0x0 DUP8 SWAP1 POP PUSH1 0x0 SWAP6 POP JUMPDEST DUP2 MLOAD DUP7 LT ISZERO PUSH2 0x14FD JUMPI DUP2 DUP7 DUP2 MLOAD DUP2 LT PUSH2 0x148F JUMPI PUSH2 0x148E PUSH2 0x2015 JUMP JUMPDEST JUMPDEST PUSH1 0x20 ADD ADD MLOAD PUSH1 0xF8 SHR PUSH1 0xF8 SHL DUP4 DUP7 DUP2 MLOAD DUP2 LT PUSH2 0x14AD JUMPI PUSH2 0x14AC PUSH2 0x2015 JUMP JUMPDEST JUMPDEST PUSH1 0x20 ADD ADD SWAP1 PUSH31 0xFFFFFFFFFFFFFFFFFFFFFFFFFFFFFFFFFFFFFFFFFFFFFFFFFFFFFFFFFFFFFF NOT AND SWAP1 DUP2 PUSH1 0x0 BYTE SWAP1 MSTORE8 POP DUP5 DUP1 PUSH2 0x14E7 SWAP1 PUSH2 0x1F6E JUMP JUMPDEST SWAP6 POP POP DUP6 DUP1 PUSH2 0x14F5 SWAP1 PUSH2 0x1F6E JUMP JUMPDEST SWAP7 POP POP PUSH2 0x1473 JUMP JUMPDEST PUSH1 0x40 MLOAD DUP1 PUSH1 0x40 ADD PUSH1 0x40 MSTORE DUP1 PUSH1 0x1 DUP2 MSTORE PUSH1 0x20 ADD PUSH32 0x2000000000000000000000000000000000000000000000000000000000000000 DUP2 MSTORE POP PUSH1 0x0 DUP2 MLOAD DUP2 LT PUSH2 0x1546 JUMPI PUSH2 0x1545 PUSH2 0x2015 JUMP JUMPDEST JUMPDEST PUSH1 0x20 ADD ADD MLOAD PUSH1 0xF8 SHR PUSH1 0xF8 SHL DUP4 DUP7 DUP2 MLOAD DUP2 LT PUSH2 0x1564 JUMPI PUSH2 0x1563 PUSH2 0x2015 JUMP JUMPDEST JUMPDEST PUSH1 0x20 ADD ADD SWAP1 PUSH31 0xFFFFFFFFFFFFFFFFFFFFFFFFFFFFFFFFFFFFFFFFFFFFFFFFFFFFFFFFFFFFFF NOT AND SWAP1 DUP2 PUSH1 0x0 BYTE SWAP1 MSTORE8 POP DUP5 DUP1 PUSH2 0x159E SWAP1 PUSH2 0x1F6E JUMP JUMPDEST SWAP6 POP POP PUSH1 0x0 SWAP6 POP JUMPDEST DUP1 MLOAD DUP7 LT ISZERO PUSH2 0x1630 JUMPI DUP1 DUP7 DUP2 MLOAD DUP2 LT PUSH2 0x15C2 JUMPI PUSH2 0x15C1 PUSH2 0x2015 JUMP JUMPDEST JUMPDEST PUSH1 0x20 ADD ADD MLOAD PUSH1 0xF8 SHR PUSH1 0xF8 SHL DUP4 DUP7 DUP2 MLOAD DUP2 LT PUSH2 0x15E0 JUMPI PUSH2 0x15DF PUSH2 0x2015 JUMP JUMPDEST JUMPDEST PUSH1 0x20 ADD ADD SWAP1 PUSH31 0xFFFFFFFFFFFFFFFFFFFFFFFFFFFFFFFFFFFFFFFFFFFFFFFFFFFFFFFFFFFFFF NOT AND SWAP1 DUP2 PUSH1 0x0 BYTE SWAP1 MSTORE8 POP DUP5 DUP1 PUSH2 0x161A SWAP1 PUSH2 0x1F6E JUMP JUMPDEST SWAP6 POP POP DUP6 DUP1 PUSH2 0x1628 SWAP1 PUSH2 0x1F6E JUMP JUMPDEST SWAP7 POP POP PUSH2 0x15A6 JUMP JUMPDEST DUP4 SWAP7 POP POP POP POP POP POP POP SWAP3 SWAP2 POP POP JUMP JUMPDEST DUP3 DUP1 SLOAD PUSH2 0x164B SWAP1 PUSH2 0x1F0B JUMP JUMPDEST SWAP1 PUSH1 0x0 MSTORE PUSH1 0x20 PUSH1 0x0 KECCAK256 SWAP1 PUSH1 0x1F ADD PUSH1 0x20 SWAP1 DIV DUP2 ADD SWAP3 DUP3 PUSH2 0x166D JUMPI PUSH1 0x0 DUP6 SSTORE PUSH2 0x16B4 JUMP JUMPDEST DUP3 PUSH1 0x1F LT PUSH2 0x1686 JUMPI DUP1 MLOAD PUSH1 0xFF NOT AND DUP4 DUP1 ADD OR DUP6 SSTORE PUSH2 0x16B4 JUMP JUMPDEST DUP3 DUP1 ADD PUSH1 0x1 ADD DUP6 SSTORE DUP3 ISZERO PUSH2 0x16B4 JUMPI SWAP2 DUP3 ADD JUMPDEST DUP3 DUP2 GT ISZERO PUSH2 0x16B3 JUMPI DUP3 MLOAD DUP3 SSTORE SWAP2 PUSH1 0x20 ADD SWAP2 SWAP1 PUSH1 0x1 ADD SWAP1 PUSH2 0x1698 JUMP JUMPDEST JUMPDEST POP SWAP1 POP PUSH2 0x16C1 SWAP2 SWAP1 PUSH2 0x17A1 JUMP JUMPDEST POP SWAP1 JUMP JUMPDEST PUSH1 0x40 MLOAD DUP1 PUSH1 0xA0 ADD PUSH1 0x40 MSTORE DUP1 PUSH1 0x60 DUP2 MSTORE PUSH1 0x20 ADD PUSH1 0x60 DUP2 MSTORE PUSH1 0x20 ADD PUSH1 0x0 DUP2 MSTORE PUSH1 0x20 ADD PUSH1 0x0 DUP2 MSTORE PUSH1 0x20 ADD PUSH1 0x60 DUP2 MSTORE POP SWAP1 JUMP JUMPDEST DUP3 DUP1 SLOAD DUP3 DUP3 SSTORE SWAP1 PUSH1 0x0 MSTORE PUSH1 0x20 PUSH1 0x0 KECCAK256 SWAP1 DUP2 ADD SWAP3 DUP3 ISZERO PUSH2 0x176D JUMPI SWAP2 PUSH1 0x20 MUL DUP3 ADD JUMPDEST DUP3 DUP2 GT ISZERO PUSH2 0x176C JUMPI DUP3 MLOAD DUP3 PUSH1 0x0 PUSH2 0x100 EXP DUP2 SLOAD DUP2 PUSH20 0xFFFFFFFFFFFFFFFFFFFFFFFFFFFFFFFFFFFFFFFF MUL NOT AND SWAP1 DUP4 PUSH20 0xFFFFFFFFFFFFFFFFFFFFFFFFFFFFFFFFFFFFFFFF AND MUL OR SWAP1 SSTORE POP SWAP2 PUSH1 0x20 ADD SWAP2 SWAP1 PUSH1 0x1 ADD SWAP1 PUSH2 0x1714 JUMP JUMPDEST JUMPDEST POP SWAP1 POP PUSH2 0x177A SWAP2 SWAP1 PUSH2 0x17A1 JUMP JUMPDEST POP SWAP1 JUMP JUMPDEST PUSH1 0x40 MLOAD DUP1 PUSH1 0x60 ADD PUSH1 0x40 MSTORE DUP1 PUSH1 0x0 DUP2 MSTORE PUSH1 0x20 ADD PUSH1 0x0 ISZERO ISZERO DUP2 MSTORE PUSH1 0x20 ADD PUSH1 0x0 DUP2 MSTORE POP SWAP1 JUMP JUMPDEST JUMPDEST DUP1 DUP3 GT ISZERO PUSH2 0x17BA JUMPI PUSH1 0x0 DUP2 PUSH1 0x0 SWAP1 SSTORE POP PUSH1 0x1 ADD PUSH2 0x17A2 JUMP JUMPDEST POP SWAP1 JUMP JUMPDEST PUSH1 0x0 PUSH2 0x17D1 PUSH2 0x17CC DUP5 PUSH2 0x1D51 JUMP JUMPDEST PUSH2 0x1D2C JUMP JUMPDEST SWAP1 POP DUP3 DUP2 MSTORE PUSH1 0x20 DUP2 ADD DUP5 DUP5 DUP5 ADD GT ISZERO PUSH2 0x17ED JUMPI PUSH2 0x17EC PUSH2 0x2078 JUMP JUMPDEST JUMPDEST PUSH2 0x17F8 DUP5 DUP3 DUP6 PUSH2 0x1EC9 JUMP JUMPDEST POP SWAP4 SWAP3 POP POP POP JUMP JUMPDEST PUSH1 0x0 DUP2 CALLDATALOAD SWAP1 POP PUSH2 0x180F DUP2 PUSH2 0x20C4 JUMP JUMPDEST SWAP3 SWAP2 POP POP JUMP JUMPDEST PUSH1 0x0 DUP2 CALLDATALOAD SWAP1 POP PUSH2 0x1824 DUP2 PUSH2 0x20DB JUMP JUMPDEST SWAP3 SWAP2 POP POP JUMP JUMPDEST PUSH1 0x0 DUP3 PUSH1 0x1F DUP4 ADD SLT PUSH2 0x183F JUMPI PUSH2 0x183E PUSH2 0x2073 JUMP JUMPDEST JUMPDEST DUP2 CALLDATALOAD PUSH2 0x184F DUP5 DUP3 PUSH1 0x20 DUP7 ADD PUSH2 0x17BE JUMP JUMPDEST SWAP2 POP POP SWAP3 SWAP2 POP POP JUMP JUMPDEST PUSH1 0x0 DUP2 CALLDATALOAD SWAP1 POP PUSH2 0x1867 DUP2 PUSH2 0x20F2 JUMP JUMPDEST SWAP3 SWAP2 POP POP JUMP JUMPDEST PUSH1 0x0 PUSH1 0x20 DUP3 DUP5 SUB SLT ISZERO PUSH2 0x1883 JUMPI PUSH2 0x1882 PUSH2 0x2082 JUMP JUMPDEST JUMPDEST PUSH1 0x0 PUSH2 0x1891 DUP5 DUP3 DUP6 ADD PUSH2 0x1800 JUMP JUMPDEST SWAP2 POP POP SWAP3 SWAP2 POP POP JUMP JUMPDEST PUSH1 0x0 DUP1 PUSH1 0x0 PUSH1 0x60 DUP5 DUP7 SUB SLT ISZERO PUSH2 0x18B3 JUMPI PUSH2 0x18B2 PUSH2 0x2082 JUMP JUMPDEST JUMPDEST PUSH1 0x0 PUSH2 0x18C1 DUP7 DUP3 DUP8 ADD PUSH2 0x1800 JUMP JUMPDEST SWAP4 POP POP PUSH1 0x20 DUP5 ADD CALLDATALOAD PUSH8 0xFFFFFFFFFFFFFFFF DUP2 GT ISZERO PUSH2 0x18E2 JUMPI PUSH2 0x18E1 PUSH2 0x207D JUMP JUMPDEST JUMPDEST PUSH2 0x18EE DUP7 DUP3 DUP8 ADD PUSH2 0x182A JUMP JUMPDEST SWAP3 POP POP PUSH1 0x40 PUSH2 0x18FF DUP7 DUP3 DUP8 ADD PUSH2 0x1858 JUMP JUMPDEST SWAP2 POP POP SWAP3 POP SWAP3 POP SWAP3 JUMP JUMPDEST PUSH1 0x0 PUSH1 0x20 DUP3 DUP5 SUB SLT ISZERO PUSH2 0x191F JUMPI PUSH2 0x191E PUSH2 0x2082 JUMP JUMPDEST JUMPDEST PUSH1 0x0 DUP3 ADD CALLDATALOAD PUSH8 0xFFFFFFFFFFFFFFFF DUP2 GT ISZERO PUSH2 0x193D JUMPI PUSH2 0x193C PUSH2 0x207D JUMP JUMPDEST JUMPDEST PUSH2 0x1949 DUP5 DUP3 DUP6 ADD PUSH2 0x182A JUMP JUMPDEST SWAP2 POP POP SWAP3 SWAP2 POP POP JUMP JUMPDEST PUSH1 0x0 PUSH1 0x20 DUP3 DUP5 SUB SLT ISZERO PUSH2 0x1968 JUMPI PUSH2 0x1967 PUSH2 0x2082 JUMP JUMPDEST JUMPDEST PUSH1 0x0 PUSH2 0x1976 DUP5 DUP3 DUP6 ADD PUSH2 0x1858 JUMP JUMPDEST SWAP2 POP POP SWAP3 SWAP2 POP POP JUMP JUMPDEST PUSH1 0x0 DUP1 PUSH1 0x40 DUP4 DUP6 SUB SLT ISZERO PUSH2 0x1996 JUMPI PUSH2 0x1995 PUSH2 0x2082 JUMP JUMPDEST JUMPDEST PUSH1 0x0 PUSH2 0x19A4 DUP6 DUP3 DUP7 ADD PUSH2 0x1858 JUMP JUMPDEST SWAP3 POP POP PUSH1 0x20 PUSH2 0x19B5 DUP6 DUP3 DUP7 ADD PUSH2 0x1815 JUMP JUMPDEST SWAP2 POP POP SWAP3 POP SWAP3 SWAP1 POP JUMP JUMPDEST PUSH1 0x0 DUP1 PUSH1 0x0 PUSH1 0x60 DUP5 DUP7 SUB SLT ISZERO PUSH2 0x19D8 JUMPI PUSH2 0x19D7 PUSH2 0x2082 JUMP JUMPDEST JUMPDEST PUSH1 0x0 PUSH2 0x19E6 DUP7 DUP3 DUP8 ADD PUSH2 0x1858 JUMP JUMPDEST SWAP4 POP POP PUSH1 0x20 PUSH2 0x19F7 DUP7 DUP3 DUP8 ADD PUSH2 0x1815 JUMP JUMPDEST SWAP3 POP POP PUSH1 0x40 PUSH2 0x1A08 DUP7 DUP3 DUP8 ADD PUSH2 0x1858 JUMP JUMPDEST SWAP2 POP POP SWAP3 POP SWAP3 POP SWAP3 JUMP JUMPDEST PUSH1 0x0 DUP1 PUSH1 0x0 DUP1 PUSH1 0x0 PUSH1 0xA0 DUP7 DUP9 SUB SLT ISZERO PUSH2 0x1A2E JUMPI PUSH2 0x1A2D PUSH2 0x2082 JUMP JUMPDEST JUMPDEST PUSH1 0x0 PUSH2 0x1A3C DUP9 DUP3 DUP10 ADD PUSH2 0x1858 JUMP JUMPDEST SWAP6 POP POP PUSH1 0x20 DUP7 ADD CALLDATALOAD PUSH8 0xFFFFFFFFFFFFFFFF DUP2 GT ISZERO PUSH2 0x1A5D JUMPI PUSH2 0x1A5C PUSH2 0x207D JUMP JUMPDEST JUMPDEST PUSH2 0x1A69 DUP9 DUP3 DUP10 ADD PUSH2 0x182A JUMP JUMPDEST SWAP5 POP POP PUSH1 0x40 DUP7 ADD CALLDATALOAD PUSH8 0xFFFFFFFFFFFFFFFF DUP2 GT ISZERO PUSH2 0x1A8A JUMPI PUSH2 0x1A89 PUSH2 0x207D JUMP JUMPDEST JUMPDEST PUSH2 0x1A96 DUP9 DUP3 DUP10 ADD PUSH2 0x182A JUMP JUMPDEST SWAP4 POP POP PUSH1 0x60 PUSH2 0x1AA7 DUP9 DUP3 DUP10 ADD PUSH2 0x1858 JUMP JUMPDEST SWAP3 POP POP PUSH1 0x80 PUSH2 0x1AB8 DUP9 DUP3 DUP10 ADD PUSH2 0x1858 JUMP JUMPDEST SWAP2 POP POP SWAP3 SWAP6 POP SWAP3 SWAP6 SWAP1 SWAP4 POP JUMP JUMPDEST PUSH1 0x0 PUSH2 0x1AD1 DUP4 DUP4 PUSH2 0x1ADD JUMP JUMPDEST PUSH1 0x20 DUP4 ADD SWAP1 POP SWAP3 SWAP2 POP POP JUMP JUMPDEST PUSH2 0x1AE6 DUP2 PUSH2 0x1E81 JUMP JUMPDEST DUP3 MSTORE POP POP JUMP JUMPDEST PUSH1 0x0 PUSH2 0x1AF7 DUP3 PUSH2 0x1DA7 JUMP JUMPDEST PUSH2 0x1B01 DUP2 DUP6 PUSH2 0x1DCA JUMP JUMPDEST SWAP4 POP PUSH2 0x1B0C DUP4 PUSH2 0x1D82 JUMP JUMPDEST DUP1 PUSH1 0x0 JUMPDEST DUP4 DUP2 LT ISZERO PUSH2 0x1B3D JUMPI DUP2 MLOAD PUSH2 0x1B24 DUP9 DUP3 PUSH2 0x1AC5 JUMP JUMPDEST SWAP8 POP PUSH2 0x1B2F DUP4 PUSH2 0x1DBD JUMP JUMPDEST SWAP3 POP POP PUSH1 0x1 DUP2 ADD SWAP1 POP PUSH2 0x1B10 JUMP JUMPDEST POP DUP6 SWAP4 POP POP POP POP SWAP3 SWAP2 POP POP JUMP JUMPDEST PUSH2 0x1B53 DUP2 PUSH2 0x1E93 JUMP JUMPDEST DUP3 MSTORE POP POP JUMP JUMPDEST PUSH1 0x0 PUSH2 0x1B64 DUP3 PUSH2 0x1DB2 JUMP JUMPDEST PUSH2 0x1B6E DUP2 DUP6 PUSH2 0x1DDB JUMP JUMPDEST SWAP4 POP PUSH2 0x1B7E DUP2 DUP6 PUSH1 0x20 DUP7 ADD PUSH2 0x1ED8 JUMP JUMPDEST PUSH2 0x1B87 DUP2 PUSH2 0x2087 JUMP JUMPDEST DUP5 ADD SWAP2 POP POP SWAP3 SWAP2 POP POP JUMP JUMPDEST PUSH1 0x0 DUP2 SLOAD PUSH2 0x1B9F DUP2 PUSH2 0x1F0B JUMP JUMPDEST PUSH2 0x1BA9 DUP2 DUP7 PUSH2 0x1DEC JUMP JUMPDEST SWAP5 POP PUSH1 0x1 DUP3 AND PUSH1 0x0 DUP2 EQ PUSH2 0x1BC4 JUMPI PUSH1 0x1 DUP2 EQ PUSH2 0x1BD5 JUMPI PUSH2 0x1C08 JUMP JUMPDEST PUSH1 0xFF NOT DUP4 AND DUP7 MSTORE DUP2 DUP7 ADD SWAP4 POP PUSH2 0x1C08 JUMP JUMPDEST PUSH2 0x1BDE DUP6 PUSH2 0x1D92 JUMP JUMPDEST PUSH1 0x0 JUMPDEST DUP4 DUP2 LT ISZERO PUSH2 0x1C00 JUMPI DUP2 SLOAD DUP2 DUP10 ADD MSTORE PUSH1 0x1 DUP3 ADD SWAP2 POP PUSH1 0x20 DUP2 ADD SWAP1 POP PUSH2 0x1BE1 JUMP JUMPDEST DUP4 DUP9 ADD SWAP6 POP POP POP JUMPDEST POP POP POP SWAP3 SWAP2 POP POP JUMP JUMPDEST PUSH1 0x0 PUSH2 0x1C1E PUSH1 0xC DUP4 PUSH2 0x1DDB JUMP JUMPDEST SWAP2 POP PUSH2 0x1C29 DUP3 PUSH2 0x2098 JUMP JUMPDEST PUSH1 0x20 DUP3 ADD SWAP1 POP SWAP2 SWAP1 POP JUMP JUMPDEST PUSH1 0x0 PUSH2 0x1C41 PUSH1 0x0 DUP4 PUSH2 0x1DEC JUMP JUMPDEST SWAP2 POP PUSH2 0x1C4C DUP3 PUSH2 0x20C1 JUMP JUMPDEST PUSH1 0x0 DUP3 ADD SWAP1 POP SWAP2 SWAP1 POP JUMP JUMPDEST PUSH2 0x1C60 DUP2 PUSH2 0x1EBF JUMP JUMPDEST DUP3 MSTORE POP POP JUMP JUMPDEST PUSH1 0x0 PUSH2 0x1C72 DUP3 DUP5 PUSH2 0x1B92 JUMP JUMPDEST SWAP2 POP DUP2 SWAP1 POP SWAP3 SWAP2 POP POP JUMP JUMPDEST PUSH1 0x0 PUSH2 0x1C88 DUP3 PUSH2 0x1C34 JUMP JUMPDEST SWAP2 POP DUP2 SWAP1 POP SWAP2 SWAP1 POP JUMP JUMPDEST PUSH1 0x0 PUSH1 0x20 DUP3 ADD SWAP1 POP DUP2 DUP2 SUB PUSH1 0x0 DUP4 ADD MSTORE PUSH2 0x1CAC DUP2 DUP5 PUSH2 0x1AEC JUMP JUMPDEST SWAP1 POP SWAP3 SWAP2 POP POP JUMP JUMPDEST PUSH1 0x0 PUSH1 0x20 DUP3 ADD SWAP1 POP PUSH2 0x1CC9 PUSH1 0x0 DUP4 ADD DUP5 PUSH2 0x1B4A JUMP JUMPDEST SWAP3 SWAP2 POP POP JUMP JUMPDEST PUSH1 0x0 PUSH1 0x20 DUP3 ADD SWAP1 POP DUP2 DUP2 SUB PUSH1 0x0 DUP4 ADD MSTORE PUSH2 0x1CE9 DUP2 DUP5 PUSH2 0x1B59 JUMP JUMPDEST SWAP1 POP SWAP3 SWAP2 POP POP JUMP JUMPDEST PUSH1 0x0 PUSH1 0x20 DUP3 ADD SWAP1 POP DUP2 DUP2 SUB PUSH1 0x0 DUP4 ADD MSTORE PUSH2 0x1D0A DUP2 PUSH2 0x1C11 JUMP JUMPDEST SWAP1 POP SWAP2 SWAP1 POP JUMP JUMPDEST PUSH1 0x0 PUSH1 0x20 DUP3 ADD SWAP1 POP PUSH2 0x1D26 PUSH1 0x0 DUP4 ADD DUP5 PUSH2 0x1C57 JUMP JUMPDEST SWAP3 SWAP2 POP POP JUMP JUMPDEST PUSH1 0x0 PUSH2 0x1D36 PUSH2 0x1D47 JUMP JUMPDEST SWAP1 POP PUSH2 0x1D42 DUP3 DUP3 PUSH2 0x1F3D JUMP JUMPDEST SWAP2 SWAP1 POP JUMP JUMPDEST PUSH1 0x0 PUSH1 0x40 MLOAD SWAP1 POP SWAP1 JUMP JUMPDEST PUSH1 0x0 PUSH8 0xFFFFFFFFFFFFFFFF DUP3 GT ISZERO PUSH2 0x1D6C JUMPI PUSH2 0x1D6B PUSH2 0x2044 JUMP JUMPDEST JUMPDEST PUSH2 0x1D75 DUP3 PUSH2 0x2087 JUMP JUMPDEST SWAP1 POP PUSH1 0x20 DUP2 ADD SWAP1 POP SWAP2 SWAP1 POP JUMP JUMPDEST PUSH1 0x0 DUP2 SWAP1 POP PUSH1 0x20 DUP3 ADD SWAP1 POP SWAP2 SWAP1 POP JUMP JUMPDEST PUSH1 0x0 DUP2 SWAP1 POP DUP2 PUSH1 0x0 MSTORE PUSH1 0x20 PUSH1 0x0 KECCAK256 SWAP1 POP SWAP2 SWAP1 POP JUMP JUMPDEST PUSH1 0x0 DUP2 MLOAD SWAP1 POP SWAP2 SWAP1 POP JUMP JUMPDEST PUSH1 0x0 DUP2 MLOAD SWAP1 POP SWAP2 SWAP1 POP JUMP JUMPDEST PUSH1 0x0 PUSH1 0x20 DUP3 ADD SWAP1 POP SWAP2 SWAP1 POP JUMP JUMPDEST PUSH1 0x0 DUP3 DUP3 MSTORE PUSH1 0x20 DUP3 ADD SWAP1 POP SWAP3 SWAP2 POP POP JUMP JUMPDEST PUSH1 0x0 DUP3 DUP3 MSTORE PUSH1 0x20 DUP3 ADD SWAP1 POP SWAP3 SWAP2 POP POP JUMP JUMPDEST PUSH1 0x0 DUP2 SWAP1 POP SWAP3 SWAP2 POP POP JUMP JUMPDEST PUSH1 0x0 PUSH2 0x1E02 DUP3 PUSH2 0x1EBF JUMP JUMPDEST SWAP2 POP PUSH2 0x1E0D DUP4 PUSH2 0x1EBF JUMP JUMPDEST SWAP3 POP DUP3 PUSH32 0xFFFFFFFFFFFFFFFFFFFFFFFFFFFFFFFFFFFFFFFFFFFFFFFFFFFFFFFFFFFFFFFF SUB DUP3 GT ISZERO PUSH2 0x1E42 JUMPI PUSH2 0x1E41 PUSH2 0x1FB7 JUMP JUMPDEST JUMPDEST DUP3 DUP3 ADD SWAP1 POP SWAP3 SWAP2 POP POP JUMP JUMPDEST PUSH1 0x0 PUSH2 0x1E58 DUP3 PUSH2 0x1EBF JUMP JUMPDEST SWAP2 POP PUSH2 0x1E63 DUP4 PUSH2 0x1EBF JUMP JUMPDEST SWAP3 POP DUP3 DUP3 LT ISZERO PUSH2 0x1E76 JUMPI PUSH2 0x1E75 PUSH2 0x1FB7 JUMP JUMPDEST JUMPDEST DUP3 DUP3 SUB SWAP1 POP SWAP3 SWAP2 POP POP JUMP JUMPDEST PUSH1 0x0 PUSH2 0x1E8C DUP3 PUSH2 0x1E9F JUMP JUMPDEST SWAP1 POP SWAP2 SWAP1 POP JUMP JUMPDEST PUSH1 0x0 DUP2 ISZERO ISZERO SWAP1 POP SWAP2 SWAP1 POP JUMP JUMPDEST PUSH1 0x0 PUSH20 0xFFFFFFFFFFFFFFFFFFFFFFFFFFFFFFFFFFFFFFFF DUP3 AND SWAP1 POP SWAP2 SWAP1 POP JUMP JUMPDEST PUSH1 0x0 DUP2 SWAP1 POP SWAP2 SWAP1 POP JUMP JUMPDEST DUP3 DUP2 DUP4 CALLDATACOPY PUSH1 0x0 DUP4 DUP4 ADD MSTORE POP POP POP JUMP JUMPDEST PUSH1 0x0 JUMPDEST DUP4 DUP2 LT ISZERO PUSH2 0x1EF6 JUMPI DUP1 DUP3 ADD MLOAD DUP2 DUP5 ADD MSTORE PUSH1 0x20 DUP2 ADD SWAP1 POP PUSH2 0x1EDB JUMP JUMPDEST DUP4 DUP2 GT ISZERO PUSH2 0x1F05 JUMPI PUSH1 0x0 DUP5 DUP5 ADD MSTORE JUMPDEST POP POP POP POP JUMP JUMPDEST PUSH1 0x0 PUSH1 0x2 DUP3 DIV SWAP1 POP PUSH1 0x1 DUP3 AND DUP1 PUSH2 0x1F23 JUMPI PUSH1 0x7F DUP3 AND SWAP2 POP JUMPDEST PUSH1 0x20 DUP3 LT DUP2 EQ ISZERO PUSH2 0x1F37 JUMPI PUSH2 0x1F36 PUSH2 0x1FE6 JUMP JUMPDEST JUMPDEST POP SWAP2 SWAP1 POP JUMP JUMPDEST PUSH2 0x1F46 DUP3 PUSH2 0x2087 JUMP JUMPDEST DUP2 ADD DUP2 DUP2 LT PUSH8 0xFFFFFFFFFFFFFFFF DUP3 GT OR ISZERO PUSH2 0x1F65 JUMPI PUSH2 0x1F64 PUSH2 0x2044 JUMP JUMPDEST JUMPDEST DUP1 PUSH1 0x40 MSTORE POP POP POP JUMP JUMPDEST PUSH1 0x0 PUSH2 0x1F79 DUP3 PUSH2 0x1EBF JUMP JUMPDEST SWAP2 POP PUSH32 0xFFFFFFFFFFFFFFFFFFFFFFFFFFFFFFFFFFFFFFFFFFFFFFFFFFFFFFFFFFFFFFFF DUP3 EQ ISZERO PUSH2 0x1FAC JUMPI PUSH2 0x1FAB PUSH2 0x1FB7 JUMP JUMPDEST JUMPDEST PUSH1 0x1 DUP3 ADD SWAP1 POP SWAP2 SWAP1 POP JUMP JUMPDEST PUSH32 0x4E487B7100000000000000000000000000000000000000000000000000000000 PUSH1 0x0 MSTORE PUSH1 0x11 PUSH1 0x4 MSTORE PUSH1 0x24 PUSH1 0x0 REVERT JUMPDEST PUSH32 0x4E487B7100000000000000000000000000000000000000000000000000000000 PUSH1 0x0 MSTORE PUSH1 0x22 PUSH1 0x4 MSTORE PUSH1 0x24 PUSH1 0x0 REVERT JUMPDEST PUSH32 0x4E487B7100000000000000000000000000000000000000000000000000000000 PUSH1 0x0 MSTORE PUSH1 0x32 PUSH1 0x4 MSTORE PUSH1 0x24 PUSH1 0x0 REVERT JUMPDEST PUSH32 0x4E487B7100000000000000000000000000000000000000000000000000000000 PUSH1 0x0 MSTORE PUSH1 0x41 PUSH1 0x4 MSTORE PUSH1 0x24 PUSH1 0x0 REVERT JUMPDEST PUSH1 0x0 DUP1 REVERT JUMPDEST PUSH1 0x0 DUP1 REVERT JUMPDEST PUSH1 0x0 DUP1 REVERT JUMPDEST PUSH1 0x0 DUP1 REVERT JUMPDEST PUSH1 0x0 PUSH1 0x1F NOT PUSH1 0x1F DUP4 ADD AND SWAP1 POP SWAP2 SWAP1 POP JUMP JUMPDEST PUSH32 0x4163636573732064656E69650000000000000000000000000000000000000000 PUSH1 0x0 DUP3 ADD MSTORE POP JUMP JUMPDEST POP JUMP JUMPDEST PUSH2 0x20CD DUP2 PUSH2 0x1E81 JUMP JUMPDEST DUP2 EQ PUSH2 0x20D8 JUMPI PUSH1 0x0 DUP1 REVERT JUMPDEST POP JUMP JUMPDEST PUSH2 0x20E4 DUP2 PUSH2 0x1E93 JUMP JUMPDEST DUP2 EQ PUSH2 0x20EF JUMPI PUSH1 0x0 DUP1 REVERT JUMPDEST POP JUMP JUMPDEST PUSH2 0x20FB DUP2 PUSH2 0x1EBF JUMP JUMPDEST DUP2 EQ PUSH2 0x2106 JUMPI PUSH1 0x0 DUP1 REVERT JUMPDEST POP JUMP INVALID LOG2 PUSH5 0x6970667358 0x22 SLT KECCAK256 LOG3 LOG1 0xD4 CALLDATASIZE 0xDE CREATE SELFBALANCE DUP5 0xA5 SWAP1 0xB7 PUSH17 0x9D568C6CE4E76DA49B6C71979CF474AB23 0xBB 0xD6 0xFC PUSH5 0x736F6C6343 STOP ADDMOD SMOD STOP CALLER "
				},
				"gasEstimates": {
					"creation": {
						"codeDepositCost": "1702200",
						"executionCost": "infinite",
						"totalCost": "infinite"
					},
					"external": {
						"addUserInTrip(uint256)": "infinite",
						"getBalance()": "2578",
						"getInfoOfTrip(uint256)": "infinite",
						"getPeopleInTrip(uint256)": "infinite",
						"getSostBus(uint256)": "7431",
						"getTripPrise(uint256)": "infinite",
						"getUser(address)": "infinite",
						"getUserRole(address)": "infinite",
						"moneyHome()": "infinite",
						"pay()": "infinite",
						"setBus(uint256,bool,uint256)": "infinite",
						"setPersonUser(address,string,uint256)": "infinite",
						"setSimpleUser(string)": "infinite",
						"setSostBus(uint256,bool)": "29505",
						"setTrip(uint256,string,string,uint256,uint256)": "infinite"
					},
					"internal": {
						"concat(string memory,string memory)": "infinite"
					}
				},
				"methodIdentifiers": {
					"addUserInTrip(uint256)": "77c3e6cc",
					"getBalance()": "12065fe0",
					"getInfoOfTrip(uint256)": "05d930b7",
					"getPeopleInTrip(uint256)": "311c0c62",
					"getSostBus(uint256)": "d1342923",
					"getTripPrise(uint256)": "35c064c6",
					"getUser(address)": "6f77926b",
					"getUserRole(address)": "27820851",
					"moneyHome()": "bf1e4efc",
					"pay()": "1b9265b8",
					"setBus(uint256,bool,uint256)": "ccede9a7",
					"setPersonUser(address,string,uint256)": "40e5cb3f",
					"setSimpleUser(string)": "ed9023dd",
					"setSostBus(uint256,bool)": "92f7e2ce",
					"setTrip(uint256,string,string,uint256,uint256)": "5ee44ac7"
				}
			},
			"storageLayout": {
				"storage": [
					{
						"astId": 63,
						"contract": "one_smart_contract/contr.sol:SimpleContract",
						"label": "massOfTrip",
						"offset": 0,
						"slot": "0",
						"type": "t_mapping(t_uint256,t_struct(Trip)58_storage)"
					},
					{
						"astId": 68,
						"contract": "one_smart_contract/contr.sol:SimpleContract",
						"label": "massOfUsers",
						"offset": 0,
						"slot": "1",
						"type": "t_mapping(t_address,t_struct(User)39_storage)"
					},
					{
						"astId": 73,
						"contract": "one_smart_contract/contr.sol:SimpleContract",
						"label": "massOfBus",
						"offset": 0,
						"slot": "2",
						"type": "t_mapping(t_uint256,t_struct(Bus)46_storage)"
					}
				],
				"types": {
					"t_address": {
						"encoding": "inplace",
						"label": "address",
						"numberOfBytes": "20"
					},
					"t_array(t_address)dyn_storage": {
						"base": "t_address",
						"encoding": "dynamic_array",
						"label": "address[]",
						"numberOfBytes": "32"
					},
					"t_bool": {
						"encoding": "inplace",
						"label": "bool",
						"numberOfBytes": "1"
					},
					"t_mapping(t_address,t_struct(User)39_storage)": {
						"encoding": "mapping",
						"key": "t_address",
						"label": "mapping(address => struct SimpleContract.User)",
						"numberOfBytes": "32",
						"value": "t_struct(User)39_storage"
					},
					"t_mapping(t_uint256,t_struct(Bus)46_storage)": {
						"encoding": "mapping",
						"key": "t_uint256",
						"label": "mapping(uint256 => struct SimpleContract.Bus)",
						"numberOfBytes": "32",
						"value": "t_struct(Bus)46_storage"
					},
					"t_mapping(t_uint256,t_struct(Trip)58_storage)": {
						"encoding": "mapping",
						"key": "t_uint256",
						"label": "mapping(uint256 => struct SimpleContract.Trip)",
						"numberOfBytes": "32",
						"value": "t_struct(Trip)58_storage"
					},
					"t_string_storage": {
						"encoding": "bytes",
						"label": "string",
						"numberOfBytes": "32"
					},
					"t_struct(Bus)46_storage": {
						"encoding": "inplace",
						"label": "struct SimpleContract.Bus",
						"members": [
							{
								"astId": 41,
								"contract": "one_smart_contract/contr.sol:SimpleContract",
								"label": "number",
								"offset": 0,
								"slot": "0",
								"type": "t_uint256"
							},
							{
								"astId": 43,
								"contract": "one_smart_contract/contr.sol:SimpleContract",
								"label": "condition",
								"offset": 0,
								"slot": "1",
								"type": "t_bool"
							},
							{
								"astId": 45,
								"contract": "one_smart_contract/contr.sol:SimpleContract",
								"label": "kolvoMest",
								"offset": 0,
								"slot": "2",
								"type": "t_uint256"
							}
						],
						"numberOfBytes": "96"
					},
					"t_struct(Trip)58_storage": {
						"encoding": "inplace",
						"label": "struct SimpleContract.Trip",
						"members": [
							{
								"astId": 48,
								"contract": "one_smart_contract/contr.sol:SimpleContract",
								"label": "punktA",
								"offset": 0,
								"slot": "0",
								"type": "t_string_storage"
							},
							{
								"astId": 50,
								"contract": "one_smart_contract/contr.sol:SimpleContract",
								"label": "punktB",
								"offset": 0,
								"slot": "1",
								"type": "t_string_storage"
							},
							{
								"astId": 52,
								"contract": "one_smart_contract/contr.sol:SimpleContract",
								"label": "prise",
								"offset": 0,
								"slot": "2",
								"type": "t_uint256"
							},
							{
								"astId": 54,
								"contract": "one_smart_contract/contr.sol:SimpleContract",
								"label": "numBus",
								"offset": 0,
								"slot": "3",
								"type": "t_uint256"
							},
							{
								"astId": 57,
								"contract": "one_smart_contract/contr.sol:SimpleContract",
								"label": "massUsers",
								"offset": 0,
								"slot": "4",
								"type": "t_array(t_address)dyn_storage"
							}
						],
						"numberOfBytes": "160"
					},
					"t_struct(User)39_storage": {
						"encoding": "inplace",
						"label": "struct SimpleContract.User",
						"members": [
							{
								"astId": 34,
								"contract": "one_smart_contract/contr.sol:SimpleContract",
								"label": "userName",
								"offset": 0,
								"slot": "0",
								"type": "t_string_storage"
							},
							{
								"astId": 36,
								"contract": "one_smart_contract/contr.sol:SimpleContract",
								"label": "role",
								"offset": 0,
								"slot": "1",
								"type": "t_uint256"
							},
							{
								"astId": 38,
								"contract": "one_smart_contract/contr.sol:SimpleContract",
								"label": "balance",
								"offset": 0,
								"slot": "2",
								"type": "t_uint256"
							}
						],
						"numberOfBytes": "96"
					},
					"t_uint256": {
						"encoding": "inplace",
						"label": "uint256",
						"numberOfBytes": "32"
					}
				}
			},
			"userdoc": {
				"kind": "user",
				"methods": {},
				"version": 1
			}
		}
	}
}